{"abi":[{"type":"constructor","inputs":[],"stateMutability":"nonpayable"},{"type":"function","name":"aminalsByIndex","inputs":[{"name":"","type":"uint256","internalType":"uint256"}],"outputs":[{"name":"","type":"address","internalType":"address"}],"stateMutability":"view"},{"type":"function","name":"breedAminals","inputs":[{"name":"aminalOne","type":"address","internalType":"address"},{"name":"aminalTwo","type":"address","internalType":"address"}],"outputs":[{"name":"auctionId","type":"uint256","internalType":"uint256"}],"stateMutability":"payable"},{"type":"function","name":"geneAuction","inputs":[],"outputs":[{"name":"","type":"address","internalType":"contract GeneAuction"}],"stateMutability":"view"},{"type":"function","name":"genesNFT","inputs":[],"outputs":[{"name":"","type":"address","internalType":"contract GenesNFT"}],"stateMutability":"view"},{"type":"function","name":"getAminalByIndex","inputs":[{"name":"index","type":"uint256","internalType":"uint256"}],"outputs":[{"name":"","type":"address","internalType":"address"}],"stateMutability":"view"},{"type":"function","name":"getAminalVisualsByAddress","inputs":[{"name":"aminalAddress","type":"address","internalType":"address"}],"outputs":[{"name":"","type":"tuple","internalType":"struct IAminalStructs.Visuals","components":[{"name":"backId","type":"uint256","internalType":"uint256"},{"name":"armId","type":"uint256","internalType":"uint256"},{"name":"tailId","type":"uint256","internalType":"uint256"},{"name":"earsId","type":"uint256","internalType":"uint256"},{"name":"bodyId","type":"uint256","internalType":"uint256"},{"name":"faceId","type":"uint256","internalType":"uint256"},{"name":"mouthId","type":"uint256","internalType":"uint256"},{"name":"miscId","type":"uint256","internalType":"uint256"}]}],"stateMutability":"view"},{"type":"function","name":"initialAminalSpawned","inputs":[],"outputs":[{"name":"","type":"bool","internalType":"bool"}],"stateMutability":"view"},{"type":"function","name":"initialize","inputs":[{"name":"_geneAuction","type":"address","internalType":"address"},{"name":"_aminalProposals","type":"address","internalType":"address"},{"name":"_genesNFT","type":"address","internalType":"address"}],"outputs":[],"stateMutability":"nonpayable"},{"type":"function","name":"isAminal","inputs":[{"name":"","type":"address","internalType":"address"}],"outputs":[{"name":"","type":"bool","internalType":"bool"}],"stateMutability":"view"},{"type":"function","name":"loveVRGDA","inputs":[],"outputs":[{"name":"","type":"address","internalType":"contract AminalVRGDA"}],"stateMutability":"view"},{"type":"function","name":"owner","inputs":[],"outputs":[{"name":"","type":"address","internalType":"address"}],"stateMutability":"view"},{"type":"function","name":"proposals","inputs":[],"outputs":[{"name":"","type":"address","internalType":"contract AminalProposals"}],"stateMutability":"view"},{"type":"function","name":"renounceOwnership","inputs":[],"outputs":[],"stateMutability":"nonpayable"},{"type":"function","name":"setup","inputs":[],"outputs":[],"stateMutability":"nonpayable"},{"type":"function","name":"spawnAminal","inputs":[{"name":"momAddress","type":"address","internalType":"address"},{"name":"dadAddress","type":"address","internalType":"address"},{"name":"winningGeneIds","type":"uint256[8]","internalType":"uint256[8]"}],"outputs":[{"name":"","type":"address","internalType":"address"}],"stateMutability":"nonpayable"},{"type":"function","name":"spawnInitialAminals","inputs":[{"name":"_visuals","type":"tuple[]","internalType":"struct IAminalStructs.Visuals[]","components":[{"name":"backId","type":"uint256","internalType":"uint256"},{"name":"armId","type":"uint256","internalType":"uint256"},{"name":"tailId","type":"uint256","internalType":"uint256"},{"name":"earsId","type":"uint256","internalType":"uint256"},{"name":"bodyId","type":"uint256","internalType":"uint256"},{"name":"faceId","type":"uint256","internalType":"uint256"},{"name":"mouthId","type":"uint256","internalType":"uint256"},{"name":"miscId","type":"uint256","internalType":"uint256"}]}],"outputs":[],"stateMutability":"nonpayable"},{"type":"function","name":"totalAminals","inputs":[],"outputs":[{"name":"","type":"uint256","internalType":"uint256"}],"stateMutability":"view"},{"type":"function","name":"transferOwnership","inputs":[{"name":"newOwner","type":"address","internalType":"address"}],"outputs":[],"stateMutability":"nonpayable"},{"type":"event","name":"AminalSpawned","inputs":[{"name":"aminalAddress","type":"address","indexed":true,"internalType":"address"},{"name":"aminalIndex","type":"uint256","indexed":true,"internalType":"uint256"},{"name":"mom","type":"uint256","indexed":true,"internalType":"uint256"},{"name":"dad","type":"uint256","indexed":false,"internalType":"uint256"},{"name":"backId","type":"uint256","indexed":false,"internalType":"uint256"},{"name":"armId","type":"uint256","indexed":false,"internalType":"uint256"},{"name":"tailId","type":"uint256","indexed":false,"internalType":"uint256"},{"name":"earsId","type":"uint256","indexed":false,"internalType":"uint256"},{"name":"bodyId","type":"uint256","indexed":false,"internalType":"uint256"},{"name":"faceId","type":"uint256","indexed":false,"internalType":"uint256"},{"name":"mouthId","type":"uint256","indexed":false,"internalType":"uint256"},{"name":"miscId","type":"uint256","indexed":false,"internalType":"uint256"}],"anonymous":false},{"type":"event","name":"BreedAminal","inputs":[{"name":"aminalOne","type":"address","indexed":true,"internalType":"address"},{"name":"aminalTwo","type":"address","indexed":true,"internalType":"address"},{"name":"auctionId","type":"uint256","indexed":false,"internalType":"uint256"}],"anonymous":false},{"type":"event","name":"Initialized","inputs":[{"name":"version","type":"uint8","indexed":false,"internalType":"uint8"}],"anonymous":false},{"type":"event","name":"OwnershipTransferred","inputs":[{"name":"previousOwner","type":"address","indexed":true,"internalType":"address"},{"name":"newOwner","type":"address","indexed":true,"internalType":"address"}],"anonymous":false}],"bytecode":{"object":"0x60808060405234610028576100133361002c565b61001c3361002c565b6157ce908161008a8239f35b5f80fd5b5f805462010000600160b01b03198116601084811b62010000600160b01b03169190911783556001600160a01b039384169391901c16907f8be0079c531659141344cd1fd0a4f28419497f9722a3daafe3b4186f6b6457e09080a356fe608080604052600436101562000013575f80fd5b5f3560e01c908162a413721462000ed8575080630847335c1462000eae578063313c97211462000d335780635419fa401462000cfd57806355ef20e61462000cd35780635b63648b1462000c92578063715018a61462000c325780637828a4581462000bfe5780637b5cbc8d14620008855780638b9595ff146200085b5780638d549a2514620005105780638da5cb5b14620004e35780639351f7b414620004c457806395504402146200049a578063ba0bba4014620003d1578063c0c53b8b1462000251578063ce17823914620001d75763f2fde38b14620000f4575f80fd5b34620001d3576020366003190112620001d3576200011162000efc565b6200011b62000f75565b6001600160a01b038181169182156200017f575f805462010000600160b01b03198116601093841b62010000600160b01b031617825590911c91909116907f8be0079c531659141344cd1fd0a4f28419497f9722a3daafe3b4186f6b6457e09080a3005b60405162461bcd60e51b815260206004820152602660248201527f4f776e61626c653a206e6577206f776e657220697320746865207a65726f206160448201526564647265737360d01b6064820152608490fd5b5f80fd5b34620001d3576020366003190112620001d35760043560015481101562000216575f526004602052602060018060a01b0360405f205416604051908152f35b60405162461bcd60e51b8152602060048201526013602482015272496e646578206f7574206f6620626f756e647360681b6044820152606490fd5b34620001d3576060366003190112620001d3576200026e62000efc565b6200027862000f13565b6001600160a01b03604435818116939290849003620001d3575f549360ff8560081c161594858096620003c3575b8015620003aa575b156200034e5760ff1981166001175f55856200033c575b50620002d062000f75565b826bffffffffffffffffffffffff60a01b9416846002541617600255836006541617600655169060055416176005556200030657005b61ff00195f54165f557f7f26b83ff96e1f2b6a682f133852f6798a09c465da95921460cefb3847402498602060405160018152a1005b61ffff1916610101175f5585620002c5565b60405162461bcd60e51b815260206004820152602e60248201527f496e697469616c697a61626c653a20636f6e747261637420697320616c72656160448201526d191e481a5b9a5d1a585b1a5e995960921b6064820152608490fd5b50303b158015620002ae5750600160ff821614620002ae565b50600160ff821610620002a6565b34620001d3575f366003190112620001d357620003ed62000f75565b604051610f128082019082821067ffffffffffffffff83111762000486576080918391620048678339670de0b6b3a7640000815267016345785d8a0000602082015268056bc75e2d6310000060408201526801158e460913d0000060608201520301905ff080156200047b57600780546001600160a01b0319166001600160a01b0392909216919091179055005b6040513d5f823e3d90fd5b634e487b7160e01b5f52604160045260245ffd5b34620001d3575f366003190112620001d3576002546040516001600160a01b039091168152602090f35b34620001d3575f366003190112620001d3576020600154604051908152f35b34620001d3575f366003190112620001d3575f5460405160109190911c6001600160a01b03168152602090f35b34620001d3576020366003190112620001d35760043567ffffffffffffffff8111620001d35736602382011215620001d35767ffffffffffffffff816004013511620001d357366024826004013560081b83010111620001d3576200057462000f75565b60025460ff8160a01c16620008165760ff60a01b1916600160a01b176002555f5b81600401358110620005a357005b620005b78183600401356024850162000fdf565b35906020620005cf8285600401356024870162000fdf565b0135916040620005e88386600401356024880162000fdf565b0135926060620006018487600401356024890162000fdf565b01359160806200061a85886004013560248a0162000fdf565b01359460a06200063386896004013560248b0162000fdf565b01359260c06200064c878a6004013560248c0162000fdf565b01359360e062000665888b6004013560248d0162000fdf565b0135604051620006758162001004565b8581528360208201528460408201528760608201528960808201528260a08201528660c08201528160e082015260015460018060a01b03600754169060405192836131cb81011067ffffffffffffffff6131cb860111176200048657620006ff906131cb6200169c8639306131cb86019081525f6020820181905260408201526060019062000f2a565b6101606131cb840101526101806131cb830101526101a0816131cb81010301905ff09586156200047b576001600160a01b0387165f818152600360209081526040808320805460ff1916600190811790915580548452600490925290912080546001600160a01b031916909217909155546200077b9062000fd0565b9283600155835f198101116200080257620007fc9a5f997fd279e76d1945c3c45bbef7a1437671c036bd01d72d3bffa29d9270cdaeef74db97610120976040519a8d8c5260208c015260408b015260608a0152608089015260a088015260c087015260e08601526101008501528519019360018060a01b031692a462000fd0565b62000595565b634e487b7160e01b5f52601160045260245ffd5b60405162461bcd60e51b815260206004820152601f60248201527f496e697469616c20416d696e616c7320616c726561647920737061776e6564006044820152606490fd5b34620001d3575f366003190112620001d3576007546040516001600160a01b039091168152602090f35b34620001d357610140366003190112620001d357620008a362000efc565b620008ad62000f13565b903661014411620001d3576002546001600160a01b0316330362000bad57604051620008d98162001004565b60443581526064356020820152608435604082015260a435606082015260c435608082015260e43560a08201526101043560c08201526101243560e082015260015460018060a01b03600754169060405192836131cb81011067ffffffffffffffff6131cb8601111762000486576200097f906131cb6200169c8639306131cb86019081526001600160a01b038781166020830152881660408201526060019062000f2a565b6101606131cb840101526101806131cb830101526101a0816131cb81010301905ff09081156200047b576001600160a01b0382165f818152600360209081526040808320805460ff1916600190811790915580548452600490925290912080546001600160a01b03191690921790915554620009fb9062000fd0565b9081600155815f1981011162000802576001600160a01b03811662000b3a57505f905b6001600160a01b03841662000ac457602093505f905b604080519283526044358684015260643590830152608435606083015260a435608083015260c43560a083015260e43560c08301526101043560e0830152610124356101008301525f1901906001600160a01b038416907fd279e76d1945c3c45bbef7a1437671c036bd01d72d3bffa29d9270cdaeef74db9061012090a46040516001600160a01b039091168152f35b60405163385cc2d960e21b815293602090859060049082906001600160a01b03165afa80156200047b575f9062000b01575b602094509062000a34565b506020843d60201162000b31575b8162000b1e6020938362001022565b81010312620001d3576020935162000af6565b3d915062000b0f565b60405163385cc2d960e21b815290602090829060049082906001600160a01b03165afa9081156200047b575f9162000b75575b509062000a1e565b90506020813d60201162000ba4575b8162000b936020938362001022565b81010312620001d357518462000b6d565b3d915062000b84565b60405162461bcd60e51b815260206004820152602360248201527f4f6e6c792061756374696f6e20636f6e74726163742063616e2063616c6c207460448201526268697360e81b6064820152608490fd5b34620001d3576020366003190112620001d3576004355f526004602052602060018060a01b0360405f205416604051908152f35b34620001d3575f366003190112620001d35762000c4e62000f75565b5f805462010000600160b01b03198116825560101c6001600160a01b03167f8be0079c531659141344cd1fd0a4f28419497f9722a3daafe3b4186f6b6457e08280a3005b34620001d3576020366003190112620001d3576001600160a01b0362000cb762000efc565b165f526003602052602060ff60405f2054166040519015158152f35b34620001d3575f366003190112620001d3576005546040516001600160a01b039091168152602090f35b6040366003190112620001d357602062000d2b62000d1a62000efc565b62000d2462000f13565b906200105f565b604051908152f35b34620001d357602080600319360112620001d35762000d5162000efc565b5f60e060405162000d628162001004565b82815282858201528260408201528260608201528260808201528260a08201528260c0820152015260018060a01b0316805f526003825260ff60405f2054161562000e70576040519182916306ffad0b60e31b83528260046101009586935afa9182156200047b575f9262000de5575b505062000de3604051809262000f2a565bf35b9091508281813d831162000e68575b62000e00818362001022565b81010312620001d35760e0906040519262000e1b8462001004565b81518452808201519084015260408101516040840152606081015160608401526080810151608084015260a081015160a084015260c081015160c0840152015160e0820152828062000dd2565b503d62000df4565b60405162461bcd60e51b8152600481018390526016602482015275139bdd08185b88105b5a5b985b0818dbdb9d1c9858dd60521b6044820152606490fd5b34620001d3575f366003190112620001d3576006546040516001600160a01b039091168152602090f35b34620001d3575f366003190112620001d35760209060ff60025460a01c1615158152f35b600435906001600160a01b0382168203620001d357565b602435906001600160a01b0382168203620001d357565b60e08091805184526020810151602085015260408101516040850152606081015160608501526080810151608085015260a081015160a085015260c081015160c08501520151910152565b5f5460101c6001600160a01b0316330362000f8c57565b606460405162461bcd60e51b815260206004820152602060248201527f4f776e61626c653a2063616c6c6572206973206e6f7420746865206f776e65726044820152fd5b5f198114620008025760010190565b919081101562000ff05760081b0190565b634e487b7160e01b5f52603260045260245ffd5b610100810190811067ffffffffffffffff8211176200048657604052565b90601f8019910116810190811067ffffffffffffffff8211176200048657604052565b90816020910312620001d357518015158103620001d35790565b66038d7ea4c68000341062001663575f9160018060a01b03809216908184526020906003825260409060ff82872054168062001650575b156200160c57841693815190634562bd6f60e01b908183526004903382850152602493868186818b5afa801562001368578a90620015d4575b600a915010620015a057845162516d9b60e51b8082528382018a905290878187818c5afa908115620012e4578b916200157e575b50620015485785519081528783820152868186818c5afa90811562001368578a9162001514575b50156200146f57845163c02e705760e01b80825290878185818c5afa8015620012e4578b906200143b575b600a915010159081620013dd575b5015620013a7578451928084523383850152868486818b5afa93841562001368578a9462001372575b5085519081523383820152868186818c5afa90811562001368578a9162001335575b5083018093116200132357600254169084519163385cc2d960e21b93848452878484818c5afa938415620012e4578b94620012ee575b508651948552878584818d5afa948515620012e457918b91899594938397620012a5575b5060649495968951988997889663cda4beef60e01b885287015285015260448401525af19586156200129a579562001255575b50905f80516020620057798339815191529151858152a390565b918091955082813d831162001292575b62001271818362001022565b81010312620001d3579051935f80516020620057798339815191526200123b565b503d62001265565b8251903d90823e3d90fd5b9250939490955081813d8311620012dc575b620012c3818362001022565b81010312620001d35751938793928b9190606462001208565b503d620012b7565b87513d8d823e3d90fd5b9093508781813d83116200131b575b62001309818362001022565b81010312620001d35751925f620011e4565b503d620012fd565b634e487b7160e01b8952601182528389fd5b90508681813d831162001360575b6200134f818362001022565b81010312620001d357515f620011ae565b503d62001343565b86513d8c823e3d90fd5b9093508681813d83116200139f575b6200138d818362001022565b81010312620001d35751925f6200118c565b503d62001381565b845162461bcd60e51b8152808301879052601181860152704e6f7420656e6f75676820656e6572677960781b6044820152606490fd5b90508551908152868184818c5afa801562001368578a9062001407575b600a915010155f62001163565b508681813d831162001433575b62001420818362001022565b81010312620001d357600a9051620013fa565b503d62001414565b508781813d831162001467575b62001454818362001022565b81010312620001d357600a905162001155565b503d62001448565b50919050843b156200151057825163058daa5760e21b8152828101879052600182820152918783604481838a5af180156200150657620014c6575b505050905f80516020620057798339815191529151858152a390565b67ffffffffffffffff8398949811620014f55750508552935f80516020620057798339815191525f80620014aa565b634e487b7160e01b84526041905282fd5b84513d8a823e3d90fd5b8680fd5b620015399150873d891162001540575b62001530818362001022565b81019062001045565b5f6200112a565b503d62001524565b855162461bcd60e51b815280840188905260118187015270416c726561647920627265656461626c6560781b6044820152606490fd5b620015999150883d8a11620015405762001530818362001022565b5f62001103565b845162461bcd60e51b8152808301879052600f818601526e4e6f7420656e6f756768206c6f766560881b6044820152606490fd5b508681813d831162001604575b620015ed818362001022565b810103126200160057600a9051620010cf565b8980fd5b503d620015e1565b815162461bcd60e51b815260048101849052601860248201527f496e76616c696420416d696e616c2061646472657373657300000000000000006044820152606490fd5b50848116865260ff828720541662001096565b60405162461bcd60e51b815260206004820152601060248201526f2737ba1032b737bab3b41032ba3432b960811b6044820152606490fdfe6101208060405234620006a05780620031cb8038038091620000228285620006c0565b83398101036101a08112620006a0576200003c82620006e4565b6200004a60208401620006e4565b926200005960408201620006e4565b906101008094605f190112620006a0576040518481016001600160401b038111828210176200054157604052606082015181526080820151602082015260a0820151604082015260c0820151606082015260e082015160808201528482015160a082015261012082015160c082015261014082015160e0820152620000e86101806101608401519301620006e4565b604051630211ccd760e21b8152969093906020886004816001600160a01b038a165afa97881562000695575f9862000641575b50604051976200012b89620006a4565b6006895265105b5a5b985b60d21b60208a0152604051986200014d8a620006a4565b60068a526510535253905360d21b60208b01528051906001600160401b03821162000541575f5490600182811c9216801562000636575b6020831014620005225781601f849311620005d9575b50602090601f831160011462000561575f9262000555575b50508160011b915f199060031b1c1916175f555b88516001600160401b0381116200054157600154600181811c9116801562000536575b60208210146200052257601f8111620004be575b506020601f82116001146200044c57819060e09798999a9b5f9262000440575b50508160011b915f199060031b1c1916176001555b600680546001600160a01b03199081166001600160a01b0393841617909155600780549091169055878116608081815260a093845260c0948552855160085560208601516009556040860151600a556060860151600b55850151600c5591840151600d5591830151600e559290910151600f5560e09290925291168352603260115515620003fc5760015f5260026020525f80516020620031ab83398151915254620002eb906001600160a01b031615155b15620006f9565b60015f5260026020525f80516020620031ab833981519152546200031a906001600160a01b03161515620002e4565b6001600160a01b03165f8181526003602090815260408083208054600190810190915580845260029092525f80516020620031ab83398151915280546001600160a01b03191685179055519290917fddf252ad1be2c89b69c2b068fc378daa952ba7f163c4a11628f55a4df523b3ef8180a4612a449182620007478339608051828181610c8401528181610f40015281816113530152611573015260a051828181610ad10152611467015260c05182818161141a015261148c015260e0518281816113a5015281816114ca0152611bc9015251818181610ee701526117140152f35b606460405162461bcd60e51b815260206004820152602060248201527f4552433732313a206d696e7420746f20746865207a65726f20616464726573736044820152fd5b015190505f806200021d565b60015f5260205f209a5f5b601f1984168110620004a557509a829160e098999a9b9c600194601f198116106200048c575b505050811b0160015562000232565b01515f1960f88460031b161c191690555f80806200047d565b828201518d556001909c019b6020928301920162000457565b60015f527fb10e2d527612073b26eecdfd717e6a320cf44b4afac2b0732d9fcbe2b7fa0cf6601f830160051c8101602084106200051a575b601f830160051c820181106200050e575050620001fd565b5f8155600101620004f6565b5080620004f6565b634e487b7160e01b5f52602260045260245ffd5b90607f1690620001e9565b634e487b7160e01b5f52604160045260245ffd5b015190505f80620001b2565b5f80805293505f805160206200318b83398151915291905b601f1984168510620005bd576001945083601f19811610620005a4575b505050811b015f55620001c6565b01515f1960f88460031b161c191690555f808062000596565b8181015183556020948501946001909301929091019062000579565b5f80529091505f805160206200318b833981519152601f840160051c8101602085106200062e575b90849392915b601f830160051c820181106200061f5750506200019a565b5f815585945060010162000607565b508062000601565b91607f169162000184565b6020989198813d6020116200068c575b816200066060209383620006c0565b81010312620006885751906001600160a01b0382168203620006855750965f6200011b565b80fd5b5080fd5b3d915062000651565b6040513d5f823e3d90fd5b5f80fd5b604081019081106001600160401b038211176200054157604052565b601f909101601f19168101906001600160401b038211908210176200054157604052565b51906001600160a01b0382168203620006a057565b156200070157565b60405162461bcd60e51b815260206004820152601c60248201527f4552433732313a20746f6b656e20616c7265616479206d696e746564000000006044820152606490fdfe60806040526004361015610022575b3615610018575f80fd5b610020611c2e565b005b5f3560e01c806301ffc9a7146102f857806306fdde03146102f357806307c3c948146102ee578063081812fc146102e95780630847335c146102e4578063095ea7b3146102df5780630a2db360146102b25780631636a95c146102da578063208f45e6146102d557806323b872dd146102b757806328556bbb146102d057806328f14b44146102cb57806337a7b7d8146102c657806337fd6858146102c15780633bc848bc146102bc57806342842e0e146102b7578063442701ce146102b25780634562bd6f146102a3578063465f2cdf146102ad5780635083886b146102a857806356946e5f146102a35780635ac1e3bb1461029e5780635d405330146102995780635e9de302146102945780636352211e1461028f57806369e658fc1461025d57806370a082311461028a5780637ad72c9a146102855780638b9595ff146102805780638e66b6791461027b57806392b4c81b14610276578063938a34581461027157806395d89b411461026c578063a22cb46514610267578063aa8492441461024e578063b0f4843f14610262578063b1b894f21461025d578063b473522c14610258578063b88d4fde14610253578063c02e70571461024e578063c45a015514610249578063c87b56dd14610244578063ce4125001461023f578063dd6133b51461023a578063e1730b6414610235578063e985e9c5146102305763ebaf6fec0361000e57611547565b6114ed565b6114b3565b611449565b611405565b611382565b61133e565b61125c565b6112e1565b6112b9565b610cf9565b611279565b6111dd565b61111e565b6110ff565b61103c565b610f16565b610ed2565b610df5565b610d16565b610cc4565b610c60565b610c07565b610be8565b610a81565b610b00565b610abc565b6105d7565b610743565b610a05565b610837565b610818565b6107be565b61076f565b61070b565b610626565b610561565b610528565b6104de565b6104bf565b6103b7565b346103665760203660031901126103665760043563ffffffff60e01b8116809103610366576020906380ac58cd60e01b8114908115610355575b8115610344575b506040519015158152f35b6301ffc9a760e01b1490505f610339565b635b5e139f60e01b81149150610332565b5f80fd5b5f5b83811061037b5750505f910152565b818101518382015260200161036c565b604091602082526103ab815180928160208601526020868601910161036a565b601f01601f1916010190565b34610366575f806003193601126104bc57604051908080549060019180831c928082169283156104b2575b602092838610851461049e57858852602088019490811561047d5750600114610426575b610422876104168189038261091f565b6040519182918261038b565b0390f35b5f805294509192917f290decd9548b62a8d60345a988386fc84ba6bc95484008f6362f93160ef3e5635b83861061046c5750505091019050610416826104225f80610406565b805485870152948201948101610450565b60ff191685525050505090151560051b019050610416826104225f80610406565b634e487b7160e01b82526022600452602482fd5b93607f16936103e2565b80fd5b3461036657602036600319011261036657610422610416600435612275565b34610366576020366003190112610366576020600435805f526002825260018060a01b03906105148260405f20541615156115b2565b5f526004825260405f205416604051908152f35b34610366575f366003190112610366576006546040516001600160a01b039091168152602090f35b6001600160a01b0381160361036657565b346103665760403660031901126103665761057d600435610550565b60405162461bcd60e51b815260206004820152602c60248201527f416d696e616c732061726520736f756c626f756e6420616e642063616e6e6f7460448201526b08189948185c1c1c9bdd995960a21b6064820152608490fd5b34610366576020366003190112610366576004356105f481610550565b60018060a01b03165f526013602052602060ff60405f2054166040519015158152f35b60243590811515820361036657565b346103665760403660031901126103665760043561064381610550565b61064b610617565b335f526014602052600a60405f2054106106d457816106b08261069f7fff1ce36355064a2eac76e57c8220d5bac2c7bb2a6622c6158d32e681eedd0c1c9560018060a01b03165f52601360205260405f2090565b9060ff801983541691151516179055565b604080516001600160a01b039092168252911515602082015290819081015b0390a1005b60405162461bcd60e51b815260206004820152600f60248201526e4e6f7420656e6f756768206c6f766560881b6044820152606490fd5b3461036657602036600319011261036657602061073260043561072d81610550565b6119fe565b6001600160801b0360405191168152f35b346103665760603660031901126103665761075f600435610550565b61076a602435610550565b611914565b34610366575f36600319011261036657602060ff601254166040519015158152f35b9181601f84011215610366578235916001600160401b038311610366576020838186019501011161036657565b34610366576040366003190112610366576004356001600160401b038111610366576107ee903690600401610791565b90335f52601560205260405f20918060405192833781019182526020816024359303019020555f80f35b5f36600319011261036657602061082f34336116d6565b604051908152f35b34610366575f3660031901126103665761084f611a98565b5061042261085b611ae6565b6040519182918291909160e080610100830194805184526020810151602085015260408101516040850152606081015160608501526080810151608085015260a081015160a085015260c081015160c08501520151910152565b634e487b7160e01b5f52604160045260245ffd5b602081019081106001600160401b038211176108e457604052565b6108b5565b604081019081106001600160401b038211176108e457604052565b606081019081106001600160401b038211176108e457604052565b90601f801991011681019081106001600160401b038211176108e457604052565b60405190608082018281106001600160401b038211176108e457604052565b6040519061010082018281106001600160401b038211176108e457604052565b6001600160401b0381116108e457601f01601f191660200190565b9291926109a68261097f565b916109b4604051938461091f565b829481845281830111610366578281602093845f960137010152565b9080601f83011215610366578160206109eb9335910161099a565b90565b90610a016020928281519485920161036a565b0190565b3461036657604036600319011261036657600435610a2281610550565b602435906001600160401b038211610366576020610a6f91610a49829436906004016109d0565b9060018060a01b03165f526015825260405f20826040519483868095519384920161036a565b82019081520301902054604051908152f35b3461036657602036600319011261036657600435610a9e81610550565b60018060a01b03165f526014602052602060405f2054604051908152f35b34610366575f366003190112610366576040517f00000000000000000000000000000000000000000000000000000000000000006001600160a01b03168152602090f35b60203660031901126103665760043566038d7ea4c680003410610bd657335f90815260146020526040902081905410610bc457807f1193f7f56bf6fc76e52b7edc5f2e6df4fd725f858cb71c88f75180a456b626199160115481811015610bab575b50610b6d90336119a7565b335f90815260146020526040902054601054601154604080513381526020810195909552840192909252606083015260808201528060a081016106cf565b610bbd91610bb8916116c9565b601155565b805f610b62565b604051631d67da9d60e21b8152600490fd5b604051638a0d377960e01b8152600490fd5b3461036657602036600319011261036657610422610416600435611d76565b34610366575f36600319011261036657610100600854600954600a54600b54600c54600d5491600e5493600f5495604051978852602088015260408701526060860152608085015260a084015260c083015260e0820152f35b346103665760203660031901126103665760043580151580910361036657610cb2337f00000000000000000000000000000000000000000000000000000000000000006001600160a01b0316146118c8565b60ff8019601254169116176012555f80f35b34610366576020366003190112610366576004355f526002602052602060018060a01b0360405f20541661082f8115156115b2565b34610366575f366003190112610366576020601054604051908152f35b3461036657602036600319011261036657600435610d3381610550565b6001600160a01b03168015610d62575f52600360205261042260405f2054604051918291829190602083019252565b60405162461bcd60e51b815260206004820152602960248201527f4552433732313a2061646472657373207a65726f206973206e6f7420612076616044820152683634b21037bbb732b960b91b6064820152608490fd5b90604060031983011261036657600435610dd281610550565b91602435906001600160401b03821161036657610df191600401610791565b9091565b610dfe36610db9565b9160405163b13506a360e01b815260208180610e208787303360048601611874565b0381346001600160a01b0387165af18015610ecd577fc7e603cfb39436822f6ccab2341db7be1d46168d194365562b4b5985cf9c7e44946106cf925f92610e9d575b5081610e75575b6040519485948561189d565b8160115481811015610e89575b5050610e69565b610e9691610bb8916116c9565b815f610e82565b610ebf91925060203d8111610ec6575b610eb7818361091f565b8101906115fe565b905f610e62565b503d610ead565b61160d565b34610366575f366003190112610366576040517f00000000000000000000000000000000000000000000000000000000000000006001600160a01b03168152602090f35b3461036657604036600319011261036657600435602435610f3681610550565b6001600160a01b037f000000000000000000000000000000000000000000000000000000000000000081163381148015610fd8575b610f759150611b59565b60115491838310610fc657610fae610bb8857f704ef265c2f2ab6759468a12c34cb227d7b6431813a9e4921887b9e59d2a766d956116c9565b601154604080519586526020860191909152911692a2005b604051637962b8d160e11b8152600490fd5b50602060049160405192838092634aa8220160e11b82525afa908115610ecd57610f759183915f9161100e575b50163314610f6b565b61102f915060203d8111611035575b611027818361091f565b810190611b44565b5f611005565b503d61101d565b34610366576003196020368201126103665760048035916001600160401b039081841161036657608090843603011261036657611077610940565b908383013581811161036657611092908436918701016109d0565b82526024840135818111610366576110af908436918701016109d0565b60208301526044840135818111610366576110cf908436918701016109d0565b604083015260648401359081116103665761042293610416936110f592369201016109d0565b6060820152611c42565b346103665760203660031901126103665761042261085b600435611bbe565b34610366575f806003193601126104bc576040519080600190815480831c928082169283156111d3575b602092838610851461049e57858852602088019490811561047d575060011461117b57610422876104168189038261091f565b60015f5294509192917fb10e2d527612073b26eecdfd717e6a320cf44b4afac2b0732d9fcbe2b7fa0cf65b8386106111c25750505091019050610416826104225f80610406565b8054858701529482019481016111a6565b93607f1693611148565b34610366576040366003190112610366576111f9600435610550565b611201610617565b5060405162461bcd60e51b815260206004820152602c60248201527f416d696e616c732061726520736f756c626f756e6420616e642063616e6e6f7460448201526b08189948185c1c1c9bdd995960a21b6064820152608490fd5b34610366575f366003190112610366576020601154604051908152f35b346103665760208061128a36610db9565b929160018060a01b03165f526015825260405f2083604051948593843782019081520301902054604051908152f35b34610366575f366003190112610366576007546040516001600160a01b039091168152602090f35b34610366576080366003190112610366576112fd600435610550565b611308602435610550565b6064356001600160401b03811161036657366023820112156103665761133890369060248160040135910161099a565b50611914565b34610366575f366003190112610366576040517f00000000000000000000000000000000000000000000000000000000000000006001600160a01b03168152602090f35b34610366576020366003190112610366576001600435036113c9576104226104167f0000000000000000000000000000000000000000000000000000000000000000611d76565b60405162461bcd60e51b8152602060048201526014602482015273151bdad95b88191bd95cc81b9bdd08195e1a5cdd60621b6044820152606490fd5b34610366575f366003190112610366576040517f00000000000000000000000000000000000000000000000000000000000000006001600160a01b03168152602090f35b34610366575f36600319011261036657604080516001600160a01b037f0000000000000000000000000000000000000000000000000000000000000000811682527f0000000000000000000000000000000000000000000000000000000000000000166020820152f35b34610366575f3660031901126103665760206040517f00000000000000000000000000000000000000000000000000000000000000008152f35b346103665760403660031901126103665760043561150a81610550565b6024359061151782610550565b60018060a01b038091165f52600560205260405f2091165f52602052602060ff60405f2054166040519015158152f35b346103665760203660031901126103665760043561156481610550565b6001600160a01b039061159a337f00000000000000000000000000000000000000000000000000000000000000008416146118c8565b165f908152601360205260409020805460ff19169055005b156115b957565b60405162461bcd60e51b815260206004820152601860248201527f4552433732313a20696e76616c696420746f6b656e20494400000000000000006044820152606490fd5b90816020910312610366575190565b6040513d5f823e3d90fd5b634e487b7160e01b5f52601160045260245ffd5b906127109182810292818404149015171561164357565b611618565b600281901b91906001600160fe1b0381160361164357565b634e487b7160e01b5f52601260045260245ffd5b80156116805760640490565b611660565b8115611680570490565b906002820180921161164357565b906020820180921161164357565b9190820180921161164357565b90620f424091820391821161164357565b9190820391821161164357565b9066038d7ea4c680003410610bd657601154604051637726dafd60e01b81526004810191909152602481018290526020816044816001600160a01b037f0000000000000000000000000000000000000000000000000000000000000000165afa8015610ecd5761174e915f91611836575b5083611971565b61176861175a8261162c565b670de0b6b3a7640000900490565b9060115492620f424061177b84866116ab565b116117fb575b6117b0610bb8847fc6f7c174edbf811379339d42d7025cd8bfb103e0a8aba7c1b092f64fcfb1d7b595966116ab565b6001600160a01b03165f8181526014602090815260409182902054601054601154845195865292850195909552918301919091526060820192909252608081019190915260a090a190565b7fc6f7c174edbf811379339d42d7025cd8bfb103e0a8aba7c1b092f64fcfb1d7b592506117b0610bb861182d866116b8565b94505050611781565b61184e915060203d8111610ec657610eb7818361091f565b5f611747565b908060209392818452848401375f828201840152601f01601f1916010190565b6001600160a01b039182168152911660208201526060604082018190526109eb93910191611854565b949392916040926118c39260018060a01b03168752606060208801526060870191611854565b930152565b156118cf57565b60405162461bcd60e51b815260206004820152601a60248201527f4f6e6c7920666163746f72792063616e2063616c6c20746869730000000000006044820152606490fd5b60405162461bcd60e51b815260206004820152602f60248201527f416d696e616c732061726520736f756c626f756e6420616e642063616e6e6f7460448201526e081899481d1c985b9cd9995c9c9959608a1b6064820152608490fd5b6001600160a01b03165f908152601460205260409020805482810191908210611643575560105490810180911161164357601055565b6001600160a01b03165f908152601460205260409020805482810391908211611643575560105490810390811161164357601055565b9066038d7ea4c680006001600160801b038093160291821691820361164357565b6001600160a01b03165f908152601460205260409020546010548015611a8a5760648202918083046064149015171561164357611a3a91611685565b80611a6d575060645b6001600a6001600160801b038093160491821610611a65575b6109eb906119dd565b506001611a5c565b611a79611a8591611674565b6001600160801b031690565b611a43565b505067016345785d8a000090565b6040519061010082018281106001600160401b038211176108e4576040528160e05f918281528260208201528260408201528260608201528260808201528260a08201528260c08201520152565b6040519061010082018281106001600160401b038211176108e4576040528160085481526009546020820152600a546040820152600b546060820152600c546080820152600d5460a0820152600e5460c082015260e0600f54910152565b9081602091031261036657516109eb81610550565b15611b6057565b60405162461bcd60e51b815260206004820152603060248201527f4f6e6c7920666163746f7279206f722067656e652061756374696f6e2063616e60448201526f207472616e7366657220656e6572677960801b6064820152608490fd5b611bc6611a98565b507f000000000000000000000000000000000000000000000000000000000000000003611bf5576109eb611ae6565b60405162461bcd60e51b8152602060048201526011602482015270125b9d985b1a5908185b5a5b985b081251607a1b6044820152606490fd5b34611c3557565b611c3f34336116d6565b50565b6109eb611c9e611d35611d6a93611d1c611d0e825192611cea611cf0602083015192611cea603b606060408401519301519560296040519c8d809c683d913730b6b2911d1160b91b60208301526020815194859301910161036a565b8a0171111610113232b9b1b934b83a34b7b7111d1160711b6029820152611cce825180936020868501910161036a565b0101600d906c1116101134b6b0b3b2911d101160991b81520190565b906109ee565b71222c202261747472696275746573223a205b60701b815260120190565b615d7d60f01b815260020190565b0391611d30601f199384810183528261091f565b61291c565b6040517f646174613a6170706c69636174696f6e2f6a736f6e3b6261736536342c0000006020820152938491603d8301611cea565b0390810183528261091f565b6109eb90611d838161271d565b90611dc26028604051809467416d696e616c202360c01b6020830152611db2815180926020868601910161036a565b810103600881018552018361091f565b611e09611e97611dd4611d3084611f6c565b6040517f646174613a696d6167652f7376672b786d6c3b6261736536342c0000000000006020820152928391603a8301611cea565b0392611e1d601f199485810185528461091f565b611e926040519485611e86602082016041907f54686973204e465420726570726573656e74732061206469676974616c20706581527f742e2054686973204e46542063616e6e6f74206265207472616e7366657265646020820152601760f91b60408201520190565b0390810186528561091f565b612275565b91611ea0610940565b938452602084015260408301526060820152611c42565b60405190611ec4826108c9565b5f8252565b6040519060a082018281106001600160401b038211176108e4576040908152606483527f3c73766720786d6c6e733d22687474703a2f2f7777772e77332e6f72672f323060208401527f30302f73766722207072657365727665417370656374526174696f3d22784d69908301527f6e594d696e206d656574222076696577426f783d2230203020313030302031306060830152631818111f60e11b6080830152565b6109eb611f7b611cea92611bbe565b611f83611ec9565b611d6a612117611f938451612129565b61210b611fb86120ff6120f160e06040958651948591611cea60209c8d8501906109ee565b0399611fcc601f199b8c810187528661091f565b6120648a612058611fe38a519889938401906109ee565b7f3c672069643d22736861646f77223e3c656c6c697073652066696c6c3d22233381527f633364353522206f7061636974793d22302e3522202063783d2235303522206360208201527f793d22393731222072783d22313633222072793d223132222f3e3c2f673e00006040820152605e0190565b038c810187528661091f565b6120878a6120586120778a850151612129565b611cea8b51998a948501906109ee565b61209a8a61205861207782850151612129565b6120ae8a6120586120776060850151612129565b6120c28a6120586120776080850151612129565b6120d68a61205861207760a0850151612129565b6120ea8a61205861207760c0850151612129565b0151612129565b84519a8b93898501906109ee565b0386810189528861091f565b519586938401906109ee565b651e17b9bb339f60d11b815260060190565b801561220c576006546040516379b68ad360e01b815260048101929092525f908190839060249082906001600160a01b03165afa90918282612175575b50506109eb57506109eb611eb7565b909192503d8082843e612188818461091f565b8201916040818403126122085780516001600160401b03811161220457810183601f82011215612204578051906121be8261097f565b946121cc604051968761091f565b8286526020838301011161220057916121ef60209260089484808901910161036a565b015110156104bc5750905f80612166565b8380fd5b8280fd5b5080fd5b50604051612219816108c9565b5f815290565b5f1981146116435760010190565b634e487b7160e01b5f52603260045260245ffd5b9060088110156122525760051b0190565b61222d565b6008111561226157565b634e487b7160e01b5f52602160045260245ffd5b61227e90611bbe565b612286611eb7565b90600161229161095f565b9180518352602091828201518385015260e06040928381015184870152606081015160608701526080810151608087015260a081015160a087015260c081015160c0870152015160e08501525f5b600881106122ef57505050505090565b6122f98186612241565b518061230f575b5061230a9061221f565b6122df565b909561231a87612257565b612323876125e8565b90836124ac5761235c6123419161234e87519384928a8401906109ee565b600b60fa1b815260010190565b03601f19810183528261091f565b905b60065485516331a9108f60e11b8152600481018590525f94918890829060249082906001600160a01b03165afa85918161248d575b50612483575b506123a39061271d565b926123b6906001600160a01b0316612811565b9085519384938885016123c8916109ee565b6e3d913a3930b4ba2fba3cb832911d1160891b8152600f016123ea90836109ee565b70222c2276616c7565223a2247656e65202360781b815260110161240d916109ee565b61227d60f01b81526002016f163d913a3930b4ba2fba3cb832911d1160811b815260100161243a916109ee565b721021b932b0ba37b91116113b30b63ab2911d1160691b815260130161245f916109ee565b61227d60f01b815260020103601f198101825261247c908261091f565b945f612300565b93506123a3612399565b6124a5919250893d8b1161103557611027818361091f565b905f612393565b5f93509061235e565b604051906124c2826108e9565b600a825269109858dad9dc9bdd5b9960b21b6020830152565b604051906124e8826108e9565b600482526341726d7360e01b6020830152565b60405190612508826108e9565b600482526315185a5b60e21b6020830152565b60405190612528826108e9565b60048252634561727360e01b6020830152565b60405190612548826108e9565b6004825263426f647960e01b6020830152565b60405190612568826108e9565b60048252634661636560e01b6020830152565b60405190612588826108e9565b600582526409adeeae8d60db1b6020830152565b604051906125a9826108e9565b600d82526c4d697363656c6c616e656f757360981b6020830152565b604051906125d2826108e9565b60078252662ab735b737bbb760c91b6020830152565b6125f181612257565b80156126b45761260081612257565b600181146126ab5761261181612257565b600281146126a25761262281612257565b600381146126995761263381612257565b600481146126905761264481612257565b600581146126875761265581612257565b6006811461267e5780612669600792612257565b14612676576109eb6125c5565b6109eb61259c565b506109eb61257b565b506109eb61255b565b506109eb61253b565b506109eb61251b565b506109eb6124fb565b506109eb6124db565b506109eb6124b5565b906126c78261097f565b6126d4604051918261091f565b82815280926126e5601f199161097f565b0190602036910137565b8051156122525760200190565b8051600110156122525760210190565b908151811015612252570160200190565b801561279c57805f8082805b6127845750612737816126bd565b935b6127435750505090565b5f198101908111611643578092600a91603083830681018091116116435760f81b6001600160f81b031916841a9061277b908761270c565b53049182612739565b9250612791600a9161221f565b920480849391612729565b506040516127a9816108e9565b60018152600360fc1b602082015290565b8015611643575f190190565b156127cd57565b606460405162461bcd60e51b815260206004820152602060248201527f537472696e67733a20686578206c656e67746820696e73756666696369656e746044820152fd5b6040519061281e82610904565b602a825260403660208401376030612835836126ef565b536078612841836126fc565b536029905b60018211612862576109eb91506001600160a01b0316156127c6565b600f8116906010821015612252576128a7916f181899199a1a9b1b9c1cb0b131b232b360811b901a612894848661270c565b5360041c60016001609c1b0316916127ba565b90612846565b60405190606082018281106001600160401b038211176108e457604052604082527f6768696a6b6c6d6e6f707172737475767778797a303132333435363738392b2f6040837f4142434445464748494a4b4c4d4e4f505152535455565758595a61626364656660208201520152565b805115612a055761292b6128ad565b61294761294261293b845161168f565b6003900490565b611648565b916129596129548461169d565b6126bd565b92835280815182019060208501935b8282106129a9575050506003905106806001146129985760021461298a575090565b603d60f81b5f199091015290565b50613d3d60f01b6001199091015290565b90919360049060038094019384516001603f81818460121c16880101519260f893841b8652828282600c1c1689010151841b8387015282828260061c1689010151841b60028701521686010151901b9082015201939190612968565b506109eb611eb756fea2646970667358221220c56f8d515eb71634ad734ea319e6425e0e5e30ffbeba36894fb6e7666680d3a364736f6c63430008140033290decd9548b62a8d60345a988386fc84ba6bc95484008f6362f93160ef3e563e90b7bceb6e7df5418fb78d8ee546e97c83a08bbccc01a0644d599ccd2a7c2e06101203461038e576001600160401b0390601f610f1238819003918201601f1916830191848311848410176103925780849260809460405283398101031261038e5780519160208201519060408301519060608094015194608052670de0b6b3a764000093838503905f8095128683128116908784139015161761037a578482131561034957711340daa0d5f769dba1915cef59f0815a55068286947d57115e47018c7177eebf7cd370a3356a1b7863008a5ae8028c72b88642849460018060801b031060071b9082821c1160061b1781811c63ffffffff1060051b1781811c61ffff1060041b1781811c60ff1060031b1781811c600f1060021b1781811c60031060011b1781811c60011017908382609f03011b609f1c90605f19017d0267a36c0c95b3975ab3ee5b203a7614a3f75373f047d803ae7b6687f2b302926c0b7a86d7375468fac667a0a527826d01920d8043ca89b5239253284e42816d0a0f742023def783a307a986912e816d13cdffb29d51d99322bdff5f2211816d0df99ac502031bf953eff472fdcc816d0388eaa27412d5aca026815d636e816c465772b2bbbb5f824b15207a308101028c1d01028a1d0102881d0102861d0102841d0102821d019160016c0504a838426634cdd8738f543560611b0319916cb9a025d814b29c212b8b1a07cd1990826d02384773bdf1ac5676facced609019816c8c3f38e95a6b1ff2ab1c3b343619816d02247f7a7b6594320649aa03aba1816d0139601a2efabe717e604cbb4894816c29508e458543d8aa4df2abee78810102891d0102871d0102851d0102831d0102901d0102010502010160ae1d8060a0521215610304578183820193841291129080158216911516176102f0578160c052671bc16d674ec80000918281029281840514901517156102f0575060e052610100908152604051610b6b91826103a7833960805182818160d9015281816102700152818161068801526109ab015260a051826106c3015260c051826103dc015260e051826103fe015251816104e00152f35b634e487b7160e01b81526011600452602490fd5b60405162461bcd60e51b815260206004820152601b60248201527f4e4f4e5f4e454741544956455f44454341595f434f4e5354414e5400000000006044820152606490fd5b60405162461bcd60e51b815260206004820152600960248201526815539111519253915160ba1b6044820152606490fd5b634e487b7160e01b85526011600452602485fd5b5f80fd5b634e487b7160e01b5f52604160045260245ffdfe60406080815260049081361015610014575f80fd5b5f803560e01c80633eac92aa146101835780634dfdd8c8146101605780636d9d33b7146101415780637726dafd1461011f5780637f80adc9146100fc578063dc38679c146100c1578063f1491251146100a05763f466d4ab14610075575f80fd5b3461009d578160031936011261009d57506100966020926024359035610680565b9051908152f35b80fd5b5090346100bd57816003193601126100bd57602090516127108152f35b5080fd5b5090346100bd57816003193601126100bd57602090517f00000000000000000000000000000000000000000000000000000000000000008152f35b5090346100bd57816003193601126100bd576020905167016345785d8a00008152f35b503461009d578160031936011261009d575061009660209260243590356108d5565b503461009d57602036600319011261009d5750610096602092356103da565b5090346100bd57816003193601126100bd5760209051678ac7230489e800008152f35b5082903461009d57602036600319011261009d578135600a8110156101e45750678ac7230489e80000915b61271092808402938404036101d157602083670de0b6b3a7640000865191048152f35b634e487b7160e01b825260119052602490fd5b620f42408111156101ff575067016345785d8a0000916101ae565b603281101561030257603290045b610222670de0b6b3a764000091828102610680565b8061026e57505067016345785d8a00005b678ac7230489e80000908181111561024c5750916101ae565b92905067016345785d8a0000808410610266575b506101ae565b925084610260565b7f0000000000000000000000000000000000000000000000000000000000000000908181106102a857505050678ac7230489e80000610233565b82810290810483036102ef576102c6916102c19161088b565b6108a9565b0467016345785d8a000090810180911115610233575b506011602492634e487b7160e01b835252fd5b634e487b7160e01b845260118552602484fd5b6103e881101561032d5760311981019081116102dc5760c89004600101806001116102dc575b61020d565b6127108082101561035b57506103e71981019081116102dc576105dc9004600601806006116102dc5761020d565b90620186a08110156103a75761270f1981019081116103945704600c0180600c111561032857506011602492634e487b7160e01b835252fd5b634e487b7160e01b835260118452602483fd5b6201869f198101915081116102dc5761c3509004601501806015111561032857506011602492634e487b7160e01b835252fd5b7f0000000000000000000000000000000000000000000000000000000000000000017f000000000000000000000000000000000000000000000000000000000000000005670de0b6b3a763ffff19015f81131561064f57670de0b6b3a76400007d57115e47018c7177eebf7cd370a3356a1b7863008a5ae8028c72b8864284826fffffffffffffffffffffffffffffffff1060071b83811c67ffffffffffffffff1060061b1783811c63ffffffff1060051b1783811c61ffff1060041b1783811c60ff1060031b1783811c600f1060021b1783811c60031060011b1783811c6001101792711340daa0d5f769dba1915cef59f0815a55066060918286609f03011b609f1c7f000000000000000000000000000000000000000000000000000000000000000095605f19017d0267a36c0c95b3975ab3ee5b203a7614a3f75373f047d803ae7b6687f2b302926c0b7a86d7375468fac667a0a527826d01920d8043ca89b5239253284e42816d0a0f742023def783a307a986912e816d13cdffb29d51d99322bdff5f2211816d0df99ac502031bf953eff472fdcc816d0388eaa27412d5aca026815d636e816c465772b2bbbb5f824b15207a308101028c1d01028a1d0102881d0102861d0102841d0102821d0191780a09507084cc699bb0e71ea869ffffffffffffffffffffffff19916cb9a025d814b29c212b8b1a07cd1990826d02384773bdf1ac5676facced609019816c8c3f38e95a6b1ff2ab1c3b343619816d02247f7a7b6594320649aa03aba1816d0139601a2efabe717e604cbb4894816c29508e458543d8aa4df2abee78810102891d0102871d0102851d0102831d0102901d0102010502010160ae1d02055f0390565b60405162461bcd60e51b815260206004820152600960248201526815539111519253915160ba1b6044820152606490fd5b6106e96001927f0000000000000000000000000000000000000000000000000000000000000000926106bf670de0b6b3a76400008096819401026103da565b90037f00000000000000000000000000000000000000000000000000000000000000000205610702565b908181029181830514901517156106fe570590565b5f80fd5b680248ce36a70cb26b3e1981131561088657680755bf798b4a1bf1e5811215610852576503782dace9d990604e1b0574029d9dc38563c32e5c2f6dc192ee70ef65f9978af36bb17217f7d1cf79abc9e3b398916060906001605f1b8482841b0501821d9384029003806c10fe68e7fd37d0007b713f7650810102821d906e0587f503bb6ea29d25fcb7401964506e05180bb14799ab47a8a8cb2a527d57826e02c72388d9f74f51a9331fed693f1419816db1bbb201f443cf962f1a1d3db4a5816d1a521255e34f6a5061b25ef1c9c319816d0277594991cfc85f6e2461837cd9816c240c330e9fb2d9cbaf0fd5aafb198101028d1d01028b1d0102891d0102871d0102851d01936d360d7aeea093263ecc6e0ecb291760621b936d02d16720577bd19bf614176fe9ea810190846d01d3967ed30fc4f89c02bab570811991010102901d01020105029060c3031c90565b60405162461bcd60e51b815260206004820152600c60248201526b4558505f4f564552464c4f5760a01b6044820152606490fd5b505f90565b8115610895570490565b634e487b7160e01b5f52601260045260245ffd5b90678963dd8c2c5e000091808302928304036108c157565b634e487b7160e01b5f52601160045260245ffd5b8115610b2f575f90600a811015610920575050678ac7230489e800005b612710808302928304036108c157670de0b6b3a76400008092048181029181830414901517156108c1570490565b620f424081111561093b57505067016345785d8a00006108f2565b6032811015610a4057603290045b61095e670de0b6b3a764000091828102610680565b806109a95750505067016345785d8a00005b678ac7230489e80000908181111561098857506108f2565b905067016345785d8a00008082106109a1575b506108f2565b90505f61099b565b7f0000000000000000000000000000000000000000000000000000000000000000908181106109e45750505050678ac7230489e80000610970565b8281029081048303610a2c576109fd916102c19161088b565b049067016345785d8a0000918201809211610a185750610970565b634e487b7160e01b81526011600452602490fd5b634e487b7160e01b84526011600452602484fd5b6103e8811015610a7f576031198101908111610a6b5760c8900460010180600111610a6b575b610949565b634e487b7160e01b82526011600452602482fd5b61271080821015610aad57506103e7198101908111610a6b576105dc900460060180600611610a6b57610949565b90620186a0811015610afb5761270f198101908111610ae75704600c0180600c1115610a6657634e487b7160e01b82526011600452602482fd5b634e487b7160e01b83526011600452602483fd5b6201869f19810191508111610a6b5761c35090046015018060151115610a6657634e487b7160e01b82526011600452602482fd5b50505f9056fea2646970667358221220df2c3f4ebdddbeabf3a2998dbc915749c62ade87e7506fe6f2f5c180e73ea9bc64736f6c634300081400334ff133ee8b33a0ce106c0a56a47d6c3f1ef6caee013f948b449a25096a4010a0a26469706673582212203b7c41c0664657c32b86b5ef6cd8f15130ddfb1c94ac5cbad5c2940353cdee6064736f6c63430008140033","linkReferences":{}},"methodIdentifiers":{"aminalsByIndex(uint256)":"7828a458","breedAminals(address,address)":"5419fa40","geneAuction()":"95504402","genesNFT()":"0847335c","getAminalByIndex(uint256)":"ce178239","getAminalVisualsByAddress(address)":"313c9721","initialAminalSpawned()":"00a41372","initialize(address,address,address)":"c0c53b8b","isAminal(address)":"5b63648b","loveVRGDA()":"8b9595ff","owner()":"8da5cb5b","proposals()":"55ef20e6","renounceOwnership()":"715018a6","setup()":"ba0bba40","spawnAminal(address,address,uint256[8])":"7b5cbc8d","spawnInitialAminals((uint256,uint256,uint256,uint256,uint256,uint256,uint256,uint256)[])":"8d549a25","totalAminals()":"9351f7b4","transferOwnership(address)":"f2fde38b"},"id":39}