{
  "abi": [
    {
      "type": "constructor",
      "inputs": [
        {
          "name": "_geneNFT",
          "type": "address",
          "internalType": "address"
        }
      ],
      "stateMutability": "nonpayable"
    },
    {
      "type": "function",
      "name": "MAX_SVG_LENGTH",
      "inputs": [],
      "outputs": [
        {
          "name": "",
          "type": "uint256",
          "internalType": "uint256"
        }
      ],
      "stateMutability": "view"
    },
    {
      "type": "function",
      "name": "MIN_CREATION_FEE",
      "inputs": [],
      "outputs": [
        {
          "name": "",
          "type": "uint256",
          "internalType": "uint256"
        }
      ],
      "stateMutability": "view"
    },
    {
      "type": "function",
      "name": "createGene",
      "inputs": [
        {
          "name": "svg",
          "type": "string",
          "internalType": "string"
        },
        {
          "name": "category",
          "type": "uint8",
          "internalType": "enum IAminalStructs.VisualsCat"
        }
      ],
      "outputs": [
        {
          "name": "geneId",
          "type": "uint256",
          "internalType": "uint256"
        }
      ],
      "stateMutability": "payable"
    },
    {
      "type": "function",
      "name": "geneCategories",
      "inputs": [
        {
          "name": "geneId",
          "type": "uint256",
          "internalType": "uint256"
        }
      ],
      "outputs": [
        {
          "name": "category",
          "type": "uint8",
          "internalType": "enum IAminalStructs.VisualsCat"
        }
      ],
      "stateMutability": "view"
    },
    {
      "type": "function",
      "name": "geneCreators",
      "inputs": [
        {
          "name": "geneId",
          "type": "uint256",
          "internalType": "uint256"
        }
      ],
      "outputs": [
        {
          "name": "creator",
          "type": "address",
          "internalType": "address"
        }
      ],
      "stateMutability": "view"
    },
    {
      "type": "function",
      "name": "geneNFT",
      "inputs": [],
      "outputs": [
        {
          "name": "",
          "type": "address",
          "internalType": "contract Genes"
        }
      ],
      "stateMutability": "view"
    },
    {
      "type": "function",
      "name": "geneRegistry",
      "inputs": [
        {
          "name": "geneId",
          "type": "uint256",
          "internalType": "uint256"
        }
      ],
      "outputs": [
        {
          "name": "isFromFactory",
          "type": "bool",
          "internalType": "bool"
        }
      ],
      "stateMutability": "view"
    },
    {
      "type": "function",
      "name": "geneSVGs",
      "inputs": [
        {
          "name": "geneId",
          "type": "uint256",
          "internalType": "uint256"
        }
      ],
      "outputs": [
        {
          "name": "svg",
          "type": "string",
          "internalType": "string"
        }
      ],
      "stateMutability": "view"
    },
    {
      "type": "function",
      "name": "getGeneInfo",
      "inputs": [
        {
          "name": "geneId",
          "type": "uint256",
          "internalType": "uint256"
        }
      ],
      "outputs": [
        {
          "name": "creator",
          "type": "address",
          "internalType": "address"
        },
        {
          "name": "category",
          "type": "uint8",
          "internalType": "enum IAminalStructs.VisualsCat"
        },
        {
          "name": "svg",
          "type": "string",
          "internalType": "string"
        }
      ],
      "stateMutability": "view"
    },
    {
      "type": "function",
      "name": "getGenesByCategory",
      "inputs": [
        {
          "name": "category",
          "type": "uint8",
          "internalType": "enum IAminalStructs.VisualsCat"
        }
      ],
      "outputs": [
        {
          "name": "geneIds",
          "type": "uint256[]",
          "internalType": "uint256[]"
        }
      ],
      "stateMutability": "view"
    },
    {
      "type": "function",
      "name": "getGenesByCreator",
      "inputs": [
        {
          "name": "creator",
          "type": "address",
          "internalType": "address"
        }
      ],
      "outputs": [
        {
          "name": "geneIds",
          "type": "uint256[]",
          "internalType": "uint256[]"
        }
      ],
      "stateMutability": "view"
    },
    {
      "type": "function",
      "name": "isValidGene",
      "inputs": [
        {
          "name": "geneId",
          "type": "uint256",
          "internalType": "uint256"
        }
      ],
      "outputs": [
        {
          "name": "",
          "type": "bool",
          "internalType": "bool"
        }
      ],
      "stateMutability": "view"
    },
    {
      "type": "function",
      "name": "owner",
      "inputs": [],
      "outputs": [
        {
          "name": "",
          "type": "address",
          "internalType": "address"
        }
      ],
      "stateMutability": "view"
    },
    {
      "type": "function",
      "name": "renounceOwnership",
      "inputs": [],
      "outputs": [],
      "stateMutability": "nonpayable"
    },
    {
      "type": "function",
      "name": "totalGenesCreated",
      "inputs": [],
      "outputs": [
        {
          "name": "",
          "type": "uint256",
          "internalType": "uint256"
        }
      ],
      "stateMutability": "view"
    },
    {
      "type": "function",
      "name": "transferOwnership",
      "inputs": [
        {
          "name": "newOwner",
          "type": "address",
          "internalType": "address"
        }
      ],
      "outputs": [],
      "stateMutability": "nonpayable"
    },
    {
      "type": "function",
      "name": "withdrawFees",
      "inputs": [],
      "outputs": [],
      "stateMutability": "nonpayable"
    },
    {
      "type": "event",
      "name": "GeneCreated",
      "inputs": [
        {
          "name": "geneId",
          "type": "uint256",
          "indexed": true,
          "internalType": "uint256"
        },
        {
          "name": "creator",
          "type": "address",
          "indexed": true,
          "internalType": "address"
        },
        {
          "name": "category",
          "type": "uint8",
          "indexed": true,
          "internalType": "enum IAminalStructs.VisualsCat"
        },
        {
          "name": "svg",
          "type": "string",
          "indexed": false,
          "internalType": "string"
        }
      ],
      "anonymous": false
    },
    {
      "type": "event",
      "name": "OwnershipTransferred",
      "inputs": [
        {
          "name": "previousOwner",
          "type": "address",
          "indexed": true,
          "internalType": "address"
        },
        {
          "name": "newOwner",
          "type": "address",
          "indexed": true,
          "internalType": "address"
        }
      ],
      "anonymous": false
    },
    {
      "type": "error",
      "name": "EmptySVG",
      "inputs": []
    },
    {
      "type": "error",
      "name": "InsufficientFee",
      "inputs": []
    },
    {
      "type": "error",
      "name": "InvalidSVG",
      "inputs": []
    },
    {
      "type": "error",
      "name": "SVGTooLarge",
      "inputs": []
    }
  ],
  "bytecode": {
    "object": "0x60a0346100ad57601f610f1138819003918201601f19168301916001600160401b038311848410176100b1578084926020946040528339810103126100ad57516001600160a01b0390818116908190036100ad575f543360018060a01b03198216175f55604051923391167f8be0079c531659141344cd1fd0a4f28419497f9722a3daafe3b4186f6b6457e05f80a3608052610e4b90816100c6823960805181818161035001526108350152f35b5f80fd5b634e487b7160e01b5f52604160045260245ffdfe60406080815260049081361015610014575f80fd5b5f91823560e01c90816303f0413014610a645781630b08ec19146106e15781630e2fa44c14610a31578163131c6b3514610a14578163252ccf57146108fc578163476343ee146108645781635231f627146108205781636a0c97fe146107fe578163715018a6146107a157816379b68ad3146107365781638da5cb5b1461070e578163940284b8146106e15781639dc35fc614610244578163cc66ddc814610204578163e5cb3725146101d2578163f2fde38b146100fc575063ff1d3b25146100db575f80fd5b346100f857816003193601126100f8576020906005549051908152f35b5080fd5b919050346101ce5760203660031901126101ce576001600160a01b038235818116939192908490036101ca57610130610cdd565b83156101785750505f54826bffffffffffffffffffffffff60a01b8216175f55167f8be0079c531659141344cd1fd0a4f28419497f9722a3daafe3b4186f6b6457e05f80a380f35b906020608492519162461bcd60e51b8352820152602660248201527f4f776e61626c653a206e6577206f776e657220697320746865207a65726f206160448201526564647265737360d01b6064820152fd5b8480fd5b8280fd5b9050346101ce5760203660031901126101ce5760ff82602094610202933581526003865220541691518092610b6f565bf35b9050346101ce5760203660031901126101ce5781610240938261022d9335825260205220610c3c565b9051918291602083526020830190610b90565b0390f35b9050816003193601126101ce5780359167ffffffffffffffff918284116101ca57366023850112156101ca57838101358381116106dd5760249485810190368784830101116106d95786359360088510156106d55766038d7ea4c6800034106106c85783156106ba5761c35084116106ad576102bf84610de8565b976102cc8751998a610c06565b84895260209985858c8c0137808b878c0101528099815b81515f19810190811161069a5781101561068a576001600160f81b0319600f60fa1b816103108486610e04565b5116149081610651575b5061032d5761032890610d54565b6102e3565b50509091929394959697985060015b1561064157875163e00dd16160e01b8152987f00000000000000000000000000000000000000000000000000000000000000006001600160a01b03168b8b8681845afa9a8b1561060857839b610612575b50803b156101ce579082606089938683898f8f906103cd8f6103d892519b8c998a988997636a4b888360e01b895233908901528701526064860191610d34565b916044840190610b6f565b03925af1801561060857918b97969593918995936105d7575b5050868152600192838d528c60038c84209160ff19928784825416179055600281528d8520336bffffffffffffffffffffffff60a01b825416179055528b83209081541660ff8c161790558782528c528981209461044f8654610bce565b601f811161057a575b5081601f86116001146104e257928593926104cc9795927f88106ea9f260e9b698c3ddfc183e10c59b5af6b5fb2766d47ce5b6107584c6dc999794956104d5575b5050501b905f198860031b1c19161790555b6104b6600554610d54565b60055586519182918a835233968b840191610d34565b0390a451908152f35b01013592505f8080610499565b8681528d812094959193929190601f198216908f5b82821061055d575050916104cc979593917f88106ea9f260e9b698c3ddfc183e10c59b5af6b5fb2766d47ce5b6107584c6dc9997959310610542575b5050505086811b0190556104ab565b5f1960f88c60031b161c19920101351690555f808080610533565b84870186013588558f9b5096880196938401938c9350018f6104f7565b918697985080949691939550528b8320601f890160051c8101918d8a106105cd575b9189959391601f8e9a999896940160051c01905b8181106105bd5750610458565b8381558d99508a965085016105b0565b909150819061059c565b91939596975080929450116105f75791899594939187938a525f806103f1565b50634e487b7160e01b815260418352fd5b8a513d85823e3d90fd5b909a508b81813d831161063a575b61062a8183610c06565b810103126101ce5751995f61038d565b503d610620565b87516330408e4560e21b81528390fd5b60018301915081831161067857602f60f81b9161066e9085610e04565b511614155f61031a565b634e487b7160e01b8552601187528585fd5b505090919293949596979861033c565b5050634e487b7160e01b82525060118352fd5b8551626f011960e11b8152fd5b855163204e1a0760e21b8152fd5b855162976f7560e21b8152fd5b8880fd5b8780fd5b8580fd5b9050346101ce5760203660031901126101ce578160209360ff923581526001855220541690519015158152f35b5050346100f857816003193601126100f857905490516001600160a01b039091168152602090f35b8383346100f85760203660031901126100f85761024090833583526002602052606061077f8260018060a01b03818720541695600360205260ff82822054169760205220610c3c565b91610794815196879687526020870190610b6f565b8401526060830190610b90565b83346107fb57806003193601126107fb576107ba610cdd565b80546001600160a01b03198116825581906001600160a01b03167f8be0079c531659141344cd1fd0a4f28419497f9722a3daafe3b4186f6b6457e08280a380f35b80fd5b5050346100f857816003193601126100f8576020905166038d7ea4c680008152f35b5050346100f857816003193601126100f857517f00000000000000000000000000000000000000000000000000000000000000006001600160a01b03168152602090f35b919050346101ce57826003193601126101ce5761087f610cdd565b828080804760018060a01b038254165af13d156108f7573d6108a081610de8565b906108ad84519283610c06565b81528460203d92013e5b156108c0578280f35b906020606492519162461bcd60e51b8352820152601160248201527015da5d1a191c985dd85b0819985a5b1959607a1b6044820152fd5b6108b7565b8383346100f857602091826003193601126107fb5760089284358481101580610a10576005549380805b8681106109b8575061093790610d8e565b968194825b878110610950578851806102408c82610b35565b808452600382528884205460ff16856109a557838110156109a557868b9114610983575b5061097e90610d54565b61093c565b878261099661097e949a61099c94610dc0565b52610d54565b96905089610974565b634e487b7160e01b855260218c52602485fd5b808352600386528783205460ff16846109fd57898110156109fd5785146109e8575b6109e390610d54565b610926565b906109f56109e391610d54565b9190506109da565b634e487b7160e01b845260218b52602484fd5b8380fd5b5050346100f857816003193601126100f8576020905161c3508152f35b9050346101ce5760203660031901126101ce5735825260026020908152918190205490516001600160a01b039091168152f35b839150346100f857602090816003193601126101ce576001600160a01b0391903582811690819003610a10576005549284805b858110610afe5750610aa890610d8e565b948093815b868110610ac1578851806102408a82610b35565b8083526002825284848a8520541614610ae3575b610ade90610d54565b610aad565b94610af68187610996610ade948c610dc0565b959050610ad5565b808752600285528383898920541614610b20575b610b1b90610d54565b610a97565b90610b2d610b1b91610d54565b919050610b12565b602090816040818301928281528551809452019301915f5b828110610b5b575050505090565b835185529381019392810192600101610b4d565b906008821015610b7c5752565b634e487b7160e01b5f52602160045260245ffd5b91908251928382525f5b848110610bba575050825f602080949584010152601f8019910116010190565b602081830181015184830182015201610b9a565b90600182811c92168015610bfc575b6020831014610be857565b634e487b7160e01b5f52602260045260245ffd5b91607f1691610bdd565b90601f8019910116810190811067ffffffffffffffff821117610c2857604052565b634e487b7160e01b5f52604160045260245ffd5b9060405191825f825492610c4f84610bce565b9081845260019485811690815f14610cba5750600114610c7a575b5050610c7892500383610c06565b565b909391505f52602090815f20935f915b818310610ca2575050610c7893508201015f80610c6a565b85548884018501529485019487945091830191610c8a565b915050610c7894506020925060ff191682840152151560051b8201015f80610c6a565b5f546001600160a01b03163303610cf057565b606460405162461bcd60e51b815260206004820152602060248201527f4f776e61626c653a2063616c6c6572206973206e6f7420746865206f776e65726044820152fd5b908060209392818452848401375f828201840152601f01601f1916010190565b5f198114610d625760010190565b634e487b7160e01b5f52601160045260245ffd5b67ffffffffffffffff8111610c285760051b60200190565b90610d9882610d76565b610da56040519182610c06565b8281528092610db6601f1991610d76565b0190602036910137565b8051821015610dd45760209160051b010190565b634e487b7160e01b5f52603260045260245ffd5b67ffffffffffffffff8111610c2857601f01601f191660200190565b908151811015610dd457016020019056fea2646970667358221220f438e5d1b80f4e890c3a76ade9f4a3c86cf17ef52467f7fc877663cbf5d5c31064736f6c63430008140033",
    "linkReferences": {}
  },
  "methodIdentifiers": {
    "MAX_SVG_LENGTH()": "131c6b35",
    "MIN_CREATION_FEE()": "6a0c97fe",
    "createGene(string,uint8)": "9dc35fc6",
    "geneCategories(uint256)": "e5cb3725",
    "geneCreators(uint256)": "0e2fa44c",
    "geneNFT()": "5231f627",
    "geneRegistry(uint256)": "0b08ec19",
    "geneSVGs(uint256)": "cc66ddc8",
    "getGeneInfo(uint256)": "79b68ad3",
    "getGenesByCategory(uint8)": "252ccf57",
    "getGenesByCreator(address)": "03f04130",
    "isValidGene(uint256)": "940284b8",
    "owner()": "8da5cb5b",
    "renounceOwnership()": "715018a6",
    "totalGenesCreated()": "ff1d3b25",
    "transferOwnership(address)": "f2fde38b",
    "withdrawFees()": "476343ee"
  },
  "id": 54
}