{
  "abi": [
    {
      "type": "constructor",
      "inputs": [
        {
          "name": "_Genes",
          "type": "address",
          "internalType": "address"
        },
        {
          "name": "_geneFactory",
          "type": "address",
          "internalType": "address"
        }
      ],
      "stateMutability": "nonpayable"
    },
    {
      "type": "function",
      "name": "ENERGY_TRANSFER_PERCENTAGE",
      "inputs": [],
      "outputs": [
        {
          "name": "",
          "type": "uint256",
          "internalType": "uint256"
        }
      ],
      "stateMutability": "view"
    },
    {
      "type": "function",
      "name": "VOTING_DURATION",
      "inputs": [],
      "outputs": [
        {
          "name": "",
          "type": "uint256",
          "internalType": "uint256"
        }
      ],
      "stateMutability": "view"
    },
    {
      "type": "function",
      "name": "aminalFactory",
      "inputs": [],
      "outputs": [
        {
          "name": "",
          "type": "address",
          "internalType": "contract IAminalFactory"
        }
      ],
      "stateMutability": "view"
    },
    {
      "type": "function",
      "name": "aminalsContract",
      "inputs": [],
      "outputs": [
        {
          "name": "",
          "type": "address",
          "internalType": "address"
        }
      ],
      "stateMutability": "view"
    },
    {
      "type": "function",
      "name": "auctionCounter",
      "inputs": [],
      "outputs": [
        {
          "name": "",
          "type": "uint256",
          "internalType": "uint256"
        }
      ],
      "stateMutability": "view"
    },
    {
      "type": "function",
      "name": "auctions",
      "inputs": [
        {
          "name": "",
          "type": "uint256",
          "internalType": "uint256"
        }
      ],
      "outputs": [
        {
          "name": "aminalOne",
          "type": "uint256",
          "internalType": "uint256"
        },
        {
          "name": "aminalTwo",
          "type": "uint256",
          "internalType": "uint256"
        },
        {
          "name": "totalLove",
          "type": "uint256",
          "internalType": "uint256"
        },
        {
          "name": "startTime",
          "type": "uint256",
          "internalType": "uint256"
        },
        {
          "name": "endTime",
          "type": "uint256",
          "internalType": "uint256"
        },
        {
          "name": "settled",
          "type": "bool",
          "internalType": "bool"
        },
        {
          "name": "childAminalId",
          "type": "uint256",
          "internalType": "uint256"
        }
      ],
      "stateMutability": "view"
    },
    {
      "type": "function",
      "name": "bulkVoteOnGenes",
      "inputs": [
        {
          "name": "auctionId",
          "type": "uint256",
          "internalType": "uint256"
        },
        {
          "name": "geneIds",
          "type": "uint256[8]",
          "internalType": "uint256[8]"
        },
        {
          "name": "voteWeights",
          "type": "uint256[8]",
          "internalType": "uint256[8]"
        }
      ],
      "outputs": [],
      "stateMutability": "nonpayable"
    },
    {
      "type": "function",
      "name": "createAuction",
      "inputs": [
        {
          "name": "aminalOne",
          "type": "uint256",
          "internalType": "uint256"
        },
        {
          "name": "aminalTwo",
          "type": "uint256",
          "internalType": "uint256"
        },
        {
          "name": "totalLove",
          "type": "uint256",
          "internalType": "uint256"
        }
      ],
      "outputs": [
        {
          "name": "auctionId",
          "type": "uint256",
          "internalType": "uint256"
        }
      ],
      "stateMutability": "nonpayable"
    },
    {
      "type": "function",
      "name": "emergencyStop",
      "inputs": [],
      "outputs": [],
      "stateMutability": "nonpayable"
    },
    {
      "type": "function",
      "name": "geneFactory",
      "inputs": [],
      "outputs": [
        {
          "name": "",
          "type": "address",
          "internalType": "contract GeneRegistry"
        }
      ],
      "stateMutability": "view"
    },
    {
      "type": "function",
      "name": "Genes",
      "inputs": [],
      "outputs": [
        {
          "name": "",
          "type": "address",
          "internalType": "contract Genes"
        }
      ],
      "stateMutability": "view"
    },
    {
      "type": "function",
      "name": "getAuctionInfo",
      "inputs": [
        {
          "name": "auctionId",
          "type": "uint256",
          "internalType": "uint256"
        }
      ],
      "outputs": [
        {
          "name": "aminalOne",
          "type": "uint256",
          "internalType": "uint256"
        },
        {
          "name": "aminalTwo",
          "type": "uint256",
          "internalType": "uint256"
        },
        {
          "name": "totalLove",
          "type": "uint256",
          "internalType": "uint256"
        },
        {
          "name": "startTime",
          "type": "uint256",
          "internalType": "uint256"
        },
        {
          "name": "endTime",
          "type": "uint256",
          "internalType": "uint256"
        },
        {
          "name": "settled",
          "type": "bool",
          "internalType": "bool"
        },
        {
          "name": "childAminalId",
          "type": "uint256",
          "internalType": "uint256"
        }
      ],
      "stateMutability": "view"
    },
    {
      "type": "function",
      "name": "getCategoryVoting",
      "inputs": [
        {
          "name": "auctionId",
          "type": "uint256",
          "internalType": "uint256"
        },
        {
          "name": "category",
          "type": "uint8",
          "internalType": "enum IAminalStructs.VisualsCat"
        }
      ],
      "outputs": [
        {
          "name": "",
          "type": "tuple",
          "internalType": "struct GeneAuction.CategoryVoteInfo",
          "components": [
            {
              "name": "highestVotes",
              "type": "uint256",
              "internalType": "uint256"
            },
            {
              "name": "winningGeneId",
              "type": "uint256",
              "internalType": "uint256"
            },
            {
              "name": "proposedGenes",
              "type": "uint256[]",
              "internalType": "uint256[]"
            },
            {
              "name": "tiedGenes",
              "type": "uint256[]",
              "internalType": "uint256[]"
            }
          ]
        }
      ],
      "stateMutability": "view"
    },
    {
      "type": "function",
      "name": "getGeneRemovalVotes",
      "inputs": [
        {
          "name": "auctionId",
          "type": "uint256",
          "internalType": "uint256"
        },
        {
          "name": "category",
          "type": "uint8",
          "internalType": "enum IAminalStructs.VisualsCat"
        },
        {
          "name": "geneId",
          "type": "uint256",
          "internalType": "uint256"
        }
      ],
      "outputs": [
        {
          "name": "removalVotes",
          "type": "uint256",
          "internalType": "uint256"
        }
      ],
      "stateMutability": "view"
    },
    {
      "type": "function",
      "name": "getGeneVotes",
      "inputs": [
        {
          "name": "auctionId",
          "type": "uint256",
          "internalType": "uint256"
        },
        {
          "name": "category",
          "type": "uint8",
          "internalType": "enum IAminalStructs.VisualsCat"
        },
        {
          "name": "geneId",
          "type": "uint256",
          "internalType": "uint256"
        }
      ],
      "outputs": [
        {
          "name": "totalVotes",
          "type": "uint256",
          "internalType": "uint256"
        }
      ],
      "stateMutability": "view"
    },
    {
      "type": "function",
      "name": "getParentTraits",
      "inputs": [
        {
          "name": "auctionId",
          "type": "uint256",
          "internalType": "uint256"
        }
      ],
      "outputs": [
        {
          "name": "parentOneTraits",
          "type": "uint256[8]",
          "internalType": "uint256[8]"
        },
        {
          "name": "parentTwoTraits",
          "type": "uint256[8]",
          "internalType": "uint256[8]"
        }
      ],
      "stateMutability": "view"
    },
    {
      "type": "function",
      "name": "getUserVote",
      "inputs": [
        {
          "name": "auctionId",
          "type": "uint256",
          "internalType": "uint256"
        },
        {
          "name": "category",
          "type": "uint8",
          "internalType": "enum IAminalStructs.VisualsCat"
        },
        {
          "name": "geneId",
          "type": "uint256",
          "internalType": "uint256"
        },
        {
          "name": "user",
          "type": "address",
          "internalType": "address"
        }
      ],
      "outputs": [
        {
          "name": "voteWeight",
          "type": "uint256",
          "internalType": "uint256"
        }
      ],
      "stateMutability": "view"
    },
    {
      "type": "function",
      "name": "getUserVotingPower",
      "inputs": [
        {
          "name": "auctionId",
          "type": "uint256",
          "internalType": "uint256"
        },
        {
          "name": "user",
          "type": "address",
          "internalType": "address"
        }
      ],
      "outputs": [
        {
          "name": "",
          "type": "uint256",
          "internalType": "uint256"
        }
      ],
      "stateMutability": "view"
    },
    {
      "type": "function",
      "name": "isVotingActive",
      "inputs": [
        {
          "name": "auctionId",
          "type": "uint256",
          "internalType": "uint256"
        }
      ],
      "outputs": [
        {
          "name": "",
          "type": "bool",
          "internalType": "bool"
        }
      ],
      "stateMutability": "view"
    },
    {
      "type": "function",
      "name": "owner",
      "inputs": [],
      "outputs": [
        {
          "name": "",
          "type": "address",
          "internalType": "address"
        }
      ],
      "stateMutability": "view"
    },
    {
      "type": "function",
      "name": "proposeGene",
      "inputs": [
        {
          "name": "auctionId",
          "type": "uint256",
          "internalType": "uint256"
        },
        {
          "name": "category",
          "type": "uint8",
          "internalType": "enum IAminalStructs.VisualsCat"
        },
        {
          "name": "geneId",
          "type": "uint256",
          "internalType": "uint256"
        }
      ],
      "outputs": [],
      "stateMutability": "nonpayable"
    },
    {
      "type": "function",
      "name": "renounceOwnership",
      "inputs": [],
      "outputs": [],
      "stateMutability": "nonpayable"
    },
    {
      "type": "function",
      "name": "settleAuction",
      "inputs": [
        {
          "name": "auctionId",
          "type": "uint256",
          "internalType": "uint256"
        }
      ],
      "outputs": [],
      "stateMutability": "nonpayable"
    },
    {
      "type": "function",
      "name": "setup",
      "inputs": [
        {
          "name": "_aminalsContract",
          "type": "address",
          "internalType": "address"
        },
        {
          "name": "_aminalFactory",
          "type": "address",
          "internalType": "address"
        }
      ],
      "outputs": [],
      "stateMutability": "nonpayable"
    },
    {
      "type": "function",
      "name": "transferOwnership",
      "inputs": [
        {
          "name": "newOwner",
          "type": "address",
          "internalType": "address"
        }
      ],
      "outputs": [],
      "stateMutability": "nonpayable"
    },
    {
      "type": "function",
      "name": "voteOnGene",
      "inputs": [
        {
          "name": "auctionId",
          "type": "uint256",
          "internalType": "uint256"
        },
        {
          "name": "category",
          "type": "uint8",
          "internalType": "enum IAminalStructs.VisualsCat"
        },
        {
          "name": "geneId",
          "type": "uint256",
          "internalType": "uint256"
        },
        {
          "name": "voteWeight",
          "type": "uint256",
          "internalType": "uint256"
        }
      ],
      "outputs": [],
      "stateMutability": "nonpayable"
    },
    {
      "type": "function",
      "name": "voteToRemoveGene",
      "inputs": [
        {
          "name": "auctionId",
          "type": "uint256",
          "internalType": "uint256"
        },
        {
          "name": "category",
          "type": "uint8",
          "internalType": "enum IAminalStructs.VisualsCat"
        },
        {
          "name": "geneId",
          "type": "uint256",
          "internalType": "uint256"
        },
        {
          "name": "voteWeight",
          "type": "uint256",
          "internalType": "uint256"
        }
      ],
      "outputs": [],
      "stateMutability": "nonpayable"
    },
    {
      "type": "event",
      "name": "BulkVoteCast",
      "inputs": [
        {
          "name": "auctionId",
          "type": "uint256",
          "indexed": true,
          "internalType": "uint256"
        },
        {
          "name": "voter",
          "type": "address",
          "indexed": true,
          "internalType": "address"
        },
        {
          "name": "geneIds",
          "type": "uint256[8]",
          "indexed": false,
          "internalType": "uint256[8]"
        },
        {
          "name": "totalVoteWeight",
          "type": "uint256",
          "indexed": false,
          "internalType": "uint256"
        }
      ],
      "anonymous": false
    },
    {
      "type": "event",
      "name": "GeneProposed",
      "inputs": [
        {
          "name": "auctionId",
          "type": "uint256",
          "indexed": true,
          "internalType": "uint256"
        },
        {
          "name": "category",
          "type": "uint8",
          "indexed": true,
          "internalType": "enum IAminalStructs.VisualsCat"
        },
        {
          "name": "geneId",
          "type": "uint256",
          "indexed": true,
          "internalType": "uint256"
        },
        {
          "name": "proposer",
          "type": "address",
          "indexed": false,
          "internalType": "address"
        }
      ],
      "anonymous": false
    },
    {
      "type": "event",
      "name": "GeneRemovalVote",
      "inputs": [
        {
          "name": "auctionId",
          "type": "uint256",
          "indexed": true,
          "internalType": "uint256"
        },
        {
          "name": "category",
          "type": "uint8",
          "indexed": true,
          "internalType": "enum IAminalStructs.VisualsCat"
        },
        {
          "name": "geneId",
          "type": "uint256",
          "indexed": true,
          "internalType": "uint256"
        },
        {
          "name": "voter",
          "type": "address",
          "indexed": false,
          "internalType": "address"
        },
        {
          "name": "voteWeight",
          "type": "uint256",
          "indexed": false,
          "internalType": "uint256"
        }
      ],
      "anonymous": false
    },
    {
      "type": "event",
      "name": "GeneRemoved",
      "inputs": [
        {
          "name": "auctionId",
          "type": "uint256",
          "indexed": true,
          "internalType": "uint256"
        },
        {
          "name": "category",
          "type": "uint8",
          "indexed": true,
          "internalType": "enum IAminalStructs.VisualsCat"
        },
        {
          "name": "geneId",
          "type": "uint256",
          "indexed": true,
          "internalType": "uint256"
        }
      ],
      "anonymous": false
    },
    {
      "type": "event",
      "name": "GeneVoteCast",
      "inputs": [
        {
          "name": "auctionId",
          "type": "uint256",
          "indexed": true,
          "internalType": "uint256"
        },
        {
          "name": "category",
          "type": "uint8",
          "indexed": true,
          "internalType": "enum IAminalStructs.VisualsCat"
        },
        {
          "name": "geneId",
          "type": "uint256",
          "indexed": true,
          "internalType": "uint256"
        },
        {
          "name": "voter",
          "type": "address",
          "indexed": false,
          "internalType": "address"
        },
        {
          "name": "voteWeight",
          "type": "uint256",
          "indexed": false,
          "internalType": "uint256"
        }
      ],
      "anonymous": false
    },
    {
      "type": "event",
      "name": "Initialized",
      "inputs": [
        {
          "name": "version",
          "type": "uint8",
          "indexed": false,
          "internalType": "uint8"
        }
      ],
      "anonymous": false
    },
    {
      "type": "event",
      "name": "OwnershipTransferred",
      "inputs": [
        {
          "name": "previousOwner",
          "type": "address",
          "indexed": true,
          "internalType": "address"
        },
        {
          "name": "newOwner",
          "type": "address",
          "indexed": true,
          "internalType": "address"
        }
      ],
      "anonymous": false
    },
    {
      "type": "event",
      "name": "VotingCreated",
      "inputs": [
        {
          "name": "auctionId",
          "type": "uint256",
          "indexed": true,
          "internalType": "uint256"
        },
        {
          "name": "aminalOne",
          "type": "uint256",
          "indexed": true,
          "internalType": "uint256"
        },
        {
          "name": "aminalTwo",
          "type": "uint256",
          "indexed": true,
          "internalType": "uint256"
        },
        {
          "name": "totalLove",
          "type": "uint256",
          "indexed": false,
          "internalType": "uint256"
        },
        {
          "name": "startTime",
          "type": "uint256",
          "indexed": false,
          "internalType": "uint256"
        },
        {
          "name": "endTime",
          "type": "uint256",
          "indexed": false,
          "internalType": "uint256"
        }
      ],
      "anonymous": false
    },
    {
      "type": "event",
      "name": "VotingSettled",
      "inputs": [
        {
          "name": "auctionId",
          "type": "uint256",
          "indexed": true,
          "internalType": "uint256"
        },
        {
          "name": "childAminalId",
          "type": "uint256",
          "indexed": true,
          "internalType": "uint256"
        },
        {
          "name": "winningGeneIds",
          "type": "uint256[8]",
          "indexed": false,
          "internalType": "uint256[8]"
        },
        {
          "name": "totalEnergyTransferred",
          "type": "uint256",
          "indexed": false,
          "internalType": "uint256"
        }
      ],
      "anonymous": false
    },
    {
      "type": "error",
      "name": "EnergyTransferFailed",
      "inputs": []
    },
    {
      "type": "error",
      "name": "GeneAlreadyRemoved",
      "inputs": []
    },
    {
      "type": "error",
      "name": "InsufficientLove",
      "inputs": []
    },
    {
      "type": "error",
      "name": "InvalidCategory",
      "inputs": []
    },
    {
      "type": "error",
      "name": "InvalidGene",
      "inputs": []
    },
    {
      "type": "error",
      "name": "OnlyAminals",
      "inputs": []
    },
    {
      "type": "error",
      "name": "VotingAlreadySettled",
      "inputs": []
    },
    {
      "type": "error",
      "name": "VotingNotActive",
      "inputs": []
    },
    {
      "type": "error",
      "name": "VotingNotEnded",
      "inputs": []
    }
  ],
  "bytecode": {
    "object": "0x608034620000ed57601f620025b138819003918201601f19168301916001600160401b03831184841017620000f1578084926040948552833981010312620000ed576200005a6020620000528362000105565b920162000105565b5f805462010000600160b01b0319811633601081811b62010000600160b01b031692909217845560405195946001600160a01b0394909391929190911c8416907f8be0079c531659141344cd1fd0a4f28419497f9722a3daafe3b4186f6b6457e09080a3600180558160018060a01b031993168360025416176002551690600354161760035561249690816200011b8239f35b5f80fd5b634e487b7160e01b5f52604160045260245ffd5b51906001600160a01b0382168203620000ed5756fe6080806040526004361015610012575f80fd5b5f3560e01c9081630847335c14611d5d575080632442769d14611a8e5780632d34ba79146119385780632e9936111461108f578063571a26a01461100f57806362d05bd914610ffc57806363a599a414610fe25780636c68134814610fa9578063715018a614610f4d578063741a955f14610f25578063772744b514610ecd578063855db2b714610ea55780638da5cb5b14610e7a5780639f85022514610da2578063a438d20814610d85578063a7e7664414610d68578063a8d2c3e814610cdf578063b473522c14610cb7578063b4b01e8a14610c37578063bd9d71a6146109da578063c853dfe4146109bf578063cda4beef146106d2578063dfe2125d1461068b578063eebe79761461047e578063f2fde38b146103a6578063f3c7d864146101db5763fc3fc4ed14610145575f80fd5b346101d75760203660031901126101d757600435610167600754821115611fcf565b5f52600660205260405f2080546101d36001830154926002810154906003810154600482015490600660ff600585015416930154936040519788978893909796959260c0959260e086019986526020860152604085015260608401526080830152151560a08201520152565b0390f35b5f80fd5b346101d7576101e936611d80565b6101fa600794929454831115611fcf565b815f5260206006815260405f2060048101544210156103945760ff60058201541661038257600885101561036e57610232338261219d565b831161035c57846017610245920161202b565b915f8087600586018054925b838110610327575b5050505015610315576102db86846102f39460037fb1dd5a3243ac16462fb1a4b2ee162e20fcf00bd2c06efdb82fa571af510b28529701335f5280825260405f20845f52825260405f2054806102f8575b50335f52815260405f20835f5281528460405f205560028201905260405f206102d4858254611eb8565b90556120a0565b60408051338152602081019290925290918291820190565b0390a4005b60028401835261030d60405f20918254612080565b90558b6102aa565b6040516361075f6560e01b8152600490fd5b826103328284612041565b90549060031b1c1461034c5761034790611eaa565b610251565b5050505050600187878180610259565b6040516379e050d760e01b8152600490fd5b634e487b7160e01b5f52602160045260245ffd5b6040516327829c6160e11b8152600490fd5b604051639b8cc47560e01b8152600490fd5b346101d75760203660031901126101d7576103bf611da7565b6103c7611e50565b6001600160a01b0381811691821561042a575f805462010000600160b01b03198116601093841b62010000600160b01b031617825590911c91909116907f8be0079c531659141344cd1fd0a4f28419497f9722a3daafe3b4186f6b6457e09080a3005b60405162461bcd60e51b815260206004820152602660248201527f4f776e61626c653a206e6577206f776e657220697320746865207a65726f206160448201526564647265737360d01b6064820152608490fd5b346101d7576102203660031901126101d75760043536610124116101d75736610224116101d7576104b3600754821115611fcf565b805f526020906006825260405f209160048301544210156103945760059260ff8482015416610382576104e6338261219d565b935f945f5b600881106106685750851161035c575f5b6008811061053d57604051858761010080602485378301527f03e56bec25c7057d341aab47cf9aebd8759f9f27ef2cc643c747d3c3d265e9186101203393a3005b6105468161208d565b3561055a575b61055590611eaa565b6104fc565b80821b602401359061056b8161208d565b359161057a826017870161202b565b925f808686018054915b828110610635575b5050501561031557877fb1dd5a3243ac16462fb1a4b2ee162e20fcf00bd2c06efdb82fa571af510b285261060e85936102db86898d60036105559c0190335f5281815260405f20845f52815260405f205480610618575b50335f52528d60405f2090835f52528360405f20558d60028201905260405f206102d4858254611eb8565b0390a4905061054c565b60028401825261062d60405f20918254612080565b90555f6105e3565b856106408284612041565b90549060031b1c1461065a5761065590611eaa565b610584565b5050505060018a808061058c565b95610680610686916106798961208d565b3590611eb8565b96611eaa565b6104eb565b346101d75760403660031901126101d75760206106ca6004356106ac611dbd565b906106bb600754821115611fcf565b5f526006835260405f2061219d565b604051908152f35b346101d75760603660031901126101d75760048054604435916001600160a01b0391602435913590831633036109ad5761070d600754611eaa565b9283600755835f526020946006865260405f2083815584600182015581600282015542600382015562093a80420191824211610999578260048301558660068301558360055416926040519263ce17823960e01b938481528760048201528a81602481895afa9485156108fc578b915f96610961575b5060246040518098819382528c60048301525afa80156108fc5786955f91610929575b50604051906306ffad0b60e31b95868352826004816101009a8b94165afa9586156108fc5787925f97610907575b50600490604051998a9384928352165afa9384156108fc5760e08b6060966016938d9a7f04ce0bf6ac3393043358dbd9062069d086b7839f477bf8cc92a3fbb1cf9cee1c9a5f936108cb575b50508391928151600788015581015160088701556040810151600987015588810151600a8701556080810151600b87015560a0810151600c87015560c0810151600d8701550151600e8501558051600f8501558c8101516010850155604081015160118501558681015160128501556080810151601385015560a0810151601485015560c08101516015850155015191015560405191825242898301526040820152a4604051908152f35b85935090816108ee92903d106108f5575b6108e68183611f12565b810190611f48565b915f610820565b503d6108dc565b6040513d5f823e3d90fd5b600491975061092290843d86116108f5576108e68183611f12565b96906107d4565b8096508b8092503d831161095a575b6109428183611f12565b810103126101d7576109548695611f34565b8b6107a6565b503d610938565b8281939297503d8311610992575b6109798183611f12565b810103126101d75761098b8b91611f34565b948c610783565b503d61096f565b634e487b7160e01b5f52601160045260245ffd5b6040516386d1294360e01b8152600490fd5b346101d7575f3660031901126101d7576020604051600a8152f35b346101d7576109e836611dd3565b916109f7600754821115611fcf565b805f5260206006815260405f209060048201544210156103945760ff60058301541661038257600884101561036e5760039160018060a01b03835416604051631280509760e31b81528760048201528381602481855afa9081156108fc575f91610c0a575b5015610315575f602491604051928380926379b68ad360e01b82528b60048301525afa9081156108fc575f91610b44575b50600881101561036e578503610b3257846017610aaa920161202b565b5f908660055f9201948554925b838110610afe575b5050505015610aca57005b610af5857fc69740c9b657b0f4df7c898e78dfcb72c993d5451aca46eaee685a868c3ded4193612056565b604051338152a4005b82610b098289612041565b905490841b1c14610b2257610b1d90611eaa565b610ab7565b5050505050600186868180610abf565b604051636b3ac97b60e11b8152600490fd5b90503d805f833e610b558183611f12565b8101906060818303126101d757610b6b81611f34565b50838101519160088310156101d757604082015167ffffffffffffffff928382116101d7570181601f820112156101d7578051928311610bf65760405191610bbc601f8501601f1916880184611f12565b8383528684830101116101d7579085915f5b848110610be25750505f9201015287610a8d565b818101840151838201850152879301610bce565b634e487b7160e01b5f52604160045260245ffd5b610c2a9150843d8611610c30575b610c228183611f12565b810190612013565b88610a5c565b503d610c18565b346101d75760803660031901126101d75760043560243560088110156101d7576064356001600160a01b03811692908390036101d757600391610c9591610c82600754821115611fcf565b5f526006602052601760405f200161202b565b01905f5260205260405f206044355f52602052602060405f2054604051908152f35b346101d7575f3660031901126101d7576003546040516001600160a01b039091168152602090f35b346101d75760203660031901126101d75761020060043560405190610d0382611ef5565b610100809236903781604051610d1881611ef5565b369037610d29600754821115611fcf565b5f526006602052610d6660405f2091610d50600f610d496007860161242e565b940161242e565b90610d5e6040518095611e29565b830190611e29565bf35b346101d7575f3660031901126101d7576020600754604051908152f35b346101d7575f3660031901126101d757602060405162093a808152f35b346101d75760403660031901126101d75760043560243560088110156101d757610df491606080604051610dd581611ed9565b5f81525f60208201528160408201520152610c82600754821115611fcf565b80546101d360018301549260405192610e0c84611ed9565b835260208301938452610e67610e376006610e29600585016123e2565b9360408701948552016123e2565b916060850192835260405195869560208752516020870152516040860152516080606086015260a0850190611df6565b9051838203601f19016080850152611df6565b346101d7575f3660031901126101d7575f5460405160109190911c6001600160a01b03168152602090f35b346101d7575f3660031901126101d7576005546040516001600160a01b039091168152602090f35b346101d75760203660031901126101d757600435610eef600754821115611fcf565b5f526006602052602060405f20600481015442109081610f15575b506040519015158152f35b60ff915060050154161582610f0a565b346101d7575f3660031901126101d7576004546040516001600160a01b039091168152602090f35b346101d7575f3660031901126101d757610f65611e50565b5f805462010000600160b01b03198116825560101c6001600160a01b03167f8be0079c531659141344cd1fd0a4f28419497f9722a3daafe3b4186f6b6457e08280a3005b346101d757610fcc6004610fbc36611dd3565b9391610c82600754821115611fcf565b01905f52602052602060405f2054604051908152f35b346101d7575f3660031901126101d757610ffa611e50565b005b346101d757610fcc6002610fbc36611dd3565b346101d75760203660031901126101d7576004355f52600660205260405f2080546101d36001830154926002810154906003810154600482015490600660ff600585015416930154936040519788978893909796959260c0959260e086019986526020860152604085015260608401526080830152151560a08201520152565b346101d75760203660031901126101d7576110b06007546004351115611fcf565b6002600154146118f35760026001556004355f52600660205260405f20600481015442106118e15760058101805460ff81166103825760ff19166001179055604051906110fc82611ef5565b610100368337600554815460405163ce17823960e01b815260048101919091525f92916001600160a01b031690602081602481855afa9081156108fc575f916118a7575b506020600184015460246040518095819363ce17823960e01b835260048301525afa9182156108fc575f9261186b575b5060405163c02e705760e01b8152906020826004816001600160a01b0385165afa9182156108fc575f92611837575b5060405163c02e705760e01b8152916020836004816001600160a01b0388165afa9283156108fc575f93611803575b5080600a810204600a14811517156109995782600a810204600a1483151715610999575f5b60088110611436578787876006810191825490604051906112148287611e29565b6101008201527f6e7952f5edb9a99a208e30b67db52814d4ddc53e2380994acf269700c0bb001b61012060043592a360018060a01b03600554168154916040519263ce17823960e01b84526004840152602083602481855afa9283156108fc575f936113f8575b5060010154906040519163ce17823960e01b83526004830152602082602481845afa9182156108fc575f926113b2575b50604051637b5cbc8d60e01b81526001600160a01b0393841660048201529190921660248201529260209184916101449183915f91906112ef906044850190611e29565b5af180156108fc57611378575b6005546040516324d47ded60e21b81529250602090839060049082906001600160a01b03165afa9182156108fc575f92611344575b505f198201918211610999575560018055005b9091506020813d602011611370575b8161136060209383611f12565b810103126101d757519082611331565b3d9150611353565b6020823d6020116113aa575b8161139160209383611f12565b810103126101d7576113a4600492611f34565b506112fc565b3d9150611384565b9091506020813d6020116113f0575b816113ce60209383611f12565b810103126101d7576020925f6113e661014493611f34565b93925050926112ab565b3d91506113c1565b9092506020813d60201161142e575b8161141460209383611f12565b810103126101d757611427600191611f34565b929061127b565b3d9150611407565b611443816017880161202b565b5f81541515806117f6575b156116c557506006810154600181111561169d57906006611472611479938561238c565b9101612041565b90549060031b1c5b808260051b8a01528061149e575b5061149990611eaa565b6111f3565b600354604051631280509760e31b81526004810183905290602090829060249082906001600160a01b03165afa9081156108fc575f9161167e575b501561148f576114f5606480600a88020490600a860204611eb8565b908160031c611505575b5061148f565b6002546040516331a9108f60e11b81526004810192909252602090829060249082906001600160a01b03165afa9081156108fc575f91611644575b506001600160a01b0385163b156101d757604051638e66b67960e01b8152600483811c908201526001600160a01b03821660248201525f8180604481010381836001600160a01b038b165af19081611635575b50611620575b6001600160a01b0387163b156101d757604051638e66b67960e01b8152600483811c908201526001600160a01b0390911660248201525f8180604481010381836001600160a01b038c165af19081611611575b506115f8575b806114ff565b611499919761160a9160041c90611eb8565b96906115f2565b61161a90611ec5565b8a6115ec565b9761162f908260041c90611eb8565b97611599565b61163e90611ec5565b8b611593565b90506020813d602011611676575b8161165f60209383611f12565b810103126101d75761167090611f34565b8a611540565b3d9150611652565b611697915060203d602011610c3057610c228183611f12565b8a6114d9565b156116b1576006015f5260205f2054611481565b634e487b7160e01b5f52603260045260245ffd5b905060405180606081011067ffffffffffffffff606083011117610bf657606081016040526002815260403660208301375f906117058460078b01611fc0565b90549060031b1c6117cc575b83600f8a016117208282611fc0565b90549060031b1c15158061179e575b611770575b505081611743575b5050611481565b9091506103e88301831161099957611762611768926103e8850161238c565b90612378565b51898061173c565b61179692939161177f91611fc0565b90549060031b1c6117908285612378565b52611eaa565b90838c611734565b508a6117be8360076117b08286611fc0565b90549060031b1c9301611fc0565b90549060031b1c141561172f565b90506117db8360078a01611fc0565b90549060031b1c8151156116b1576020820152600190611711565b506006820154151561144e565b9092506020813d60201161182f575b8161181f60209383611f12565b810103126101d7575191876111ce565b3d9150611812565b9091506020813d602011611863575b8161185360209383611f12565b810103126101d75751908661119f565b3d9150611846565b9091506020813d60201161189f575b8161188760209383611f12565b810103126101d75761189890611f34565b9085611170565b3d915061187a565b90506020813d6020116118d9575b816118c260209383611f12565b810103126101d7576118d390611f34565b85611140565b3d91506118b5565b604051633fc30bd160e11b8152600490fd5b60405162461bcd60e51b815260206004820152601f60248201527f5265656e7472616e637947756172643a207265656e7472616e742063616c6c006044820152606490fd5b346101d75760403660031901126101d757611951611da7565b611959611dbd565b905f549160ff8360081c161592838094611a81575b8015611a6a575b15611a0e5760ff1981166001175f55836119fd575b50611993611e50565b60018060a01b0390816bffffffffffffffffffffffff60a01b9316836004541617600455169060055416176005556119c757005b61ff00195f54165f557f7f26b83ff96e1f2b6a682f133852f6798a09c465da95921460cefb3847402498602060405160018152a1005b61ffff1916610101175f558361198a565b60405162461bcd60e51b815260206004820152602e60248201527f496e697469616c697a61626c653a20636f6e747261637420697320616c72656160448201526d191e481a5b9a5d1a585b1a5e995960921b6064820152608490fd5b50303b1580156119755750600160ff821614611975565b50600160ff82161061196e565b346101d757611a9c36611d80565b919092611aad600754821115611fcf565b805f526020926006845260405f2060048101544210156103945760ff60058201541661038257600884101561036e57611ae6338261219d565b821161035c57611af9846017830161202b565b915f8088600586018054925b838110611d28575b5050505015610315578685857fadea539f40f4d017ffd7920182381589e08f982f1800ecc323cf73d7a055bfe1611b7360046002980195855f52868c5260405f20611b59828254611eb8565b905560408051338152602081019290925290918291820190565b0390a4865f52855260405f20549060039283910154041115611b9157005b92815f5260068152611ba983601760405f200161202b565b60058101915f5b835480821015611d1c5788611bc58387612041565b9054908a1b1c14611bdf5750611bda90611eaa565b611bb0565b5f97929394959697199182820191821161099957611c10611c03611c289389612041565b905490861b1c9188612041565b90919082549060031b91821b915f19901b1916179055565b84548015611d0857810190611c3d8287612041565b9091825491851b1b1916905584555b6002830192875f528383525f60408120556004810183525f60408120556001938482019289845414611ca6575b505050505050507fa94670bb0be097eab022386e89339871be18721ccda66e8756a394f7d489aa2a5f80a4005b5f808555808455865b611cba575b50611c79565b8754811015611d035780611cd1611cf2928a612041565b905490841b1c805f5284885260405f205486548111611cf8575b5050611eaa565b86611caf565b865586558c80611ceb565b611cb4565b634e487b7160e01b5f52603160045260245ffd5b50509091929394611c4c565b82611d338284612041565b90549060031b1c14611d4d57611d4890611eaa565b611b05565b5050505050600188888180611b0d565b346101d7575f3660031901126101d7576002546001600160a01b03168152602090f35b60809060031901126101d7576004359060243560088110156101d757906044359060643590565b600435906001600160a01b03821682036101d757565b602435906001600160a01b03821682036101d757565b60609060031901126101d7576004359060243560088110156101d7579060443590565b9081518082526020808093019301915f5b828110611e15575050505090565b835185529381019392810192600101611e07565b5f915b60088310611e3957505050565b600190825181526020809101920192019190611e2c565b5f5460101c6001600160a01b03163303611e6657565b606460405162461bcd60e51b815260206004820152602060248201527f4f776e61626c653a2063616c6c6572206973206e6f7420746865206f776e65726044820152fd5b5f1981146109995760010190565b9190820180921161099957565b67ffffffffffffffff8111610bf657604052565b6080810190811067ffffffffffffffff821117610bf657604052565b610100810190811067ffffffffffffffff821117610bf657604052565b90601f8019910116810190811067ffffffffffffffff821117610bf657604052565b51906001600160a01b03821682036101d757565b809161010092839103126101d7576040519182019082821067ffffffffffffffff831117610bf65760e091604052805183526020810151602084015260408101516040840152606081015160608401526080810151608084015260a081015160a084015260c081015160c0840152015160e082015290565b60088210156116b15701905f90565b15611fd657565b60405162461bcd60e51b8152602060048201526015602482015274159bdd1a5b99c8191bd95cc81b9bdd08195e1a5cdd605a1b6044820152606490fd5b908160209103126101d7575180151581036101d75790565b90600881101561036e575f5260205260405f2090565b80548210156116b1575f5260205f2001905f90565b9081549168010000000000000000831015610bf65782611c1091600161207e95018155612041565b565b9190820391821161099957565b60088110156116b15760051b6101240190565b91905f81815260028401602052604081205484548082115f1461210857508455600660019483868201550190815490808355816120e5575b505061207e929350612056565b82815260208120918201915b8281106120fe57506120d8565b81815586016120f1565b8195929495149081612193575b5061211f57505050565b6006810192835480155f1461214157505061213d8260019394612056565b0155565b909150815b818110612162575b505015612159575050565b61207e91612056565b8361216d8287612041565b90549060031b1c146121875761218290611eaa565b612146565b50505060015f8061214e565b905015155f612115565b60055481546040805163ce17823960e01b80825260048201939093529095946001600160a01b0394938516936020939092908482602481895afa93841561236e5785925f9561232e575b5060016024910154918a519788938492835260048301525afa938415612324575f946122ed575b5086519483866024818480634562bd6f60e01b978884521697886004840152165afa9586156122e3575f966122b1575b508392916024918951968794859384526004840152165afa9485156122a857505f94612275575b5050916122729192611eb8565b90565b81813d83116122a1575b6122898183611f12565b8101031261229d575192506122725f612265565b8380fd5b503d61227f565b513d5f823e3d90fd5b90958482813d83116122dc575b6122c88183611f12565b810103126122d9575051948361223e565b80fd5b503d6122be565b88513d5f823e3d90fd5b90938382813d831161231d575b6123048183611f12565b810103126122d9575061231690611f34565b925f61220e565b503d6122fa565b87513d5f823e3d90fd5b919282819692963d8311612367575b6123478183611f12565b810103126122d95750906024600161235f8794611f34565b9591506121e7565b503d61233d565b89513d5f823e3d90fd5b80518210156116b15760209160051b010190565b81156123dc5760405160208101914483524260408301524360608301523360601b608083015260948201526094815260c0810181811067ffffffffffffffff821117610bf6576040525190200690565b50505f90565b906040519182815491828252602092838301915f52835f20935f905b8282106124145750505061207e92500383611f12565b8554845260019586019588955093810193909101906123fe565b60405191905f835b6008821061244a5750505061207e82611ef5565b600160208192855481520193019101909161243656fea26469706673582212205cb88718b5b842f14b27ab603f43481c3926b752c82680e475d0f5dadd13187664736f6c63430008140033",
    "linkReferences": {}
  },
  "methodIdentifiers": {
    "ENERGY_TRANSFER_PERCENTAGE()": "c853dfe4",
    "VOTING_DURATION()": "a438d208",
    "aminalFactory()": "855db2b7",
    "aminalsContract()": "741a955f",
    "auctionCounter()": "a7e76644",
    "auctions(uint256)": "571a26a0",
    "bulkVoteOnGenes(uint256,uint256[8],uint256[8])": "eebe7976",
    "createAuction(uint256,uint256,uint256)": "cda4beef",
    "emergencyStop()": "63a599a4",
    "geneFactory()": "b473522c",
    "Genes()": "0847335c",
    "getAuctionInfo(uint256)": "fc3fc4ed",
    "getCategoryVoting(uint256,uint8)": "9f850225",
    "getGeneRemovalVotes(uint256,uint8,uint256)": "6c681348",
    "getGeneVotes(uint256,uint8,uint256)": "62d05bd9",
    "getParentTraits(uint256)": "a8d2c3e8",
    "getUserVote(uint256,uint8,uint256,address)": "b4b01e8a",
    "getUserVotingPower(uint256,address)": "dfe2125d",
    "isVotingActive(uint256)": "772744b5",
    "owner()": "8da5cb5b",
    "proposeGene(uint256,uint8,uint256)": "bd9d71a6",
    "renounceOwnership()": "715018a6",
    "settleAuction(uint256)": "2e993611",
    "setup(address,address)": "2d34ba79",
    "transferOwnership(address)": "f2fde38b",
    "voteOnGene(uint256,uint8,uint256,uint256)": "f3c7d864",
    "voteToRemoveGene(uint256,uint8,uint256,uint256)": "2442769d"
  },
  "id": 43
}