{"abi":[{"type":"constructor","inputs":[{"name":"_factory","type":"address","internalType":"address"},{"name":"_momAddress","type":"address","internalType":"address"},{"name":"_dadAddress","type":"address","internalType":"address"},{"name":"_visuals","type":"tuple","internalType":"struct IAminalStructs.Visuals","components":[{"name":"backId","type":"uint256","internalType":"uint256"},{"name":"armId","type":"uint256","internalType":"uint256"},{"name":"tailId","type":"uint256","internalType":"uint256"},{"name":"earsId","type":"uint256","internalType":"uint256"},{"name":"bodyId","type":"uint256","internalType":"uint256"},{"name":"faceId","type":"uint256","internalType":"uint256"},{"name":"mouthId","type":"uint256","internalType":"uint256"},{"name":"miscId","type":"uint256","internalType":"uint256"}]},{"name":"_aminalIndex","type":"uint256","internalType":"uint256"},{"name":"_loveVRGDA","type":"address","internalType":"address"}],"stateMutability":"nonpayable"},{"type":"receive","stateMutability":"payable"},{"type":"function","name":"aminalGenes","inputs":[{"name":"","type":"uint256","internalType":"uint256"},{"name":"","type":"uint8","internalType":"enum IAminalStructs.VisualsCat"}],"outputs":[{"name":"","type":"uint256","internalType":"uint256"}],"stateMutability":"view"},{"type":"function","name":"aminalIndex","inputs":[],"outputs":[{"name":"","type":"uint256","internalType":"uint256"}],"stateMutability":"view"},{"type":"function","name":"approve","inputs":[{"name":"","type":"address","internalType":"address"},{"name":"","type":"uint256","internalType":"uint256"}],"outputs":[],"stateMutability":"pure"},{"type":"function","name":"balanceOf","inputs":[{"name":"owner","type":"address","internalType":"address"}],"outputs":[{"name":"","type":"uint256","internalType":"uint256"}],"stateMutability":"view"},{"type":"function","name":"breedableWith","inputs":[{"name":"","type":"address","internalType":"address"}],"outputs":[{"name":"","type":"bool","internalType":"bool"}],"stateMutability":"view"},{"type":"function","name":"breeding","inputs":[],"outputs":[{"name":"","type":"bool","internalType":"bool"}],"stateMutability":"view"},{"type":"function","name":"callSkill","inputs":[{"name":"skillAddress","type":"address","internalType":"address"},{"name":"data","type":"bytes","internalType":"bytes"}],"outputs":[],"stateMutability":"payable"},{"type":"function","name":"constructTokenURI","inputs":[{"name":"params","type":"tuple","internalType":"struct GeneBasedDescriptor.TokenURIParams","components":[{"name":"name","type":"string","internalType":"string"},{"name":"description","type":"string","internalType":"string"},{"name":"image","type":"string","internalType":"string"},{"name":"attributes","type":"string","internalType":"string"}]}],"outputs":[{"name":"","type":"string","internalType":"string"}],"stateMutability":"pure"},{"type":"function","name":"dadAddress","inputs":[],"outputs":[{"name":"","type":"address","internalType":"address"}],"stateMutability":"view"},{"type":"function","name":"dataURI","inputs":[{"name":"tokenId","type":"uint256","internalType":"uint256"}],"outputs":[{"name":"","type":"string","internalType":"string"}],"stateMutability":"view"},{"type":"function","name":"defaultGenes","inputs":[{"name":"","type":"uint8","internalType":"enum IAminalStructs.VisualsCat"}],"outputs":[{"name":"","type":"uint256","internalType":"uint256"}],"stateMutability":"view"},{"type":"function","name":"disableBreedableWith","inputs":[{"name":"partner","type":"address","internalType":"address"}],"outputs":[],"stateMutability":"nonpayable"},{"type":"function","name":"energy","inputs":[],"outputs":[{"name":"","type":"uint256","internalType":"uint256"}],"stateMutability":"view"},{"type":"function","name":"factory","inputs":[],"outputs":[{"name":"","type":"address","internalType":"contract AminalFactory"}],"stateMutability":"view"},{"type":"function","name":"feed","inputs":[],"outputs":[{"name":"","type":"uint256","internalType":"uint256"}],"stateMutability":"payable"},{"type":"function","name":"geneFactory","inputs":[],"outputs":[{"name":"","type":"address","internalType":"contract GeneNFTFactory"}],"stateMutability":"view"},{"type":"function","name":"generateAttributesList","inputs":[{"name":"tokenId","type":"uint256","internalType":"uint256"}],"outputs":[{"name":"","type":"string","internalType":"string"}],"stateMutability":"view"},{"type":"function","name":"genesNFT","inputs":[],"outputs":[{"name":"","type":"address","internalType":"contract GenesNFT"}],"stateMutability":"view"},{"type":"function","name":"getAminalGene","inputs":[{"name":"aminalId","type":"uint256","internalType":"uint256"},{"name":"category","type":"uint8","internalType":"enum IAminalStructs.VisualsCat"}],"outputs":[{"name":"","type":"uint256","internalType":"uint256"}],"stateMutability":"view"},{"type":"function","name":"getAminalVisualsByID","inputs":[{"name":"aminalID","type":"uint256","internalType":"uint256"}],"outputs":[{"name":"","type":"tuple","internalType":"struct IAminalStructs.Visuals","components":[{"name":"backId","type":"uint256","internalType":"uint256"},{"name":"armId","type":"uint256","internalType":"uint256"},{"name":"tailId","type":"uint256","internalType":"uint256"},{"name":"earsId","type":"uint256","internalType":"uint256"},{"name":"bodyId","type":"uint256","internalType":"uint256"},{"name":"faceId","type":"uint256","internalType":"uint256"},{"name":"mouthId","type":"uint256","internalType":"uint256"},{"name":"miscId","type":"uint256","internalType":"uint256"}]}],"stateMutability":"view"},{"type":"function","name":"getApproved","inputs":[{"name":"tokenId","type":"uint256","internalType":"uint256"}],"outputs":[{"name":"","type":"address","internalType":"address"}],"stateMutability":"view"},{"type":"function","name":"getEnergy","inputs":[],"outputs":[{"name":"","type":"uint256","internalType":"uint256"}],"stateMutability":"view"},{"type":"function","name":"getLoveByUser","inputs":[{"name":"user","type":"address","internalType":"address"}],"outputs":[{"name":"","type":"uint256","internalType":"uint256"}],"stateMutability":"view"},{"type":"function","name":"getParents","inputs":[],"outputs":[{"name":"mom","type":"address","internalType":"address"},{"name":"dad","type":"address","internalType":"address"}],"stateMutability":"view"},{"type":"function","name":"getSkillProperty","inputs":[{"name":"skill","type":"address","internalType":"address"},{"name":"key","type":"string","internalType":"string"}],"outputs":[{"name":"","type":"bytes32","internalType":"bytes32"}],"stateMutability":"view"},{"type":"function","name":"getTotalLove","inputs":[],"outputs":[{"name":"","type":"uint256","internalType":"uint256"}],"stateMutability":"view"},{"type":"function","name":"getTraitSVG","inputs":[{"name":"aminalId","type":"uint256","internalType":"uint256"},{"name":"category","type":"uint8","internalType":"enum IAminalStructs.VisualsCat"}],"outputs":[{"name":"","type":"string","internalType":"string"}],"stateMutability":"view"},{"type":"function","name":"getVisuals","inputs":[],"outputs":[{"name":"","type":"tuple","internalType":"struct IAminalStructs.Visuals","components":[{"name":"backId","type":"uint256","internalType":"uint256"},{"name":"armId","type":"uint256","internalType":"uint256"},{"name":"tailId","type":"uint256","internalType":"uint256"},{"name":"earsId","type":"uint256","internalType":"uint256"},{"name":"bodyId","type":"uint256","internalType":"uint256"},{"name":"faceId","type":"uint256","internalType":"uint256"},{"name":"mouthId","type":"uint256","internalType":"uint256"},{"name":"miscId","type":"uint256","internalType":"uint256"}]}],"stateMutability":"view"},{"type":"function","name":"isApprovedForAll","inputs":[{"name":"owner","type":"address","internalType":"address"},{"name":"operator","type":"address","internalType":"address"}],"outputs":[{"name":"","type":"bool","internalType":"bool"}],"stateMutability":"view"},{"type":"function","name":"isBreedableWith","inputs":[{"name":"partner","type":"address","internalType":"address"}],"outputs":[{"name":"","type":"bool","internalType":"bool"}],"stateMutability":"view"},{"type":"function","name":"loveDrivenPrice","inputs":[{"name":"user","type":"address","internalType":"address"}],"outputs":[{"name":"","type":"uint128","internalType":"uint128"}],"stateMutability":"view"},{"type":"function","name":"lovePerUser","inputs":[{"name":"user","type":"address","internalType":"address"}],"outputs":[{"name":"love","type":"uint256","internalType":"uint256"}],"stateMutability":"view"},{"type":"function","name":"loveVRGDA","inputs":[],"outputs":[{"name":"","type":"address","internalType":"contract AminalVRGDA"}],"stateMutability":"view"},{"type":"function","name":"momAddress","inputs":[],"outputs":[{"name":"","type":"address","internalType":"address"}],"stateMutability":"view"},{"type":"function","name":"name","inputs":[],"outputs":[{"name":"","type":"string","internalType":"string"}],"stateMutability":"view"},{"type":"function","name":"ownerOf","inputs":[{"name":"tokenId","type":"uint256","internalType":"uint256"}],"outputs":[{"name":"","type":"address","internalType":"address"}],"stateMutability":"view"},{"type":"function","name":"safeTransferFrom","inputs":[{"name":"","type":"address","internalType":"address"},{"name":"","type":"address","internalType":"address"},{"name":"","type":"uint256","internalType":"uint256"}],"outputs":[],"stateMutability":"pure"},{"type":"function","name":"safeTransferFrom","inputs":[{"name":"","type":"address","internalType":"address"},{"name":"","type":"address","internalType":"address"},{"name":"","type":"uint256","internalType":"uint256"},{"name":"","type":"bytes","internalType":"bytes"}],"outputs":[],"stateMutability":"pure"},{"type":"function","name":"setAminalGenes","inputs":[{"name":"aminalId","type":"uint256","internalType":"uint256"},{"name":"geneIds","type":"uint256[8]","internalType":"uint256[8]"}],"outputs":[],"stateMutability":"nonpayable"},{"type":"function","name":"setApprovalForAll","inputs":[{"name":"","type":"address","internalType":"address"},{"name":"","type":"bool","internalType":"bool"}],"outputs":[],"stateMutability":"pure"},{"type":"function","name":"setBreedableWith","inputs":[{"name":"partner","type":"address","internalType":"address"},{"name":"status","type":"bool","internalType":"bool"}],"outputs":[],"stateMutability":"nonpayable"},{"type":"function","name":"setBreeding","inputs":[{"name":"_breeding","type":"bool","internalType":"bool"}],"outputs":[],"stateMutability":"nonpayable"},{"type":"function","name":"setDefaultGene","inputs":[{"name":"category","type":"uint8","internalType":"enum IAminalStructs.VisualsCat"},{"name":"geneId","type":"uint256","internalType":"uint256"}],"outputs":[],"stateMutability":"nonpayable"},{"type":"function","name":"setSkillProperty","inputs":[{"name":"key","type":"string","internalType":"string"},{"name":"value","type":"bytes32","internalType":"bytes32"}],"outputs":[],"stateMutability":"nonpayable"},{"type":"function","name":"skillProperties","inputs":[{"name":"skill","type":"address","internalType":"address"},{"name":"key","type":"string","internalType":"string"}],"outputs":[{"name":"value","type":"bytes32","internalType":"bytes32"}],"stateMutability":"view"},{"type":"function","name":"squeak","inputs":[{"name":"amount","type":"uint256","internalType":"uint256"}],"outputs":[],"stateMutability":"payable"},{"type":"function","name":"supportsInterface","inputs":[{"name":"interfaceId","type":"bytes4","internalType":"bytes4"}],"outputs":[{"name":"","type":"bool","internalType":"bool"}],"stateMutability":"view"},{"type":"function","name":"symbol","inputs":[],"outputs":[{"name":"","type":"string","internalType":"string"}],"stateMutability":"view"},{"type":"function","name":"tokenURI","inputs":[{"name":"id","type":"uint256","internalType":"uint256"}],"outputs":[{"name":"","type":"string","internalType":"string"}],"stateMutability":"view"},{"type":"function","name":"totalLove","inputs":[],"outputs":[{"name":"","type":"uint256","internalType":"uint256"}],"stateMutability":"view"},{"type":"function","name":"transferEnergyToOwner","inputs":[{"name":"amount","type":"uint256","internalType":"uint256"},{"name":"recipient","type":"address","internalType":"address"}],"outputs":[],"stateMutability":"nonpayable"},{"type":"function","name":"transferFrom","inputs":[{"name":"","type":"address","internalType":"address"},{"name":"","type":"address","internalType":"address"},{"name":"","type":"uint256","internalType":"uint256"}],"outputs":[],"stateMutability":"pure"},{"type":"function","name":"visuals","inputs":[],"outputs":[{"name":"backId","type":"uint256","internalType":"uint256"},{"name":"armId","type":"uint256","internalType":"uint256"},{"name":"tailId","type":"uint256","internalType":"uint256"},{"name":"earsId","type":"uint256","internalType":"uint256"},{"name":"bodyId","type":"uint256","internalType":"uint256"},{"name":"faceId","type":"uint256","internalType":"uint256"},{"name":"mouthId","type":"uint256","internalType":"uint256"},{"name":"miscId","type":"uint256","internalType":"uint256"}],"stateMutability":"view"},{"type":"event","name":"Approval","inputs":[{"name":"owner","type":"address","indexed":true,"internalType":"address"},{"name":"approved","type":"address","indexed":true,"internalType":"address"},{"name":"tokenId","type":"uint256","indexed":true,"internalType":"uint256"}],"anonymous":false},{"type":"event","name":"ApprovalForAll","inputs":[{"name":"owner","type":"address","indexed":true,"internalType":"address"},{"name":"operator","type":"address","indexed":true,"internalType":"address"},{"name":"approved","type":"bool","indexed":false,"internalType":"bool"}],"anonymous":false},{"type":"event","name":"BreedableSet","inputs":[{"name":"partner","type":"address","indexed":false,"internalType":"address"},{"name":"status","type":"bool","indexed":false,"internalType":"bool"}],"anonymous":false},{"type":"event","name":"DefaultGeneSet","inputs":[{"name":"category","type":"uint8","indexed":true,"internalType":"enum IAminalStructs.VisualsCat"},{"name":"geneId","type":"uint256","indexed":true,"internalType":"uint256"}],"anonymous":false},{"type":"event","name":"EnergyTransferred","inputs":[{"name":"recipient","type":"address","indexed":true,"internalType":"address"},{"name":"amount","type":"uint256","indexed":false,"internalType":"uint256"},{"name":"remainingEnergy","type":"uint256","indexed":false,"internalType":"uint256"}],"anonymous":false},{"type":"event","name":"FeedAminal","inputs":[{"name":"sender","type":"address","indexed":false,"internalType":"address"},{"name":"amount","type":"uint256","indexed":false,"internalType":"uint256"},{"name":"love","type":"uint256","indexed":false,"internalType":"uint256"},{"name":"totalLove","type":"uint256","indexed":false,"internalType":"uint256"},{"name":"energy","type":"uint256","indexed":false,"internalType":"uint256"}],"anonymous":false},{"type":"event","name":"SkillCall","inputs":[{"name":"skillAddress","type":"address","indexed":false,"internalType":"address"},{"name":"data","type":"bytes","indexed":false,"internalType":"bytes"},{"name":"squeakCost","type":"uint256","indexed":false,"internalType":"uint256"}],"anonymous":false},{"type":"event","name":"Squeak","inputs":[{"name":"sender","type":"address","indexed":false,"internalType":"address"},{"name":"amount","type":"uint256","indexed":false,"internalType":"uint256"},{"name":"love","type":"uint256","indexed":false,"internalType":"uint256"},{"name":"totalLove","type":"uint256","indexed":false,"internalType":"uint256"},{"name":"energy","type":"uint256","indexed":false,"internalType":"uint256"}],"anonymous":false},{"type":"event","name":"TraitAdded","inputs":[{"name":"aminalId","type":"uint256","indexed":true,"internalType":"uint256"},{"name":"category","type":"uint8","indexed":true,"internalType":"enum IAminalStructs.VisualsCat"},{"name":"geneId","type":"uint256","indexed":true,"internalType":"uint256"}],"anonymous":false},{"type":"event","name":"Transfer","inputs":[{"name":"from","type":"address","indexed":true,"internalType":"address"},{"name":"to","type":"address","indexed":true,"internalType":"address"},{"name":"tokenId","type":"uint256","indexed":true,"internalType":"uint256"}],"anonymous":false},{"type":"error","name":"InvalidGene","inputs":[]},{"type":"error","name":"NotEnoughEnergy","inputs":[]},{"type":"error","name":"NotEnoughEther","inputs":[]},{"type":"error","name":"NotEnoughLove","inputs":[]},{"type":"error","name":"NotRegisteredSkill","inputs":[]},{"type":"error","name":"OnlyFactory","inputs":[]}],"bytecode":{"object":"0x6101208060405234620006ae5780620038248038038091620000228285620006ce565b83398101036101a08112620006ae576200003c82620006f2565b6200004a60208401620006f2565b926200005960408201620006f2565b906101008094605f190112620006ae576040518481016001600160401b038111828210176200054f57604052606082015181526080820151602082015260a0820151604082015260c0820151606082015260e082015160808201528482015160a082015261012082015160c082015261014082015160e0820152620000e86101806101608401519301620006f2565b604051630211ccd760e21b8152969093906020886004816001600160a01b038a165afa978815620006a3575f986200064f575b50604051976200012b89620006b2565b6006895265105b5a5b985b60d21b60208a0152604051986200014d8a620006b2565b60068a526510535253905360d21b60208b01528051906001600160401b0382116200054f575f5490600182811c9216801562000644575b6020831014620005305781601f849311620005e7575b50602090601f83116001146200056f575f9262000563575b50508160011b915f199060031b1c1916175f555b88516001600160401b0381116200054f57600154600181811c9116801562000544575b60208210146200053057601f8111620004cc575b506020601f82116001146200045a57819060e09798999a9b5f926200044e575b50508160011b915f199060031b1c1916176001555b600680546001600160a01b03199081166001600160a01b0393841617909155600780549091169055878116608081815260a093845260c09485528551600a556020860151600b556040860151600c556060860151600d55850151600e5591840151600f5591830151601055929091015160115560e092909252911683526032601355156200040a5760015f5260026020525f805160206200380483398151915254620002eb906001600160a01b031615155b1562000707565b60015f5260026020525f8051602062003804833981519152546200031a906001600160a01b03161515620002e4565b6001600160a01b03165f8181526003602090815260408083208054600190810190915580845260029092525f805160206200380483398151915280546001600160a01b03191685179055519290917fddf252ad1be2c89b69c2b068fc378daa952ba7f163c4a11628f55a4df523b3ef8180a461308f9182620007558339608051828181610d8201528181611067015281816114f70152818161161201528181611934015261199a015260a051828181610ba40152611828015260c0518281816115be015261184d015260e05182818161124201528181611549015261188b01525181818161100e0152611c3d0152f35b606460405162461bcd60e51b815260206004820152602060248201527f4552433732313a206d696e7420746f20746865207a65726f20616464726573736044820152fd5b015190505f806200021d565b60015f5260205f209a5f5b601f1984168110620004b357509a829160e098999a9b9c600194601f198116106200049a575b505050811b0160015562000232565b01515f1960f88460031b161c191690555f80806200048b565b828201518d556001909c019b6020928301920162000465565b60015f527fb10e2d527612073b26eecdfd717e6a320cf44b4afac2b0732d9fcbe2b7fa0cf6601f830160051c81016020841062000528575b601f830160051c820181106200051c575050620001fd565b5f815560010162000504565b508062000504565b634e487b7160e01b5f52602260045260245ffd5b90607f1690620001e9565b634e487b7160e01b5f52604160045260245ffd5b015190505f80620001b2565b5f80805293505f80516020620037e483398151915291905b601f1984168510620005cb576001945083601f19811610620005b2575b505050811b015f55620001c6565b01515f1960f88460031b161c191690555f8080620005a4565b8181015183556020948501946001909301929091019062000587565b5f80529091505f80516020620037e4833981519152601f840160051c8101602085106200063c575b90849392915b601f830160051c820181106200062d5750506200019a565b5f815585945060010162000615565b50806200060f565b91607f169162000184565b6020989198813d6020116200069a575b816200066e60209383620006ce565b81010312620006965751906001600160a01b0382168203620006935750965f6200011b565b80fd5b5080fd5b3d91506200065f565b6040513d5f823e3d90fd5b5f80fd5b604081019081106001600160401b038211176200054f57604052565b601f909101601f19168101906001600160401b038211908210176200054f57604052565b51906001600160a01b0382168203620006ae57565b156200070f57565b60405162461bcd60e51b815260206004820152601c60248201527f4552433732313a20746f6b656e20616c7265616479206d696e746564000000006044820152606490fdfe60806040526004361015610022575b3615610018575f80fd5b6100206120e7565b005b5f3560e01c806301ffc9a71461035857806306fdde031461035357806307c3c9481461034e578063081812fc146103495780630847335c14610344578063095ea7b31461033f5780630a2db3601461030d5780630b348a431461033a5780631636a95c14610335578063208f45e61461033057806323b872dd1461031257806328556bbb1461032b57806328f14b441461032657806337a7b7d81461032157806337fd68581461031c5780633bc848bc1461031757806342842e0e14610312578063442701ce1461030d5780634562bd6f146102fe578063465f2cdf146103085780635083886b1461030357806356946e5f146102fe5780635ac1e3bb146102f95780635b35f2dc146102f45780635d405330146102ef5780635e9de302146102ea5780636352211e146102e557806364f508d6146102e057806369e658fc146102a957806370a08231146102db5780637ad72c9a146102d65780638b9595ff146102d15780638e66b679146102cc57806392b4c81b146102c7578063938a3458146102c257806395d89b41146102bd578063a15e64c1146102b8578063a22cb465146102b3578063aa8492441461029a578063b0f4843f146102ae578063b1b894f2146102a9578063b473522c146102a4578063b88d4fde1461029f578063c02e70571461029a578063c45a015514610295578063c87b56dd14610290578063ce4125001461028b578063d1df77d214610286578063dd6133b514610281578063e1730b641461027c578063e985e9c514610277578063ebaf6fec146102725763fc581ef70361000e57611973565b611908565b6118ae565b611874565b61180a565b6115ed565b6115a9565b611526565b6114e2565b611400565b611485565b61145d565b610e20565b61141d565b611396565b61136c565b6112ad565b611226565b611163565b61103d565b610ff9565b610f1c565b610e3d565b610df9565b610dc4565b610d5f565b610d06565b610cdb565b610cbc565b610b54565b610bd3565b610b8f565b610637565b610839565b610ad8565b61092d565b61090e565b6108b4565b610865565b610801565b61073b565b6106cc565b6105c1565b610588565b61053e565b61051f565b610417565b346103c65760203660031901126103c65760043563ffffffff60e01b81168091036103c6576020906380ac58cd60e01b81149081156103b5575b81156103a4575b506040519015158152f35b6301ffc9a760e01b1490505f610399565b635b5e139f60e01b81149150610392565b5f80fd5b5f5b8381106103db5750505f910152565b81810151838201526020016103cc565b6040916020825261040b81518092816020860152602086860191016103ca565b601f01601f1916010190565b346103c6575f8060031936011261051c57604051908080549060019180831c92808216928315610512575b60209283861085146104fe5785885260208801949081156104dd5750600114610486575b6104828761047681890382610a15565b604051918291826103eb565b0390f35b5f805294509192917f290decd9548b62a8d60345a988386fc84ba6bc95484008f6362f93160ef3e5635b8386106104cc5750505091019050610476826104825f80610466565b8054858701529482019481016104b0565b60ff191685525050505090151560051b019050610476826104825f80610466565b634e487b7160e01b82526022600452602482fd5b93607f1693610442565b80fd5b346103c65760203660031901126103c6576104826104766004356128fb565b346103c65760203660031901126103c6576020600435805f526002825260018060a01b03906105748260405f2054161515611adb565b5f526004825260405f205416604051908152f35b346103c6575f3660031901126103c6576006546040516001600160a01b039091168152602090f35b6001600160a01b038116036103c657565b346103c65760403660031901126103c6576105dd6004356105b0565b60405162461bcd60e51b815260206004820152602c60248201527f416d696e616c732061726520736f756c626f756e6420616e642063616e6e6f7460448201526b08189948185c1c1c9bdd995960a21b6064820152608490fd5b346103c65760203660031901126103c657600435610654816105b0565b60018060a01b03165f526015602052602060ff60405f2054166040519015158152f35b600811156103c657565b6008111561068b57565b634e487b7160e01b5f52602160045260245ffd5b600881101561068b575f52600960205260405f2090565b90600881101561068b575f5260205260405f2090565b346103c65760403660031901126103c65760206107006024356106ee81610677565b6004355f526008835260405f206106b6565b54604051908152f35b801515036103c657565b60409060031901126103c65760043561072b816105b0565b9060243561073881610709565b90565b346103c65761074936610713565b905f913383526016602052600a6040842054106107ca576001600160a01b0382168352601560205260408320805460ff191660ff831515161790557fff1ce36355064a2eac76e57c8220d5bac2c7bb2a6622c6158d32e681eedd0c1c91604080516001600160a01b039092168252911515602082015290819081010390a180f35b60405162461bcd60e51b815260206004820152600f60248201526e4e6f7420656e6f756768206c6f766560881b6044820152606490fd5b346103c65760203660031901126103c6576020610828600435610823816105b0565b611f27565b6001600160801b0360405191168152f35b346103c65760603660031901126103c6576108556004356105b0565b6108606024356105b0565b611e3d565b346103c6575f3660031901126103c657602060ff601454166040519015158152f35b9181601f840112156103c6578235916001600160401b0383116103c657602083818601950101116103c657565b346103c65760403660031901126103c6576004356001600160401b0381116103c6576108e4903690600401610887565b90335f52601760205260405f20918060405192833781019182526020816024359303019020555f80f35b5f3660031901126103c65760206109253433611bff565b604051908152f35b346103c6575f3660031901126103c657610945611fc1565b5061048261095161200f565b6040519182918291909160e080610100830194805184526020810151602085015260408101516040850152606081015160608501526080810151608085015260a081015160a085015260c081015160c08501520151910152565b634e487b7160e01b5f52604160045260245ffd5b602081019081106001600160401b038211176109da57604052565b6109ab565b604081019081106001600160401b038211176109da57604052565b606081019081106001600160401b038211176109da57604052565b90601f801991011681019081106001600160401b038211176109da57604052565b60405190608082018281106001600160401b038211176109da57604052565b6001600160401b0381116109da57601f01601f191660200190565b929192610a7c82610a55565b91610a8a6040519384610a15565b8294818452818301116103c6578281602093845f960137010152565b9080601f830112156103c65781602061073893359101610a70565b90610ad4602092828151948592016103ca565b0190565b346103c65760403660031901126103c657600435610af5816105b0565b602435906001600160401b0382116103c6576020610b4291610b1c82943690600401610aa6565b9060018060a01b03165f526017825260405f2082604051948386809551938492016103ca565b82019081520301902054604051908152f35b346103c65760203660031901126103c657600435610b71816105b0565b60018060a01b03165f526016602052602060405f2054604051908152f35b346103c6575f3660031901126103c6576040517f00000000000000000000000000000000000000000000000000000000000000006001600160a01b03168152602090f35b60203660031901126103c65760043566038d7ea4c680003410610caa57335f90815260166020526040902081905410610c9857807f1193f7f56bf6fc76e52b7edc5f2e6df4fd725f858cb71c88f75180a456b626199160135481811015610c7f575b50610c409033611ed0565b335f90815260166020526040902054601254601354604080513381526020810195909552840192909252606083015260808201528060a081015b0390a1005b610c9191610c8c91611bf2565b601355565b805f610c35565b604051631d67da9d60e21b8152600490fd5b604051638a0d377960e01b8152600490fd5b346103c65760203660031901126103c65761048261047660043561255e565b346103c65760403660031901126103c657610482610476602435610cfe81610677565b600435612554565b346103c6575f3660031901126103c657610100600a54600b54600c54600d54600e54600f54916010549360115495604051978852602088015260408701526060860152608085015260a084015260c083015260e0820152f35b346103c65760203660031901126103c657600435610d7c81610709565b610db0337f00000000000000000000000000000000000000000000000000000000000000006001600160a01b031614611df1565b60ff80196014541691151516176014555f80f35b346103c65760203660031901126103c6576004355f526002602052602060018060a01b0360405f205416610925811515611adb565b346103c65760203660031901126103c6576020610700600435610e1b81610677565b61069f565b346103c6575f3660031901126103c6576020601254604051908152f35b346103c65760203660031901126103c657600435610e5a816105b0565b6001600160a01b03168015610e89575f52600360205261048260405f2054604051918291829190602083019252565b60405162461bcd60e51b815260206004820152602960248201527f4552433732313a2061646472657373207a65726f206973206e6f7420612076616044820152683634b21037bbb732b960b91b6064820152608490fd5b9060406003198301126103c657600435610ef9816105b0565b91602435906001600160401b0382116103c657610f1891600401610887565b9091565b610f2536610ee0565b9160405163b13506a360e01b815260208180610f478787303360048601611d9d565b0381346001600160a01b0387165af18015610ff4577fc7e603cfb39436822f6ccab2341db7be1d46168d194365562b4b5985cf9c7e4494610c7a925f92610fc4575b5081610f9c575b60405194859485611dc6565b8160135481811015610fb0575b5050610f90565b610fbd91610c8c91611bf2565b815f610fa9565b610fe691925060203d8111610fed575b610fde8183610a15565b810190611b27565b905f610f89565b503d610fd4565b611b36565b346103c6575f3660031901126103c6576040517f00000000000000000000000000000000000000000000000000000000000000006001600160a01b03168152602090f35b346103c65760403660031901126103c65760043560243561105d816105b0565b6001600160a01b037f0000000000000000000000000000000000000000000000000000000000000000811633811480156110ff575b61109c9150612082565b601354918383106110ed576110d5610c8c857f704ef265c2f2ab6759468a12c34cb227d7b6431813a9e4921887b9e59d2a766d95611bf2565b601354604080519586526020860191909152911692a2005b604051637962b8d160e11b8152600490fd5b50602060049160405192838092634aa8220160e11b82525afa908115610ff45761109c9183915f91611135575b50163314611092565b611156915060203d811161115c575b61114e8183610a15565b81019061206d565b5f61112c565b503d611144565b346103c6576003196020368201126103c65760048035916001600160401b03908184116103c65760809084360301126103c65761119e610a36565b90838301358181116103c6576111b990843691870101610aa6565b825260248401358181116103c6576111d690843691870101610aa6565b602083015260448401358181116103c6576111f690843691870101610aa6565b604083015260648401359081116103c657610482936104769361121c9236920101610aa6565b60608201526120fb565b346103c65760203660031901126103c65761123f611fc1565b507f0000000000000000000000000000000000000000000000000000000000000000600435036112745761048261095161200f565b60405162461bcd60e51b8152602060048201526011602482015270125b9d985b1a5908185b5a5b985b081251607a1b6044820152606490fd5b346103c6575f8060031936011261051c576040519080600190815480831c92808216928315611362575b60209283861085146104fe5785885260208801949081156104dd575060011461130a576104828761047681890382610a15565b60015f5294509192917fb10e2d527612073b26eecdfd717e6a320cf44b4afac2b0732d9fcbe2b7fa0cf65b8386106113515750505091019050610476826104825f80610466565b805485870152948201948101611335565b93607f16936112d7565b346103c65760403660031901126103c657602061092560243561138e81610677565b600435612421565b346103c6576113a436610713565b505060405162461bcd60e51b815260206004820152602c60248201527f416d696e616c732061726520736f756c626f756e6420616e642063616e6e6f7460448201526b08189948185c1c1c9bdd995960a21b6064820152608490fd5b346103c6575f3660031901126103c6576020601354604051908152f35b346103c65760208061142e36610ee0565b929160018060a01b03165f526017825260405f2083604051948593843782019081520301902054604051908152f35b346103c6575f3660031901126103c6576007546040516001600160a01b039091168152602090f35b346103c65760803660031901126103c6576114a16004356105b0565b6114ac6024356105b0565b6064356001600160401b0381116103c657366023820112156103c6576114dc903690602481600401359101610a70565b50611e3d565b346103c6575f3660031901126103c6576040517f00000000000000000000000000000000000000000000000000000000000000006001600160a01b03168152602090f35b346103c65760203660031901126103c65760016004350361156d576104826104767f000000000000000000000000000000000000000000000000000000000000000061255e565b60405162461bcd60e51b8152602060048201526014602482015273151bdad95b88191bd95cc81b9bdd08195e1a5cdd60621b6044820152606490fd5b346103c6575f3660031901126103c6576040517f00000000000000000000000000000000000000000000000000000000000000006001600160a01b03168152602090f35b346103c6576101203660031901126103c6576004803536610124116103c657611640337f00000000000000000000000000000000000000000000000000000000000000006001600160a01b031614611df1565b5f5b6008811061164c57005b61165581610681565b61165e81612251565b35611672575b61166d9061222f565b611642565b60075461168f906001600160a01b03165b6001600160a01b031690565b61169882612251565b60408051631280509760e31b8152913586830190815290929160209182908290819083010381865afa918215610ff4575f926117dd575b5050156117cd575f611704916116e485612251565b3590845180809581946379b68ad360e01b83528b83019190602083019252565b03915afa8015610ff45783915f916117a9575b5061172182610681565b61172a81610681565b0361179a57508061173d61166d92612251565b3561175982611754865f52600860205260405f2090565b6106b6565b5561176381612251565b3561176d82610681565b81847f743915b475b22ca00aa554c29ce00e9db3cc0f71ade483b0f8bd76fc45bb3e9a5f80a49050611664565b516361075f6560e01b81528390fd5b6117c4913d8091833e6117bc8183610a15565b8101906122bf565b5090505f611717565b81516361075f6560e01b81528590fd5b6117fc9250803d10611803575b6117f48183610a15565b810190612268565b5f806116cf565b503d6117ea565b346103c6575f3660031901126103c657604080516001600160a01b037f0000000000000000000000000000000000000000000000000000000000000000811682527f0000000000000000000000000000000000000000000000000000000000000000166020820152f35b346103c6575f3660031901126103c65760206040517f00000000000000000000000000000000000000000000000000000000000000008152f35b346103c65760403660031901126103c6576004356118cb816105b0565b602435906118d8826105b0565b60018060a01b038091165f52600560205260405f2091165f52602052602060ff60405f2054166040519015158152f35b346103c65760203660031901126103c657600435611925816105b0565b6001600160a01b039061195b337f0000000000000000000000000000000000000000000000000000000000000000841614611df1565b165f908152601560205260409020805460ff19169055005b346103c65760403660031901126103c65760043561199081610677565b602435906119c8337f00000000000000000000000000000000000000000000000000000000000000006001600160a01b031614611df1565b6007546119dd906001600160a01b0316611683565b604051631280509760e31b815260048101849052602081602481855afa908115610ff4575f91611abd575b5015611a8f576040516379b68ad360e01b815260048101849052905f90829060249082905afa8015610ff45782915f91611aa1575b50611a4782610681565b611a5081610681565b03611a8f5781611a5f8261069f565b55611a6981610681565b7f0dbf53d4430a95d04d937e99c21904547d4e641431e23c6d91c17afa933096845f80a3005b6040516361075f6560e01b8152600490fd5b611ab4913d8091833e6117bc8183610a15565b5090505f611a3d565b611ad5915060203d8111611803576117f48183610a15565b5f611a08565b15611ae257565b60405162461bcd60e51b815260206004820152601860248201527f4552433732313a20696e76616c696420746f6b656e20494400000000000000006044820152606490fd5b908160209103126103c6575190565b6040513d5f823e3d90fd5b634e487b7160e01b5f52601160045260245ffd5b9061271091828102928184041490151715611b6c57565b611b41565b600281901b91906001600160fe1b03811603611b6c57565b634e487b7160e01b5f52601260045260245ffd5b8015611ba95760640490565b611b89565b8115611ba9570490565b9060028201809211611b6c57565b9060208201809211611b6c57565b91908201809211611b6c57565b90620f4240918203918211611b6c57565b91908203918211611b6c57565b9066038d7ea4c680003410610caa57601354604051637726dafd60e01b81526004810191909152602481018290526020816044816001600160a01b037f0000000000000000000000000000000000000000000000000000000000000000165afa8015610ff457611c77915f91611d5f575b5083611e9a565b611c91611c8382611b55565b670de0b6b3a7640000900490565b9060135492620f4240611ca48486611bd4565b11611d24575b611cd9610c8c847fc6f7c174edbf811379339d42d7025cd8bfb103e0a8aba7c1b092f64fcfb1d7b59596611bd4565b6001600160a01b03165f8181526016602090815260409182902054601254601354845195865292850195909552918301919091526060820192909252608081019190915260a090a190565b7fc6f7c174edbf811379339d42d7025cd8bfb103e0a8aba7c1b092f64fcfb1d7b59250611cd9610c8c611d5686611be1565b94505050611caa565b611d77915060203d8111610fed57610fde8183610a15565b5f611c70565b908060209392818452848401375f828201840152601f01601f1916010190565b6001600160a01b0391821681529116602082015260606040820181905261073893910191611d7d565b94939291604092611dec9260018060a01b03168752606060208801526060870191611d7d565b930152565b15611df857565b60405162461bcd60e51b815260206004820152601a60248201527f4f6e6c7920666163746f72792063616e2063616c6c20746869730000000000006044820152606490fd5b60405162461bcd60e51b815260206004820152602f60248201527f416d696e616c732061726520736f756c626f756e6420616e642063616e6e6f7460448201526e081899481d1c985b9cd9995c9c9959608a1b6064820152608490fd5b6001600160a01b03165f908152601660205260409020805482810191908210611b6c5755601254908101809111611b6c57601255565b6001600160a01b03165f908152601660205260409020805482810391908211611b6c5755601254908103908111611b6c57601255565b9066038d7ea4c680006001600160801b0380931602918216918203611b6c57565b6001600160a01b03165f908152601660205260409020546012548015611fb357606482029180830460641490151715611b6c57611f6391611bae565b80611f96575060645b6001600a6001600160801b038093160491821610611f8e575b61073890611f06565b506001611f85565b611fa2611fae91611b9d565b6001600160801b031690565b611f6c565b505067016345785d8a000090565b6040519061010082018281106001600160401b038211176109da576040528160e05f918281528260208201528260408201528260608201528260808201528260a08201528260c08201520152565b6040519061010082018281106001600160401b038211176109da5760405281600a548152600b546020820152600c546040820152600d546060820152600e546080820152600f5460a082015260105460c082015260e0601154910152565b908160209103126103c65751610738816105b0565b1561208957565b60405162461bcd60e51b815260206004820152603060248201527f4f6e6c7920666163746f7279206f722067656e652061756374696f6e2063616e60448201526f207472616e7366657220656e6572677960801b6064820152608490fd5b346120ee57565b6120f83433611bff565b50565b6107386121576121ee612223936121d56121c78251926121a36121a96020830151926121a3603b606060408401519301519560296040519c8d809c683d913730b6b2911d1160b91b6020830152602081519485930191016103ca565b8a0171111610113232b9b1b934b83a34b7b7111d1160711b602982015261218782518093602086850191016103ca565b0101600d906c1116101134b6b0b3b2911d101160991b81520190565b90610ac1565b71222c202261747472696275746573223a205b60701b815260120190565b615d7d60f01b815260020190565b03916121e9601f1993848101835282610a15565b612f67565b6040517f646174613a6170706c69636174696f6e2f6a736f6e3b6261736536342c0000006020820152938491603d83016121a3565b03908101835282610a15565b5f198114611b6c5760010190565b634e487b7160e01b5f52603260045260245ffd5b60088110156122635760051b60240190565b61223d565b908160209103126103c6575161073881610709565b81601f820112156103c657805161229381610a55565b926122a16040519485610a15565b818452602082840101116103c65761073891602080850191016103ca565b916060838303126103c65782516122d5816105b0565b9260208101516122e481610677565b9260408201516001600160401b0381116103c657610738920161227d565b5f9081526008602052604081208180526020526040812054908115612325575090565b604091506009602052205490565b5f52600860205260405f2060025f5260205260405f205480156123535790565b50600960205260405f205490565b5f52600860205260405f2060015f5260205260405f205480156123535790565b5f52600860205260405f2060035f5260205260405f205480156123535790565b5f52600860205260405f2060045f5260205260405f205480156123535790565b5f52600860205260405f2060055f5260205260405f205480156123535790565b5f52600860205260405f2060065f5260205260405f205480156123535790565b5f52600860205260405f2060075f5260205260405f205480156123535790565b5f5260086020526124358160405f206106b6565b54908115612441575090565b61244b915061069f565b5490565b6040519061245c826109bf565b5f8252565b91906040838203126103c65782516001600160401b0381116103c65760209161248b91850161227d565b92015161073881610677565b6124a090612302565b8015612502576006546040516379b68ad360e01b815260048101929092525f90829060249082906001600160a01b03165afa908115610ff4575f916124e3575090565b6124fe913d8091833e6124f68183610a15565b810190612461565b5090565b5060405161250f816109bf565b5f815290565b6124a090612333565b6124a090612361565b6124a090612381565b6124a0906123a1565b6124a0906123c1565b6124a0906123e1565b6124a090612401565b906124a091612421565b6107389061256b81612d68565b906125aa6028604051809467416d696e616c202360c01b602083015261259a81518092602086860191016103ca565b8101036008810185520183610a15565b6125f161267f6125bc6121e984612742565b6040517f646174613a696d6167652f7376672b786d6c3b6261736536342c0000000000006020820152928391603a83016121a3565b0392612605601f1994858101855284610a15565b61267a604051948561266e602082016041907f54686973204e465420726570726573656e74732061206469676974616c20706581527f742e2054686973204e46542063616e6e6f74206265207472616e7366657265646020820152601760f91b60408201520190565b03908101865285610a15565b6128fb565b91612688610a36565b9384526020840152604083015260608201526120fb565b6040519060a082018281106001600160401b038211176109da576040908152606483527f3c73766720786d6c6e733d22687474703a2f2f7777772e77332e6f72672f323060208401527f30302f73766722207072657365727665417370656374526174696f3d22784d69908301527f6e594d696e206d656574222076696577426f783d2230203020313030302031306060830152631818111f60e11b6080830152565b61073861278b6121a3926122236128cc61275a61269f565b926128c06127b06128b46128a661277085612497565b9461283160409687519b8c916121a360209d8e850190610ac1565b039a61279f601f199c8d8101835282610a15565b61282588519687928d840190610ac1565b7f3c672069643d22736861646f77223e3c656c6c697073652066696c6c3d22233381527f633364353522206f7061636974793d22302e3522202063783d2235303522206360208201527f793d22393731222072783d22313633222072793d223132222f3e3c2f673e00006040820152605e0190565b038b8101865285610a15565b6128518961282561284184612515565b6121a38a51988994850190610ac1565b612861896128256128418461251e565b6128718961282561284184612527565b6128818961282561284184612530565b6128918961282561284184612539565b6128a18961282561284184612542565b61254b565b84519a8b9389850190610ac1565b03868101895288610a15565b51958693840190610ac1565b651e17b9bb339f60d11b815260060190565b604051906128eb826109df565b60018252605b60f81b6020830152565b6129036128de565b905f805b600881106129475750505061073861292c916129396040519384926020840190610ac1565b605d60f81b815260010190565b03601f198101835282610a15565b61295081610681565b61295a8184612421565b8061296f575b5061296a9061222f565b612907565b600654919491612987906001600160a01b0316611683565b604080516331a9108f60e11b81526004810184905260209391928490829060249082905afa908115610ff4578691612ae3575b506129c488612c33565b9188612ab2575b6129d490612d68565b906129e7906001600160a01b0316612e5c565b925194859485016129f791610ac1565b6e3d913a3930b4ba2fba3cb832911d1160891b8152600f01612a199083610ac1565b70222c2276616c7565223a2247656e65202360781b8152601101612a3c91610ac1565b61227d60f01b81526002016f163d913a3930b4ba2fba3cb832911d1160811b8152601001612a6991610ac1565b721021b932b0ba37b91116113b30b63ab2911d1160691b8152601301612a8e91610ac1565b61227d60f01b815260020103601f1981018252612aab9082610a15565b925f612960565b94612ace612adb6129d49261293987519384928a840190610ac1565b600b60fa1b815260010190565b9590506129cb565b612afa9150843d861161115c5761114e8183610a15565b5f6129ba565b60405190612b0d826109df565b600a825269109858dad9dc9bdd5b9960b21b6020830152565b60405190612b33826109df565b600482526341726d7360e01b6020830152565b60405190612b53826109df565b600482526315185a5b60e21b6020830152565b60405190612b73826109df565b60048252634561727360e01b6020830152565b60405190612b93826109df565b6004825263426f647960e01b6020830152565b60405190612bb3826109df565b60048252634661636560e01b6020830152565b60405190612bd3826109df565b600582526409adeeae8d60db1b6020830152565b60405190612bf4826109df565b600d82526c4d697363656c6c616e656f757360981b6020830152565b60405190612c1d826109df565b60078252662ab735b737bbb760c91b6020830152565b612c3c81610681565b8015612cff57612c4b81610681565b60018114612cf657612c5c81610681565b60028114612ced57612c6d81610681565b60038114612ce457612c7e81610681565b60048114612cdb57612c8f81610681565b60058114612cd257612ca081610681565b60068114612cc95780612cb4600792610681565b14612cc157610738612c10565b610738612be7565b50610738612bc6565b50610738612ba6565b50610738612b86565b50610738612b66565b50610738612b46565b50610738612b26565b50610738612b00565b90612d1282610a55565b612d1f6040519182610a15565b8281528092612d30601f1991610a55565b0190602036910137565b8051156122635760200190565b8051600110156122635760210190565b908151811015612263570160200190565b8015612de757805f8082805b612dcf5750612d8281612d08565b935b612d8e5750505090565b5f198101908111611b6c578092600a9160308383068101809111611b6c5760f81b6001600160f81b031916841a90612dc69087612d57565b53049182612d84565b9250612ddc600a9161222f565b920480849391612d74565b50604051612df4816109df565b60018152600360fc1b602082015290565b8015611b6c575f190190565b15612e1857565b606460405162461bcd60e51b815260206004820152602060248201527f537472696e67733a20686578206c656e67746820696e73756666696369656e746044820152fd5b60405190612e69826109fa565b602a825260403660208401376030612e8083612d3a565b536078612e8c83612d47565b536029905b60018211612ead5761073891506001600160a01b031615612e11565b600f811690601082101561226357612ef2916f181899199a1a9b1b9c1cb0b131b232b360811b901a612edf8486612d57565b5360041c60016001609c1b031691612e05565b90612e91565b60405190606082018281106001600160401b038211176109da57604052604082527f6768696a6b6c6d6e6f707172737475767778797a303132333435363738392b2f6040837f4142434445464748494a4b4c4d4e4f505152535455565758595a61626364656660208201520152565b80511561305057612f76612ef8565b612f92612f8d612f868451611bb8565b6003900490565b611b71565b91612fa4612f9f84611bc6565b612d08565b92835280815182019060208501935b828210612ff457505050600390510680600114612fe357600214612fd5575090565b603d60f81b5f199091015290565b50613d3d60f01b6001199091015290565b90919360049060038094019384516001603f81818460121c16880101519260f893841b8652828282600c1c1689010151841b8387015282828260061c1689010151841b60028701521686010151901b9082015201939190612fb3565b5061073861244f56fea264697066735822122072c7e7ffc84a215d73413559959851182c33ff1c97dea0ff6d109af06284598264736f6c63430008140033290decd9548b62a8d60345a988386fc84ba6bc95484008f6362f93160ef3e563e90b7bceb6e7df5418fb78d8ee546e97c83a08bbccc01a0644d599ccd2a7c2e0","linkReferences":{}},"methodIdentifiers":{"aminalGenes(uint256,uint8)":"0b348a43","aminalIndex()":"e1730b64","approve(address,uint256)":"095ea7b3","balanceOf(address)":"70a08231","breedableWith(address)":"442701ce","breeding()":"28556bbb","callSkill(address,bytes)":"7ad72c9a","constructTokenURI((string,string,string,string))":"92b4c81b","dadAddress()":"ce412500","dataURI(uint256)":"5ac1e3bb","defaultGenes(uint8)":"64f508d6","disableBreedableWith(address)":"ebaf6fec","energy()":"aa849244","factory()":"c45a0155","feed()":"37a7b7d8","geneFactory()":"b473522c","generateAttributesList(uint256)":"07c3c948","genesNFT()":"0847335c","getAminalGene(uint256,uint8)":"a15e64c1","getAminalVisualsByID(uint256)":"938a3458","getApproved(uint256)":"081812fc","getEnergy()":"c02e7057","getLoveByUser(address)":"4562bd6f","getParents()":"dd6133b5","getSkillProperty(address,string)":"b0f4843f","getTotalLove()":"b1b894f2","getTraitSVG(uint256,uint8)":"5b35f2dc","getVisuals()":"37fd6858","isApprovedForAll(address,address)":"e985e9c5","isBreedableWith(address)":"0a2db360","loveDrivenPrice(address)":"208f45e6","lovePerUser(address)":"56946e5f","loveVRGDA()":"8b9595ff","momAddress()":"465f2cdf","name()":"06fdde03","ownerOf(uint256)":"6352211e","safeTransferFrom(address,address,uint256)":"42842e0e","safeTransferFrom(address,address,uint256,bytes)":"b88d4fde","setAminalGenes(uint256,uint256[8])":"d1df77d2","setApprovalForAll(address,bool)":"a22cb465","setBreedableWith(address,bool)":"1636a95c","setBreeding(bool)":"5e9de302","setDefaultGene(uint8,uint256)":"fc581ef7","setSkillProperty(string,bytes32)":"28f14b44","skillProperties(address,string)":"3bc848bc","squeak(uint256)":"5083886b","supportsInterface(bytes4)":"01ffc9a7","symbol()":"95d89b41","tokenURI(uint256)":"c87b56dd","totalLove()":"69e658fc","transferEnergyToOwner(uint256,address)":"8e66b679","transferFrom(address,address,uint256)":"23b872dd","visuals()":"5d405330"},"id":46}