{"abi":[{"type":"constructor","inputs":[],"stateMutability":"nonpayable"},{"type":"function","name":"aminalsByIndex","inputs":[{"name":"","type":"uint256","internalType":"uint256"}],"outputs":[{"name":"","type":"address","internalType":"address"}],"stateMutability":"view"},{"type":"function","name":"breedAminals","inputs":[{"name":"aminalOne","type":"address","internalType":"address"},{"name":"aminalTwo","type":"address","internalType":"address"}],"outputs":[{"name":"auctionId","type":"uint256","internalType":"uint256"}],"stateMutability":"payable"},{"type":"function","name":"geneAuction","inputs":[],"outputs":[{"name":"","type":"address","internalType":"contract GeneAuction"}],"stateMutability":"view"},{"type":"function","name":"genes","inputs":[],"outputs":[{"name":"","type":"address","internalType":"contract Genes"}],"stateMutability":"view"},{"type":"function","name":"getAminalByIndex","inputs":[{"name":"index","type":"uint256","internalType":"uint256"}],"outputs":[{"name":"","type":"address","internalType":"address"}],"stateMutability":"view"},{"type":"function","name":"getAminalVisualsByAddress","inputs":[{"name":"aminalAddress","type":"address","internalType":"address"}],"outputs":[{"name":"","type":"tuple","internalType":"struct IAminalStructs.Visuals","components":[{"name":"backId","type":"uint256","internalType":"uint256"},{"name":"armId","type":"uint256","internalType":"uint256"},{"name":"tailId","type":"uint256","internalType":"uint256"},{"name":"earsId","type":"uint256","internalType":"uint256"},{"name":"bodyId","type":"uint256","internalType":"uint256"},{"name":"faceId","type":"uint256","internalType":"uint256"},{"name":"mouthId","type":"uint256","internalType":"uint256"},{"name":"miscId","type":"uint256","internalType":"uint256"}]}],"stateMutability":"view"},{"type":"function","name":"initialAminalSpawned","inputs":[],"outputs":[{"name":"","type":"bool","internalType":"bool"}],"stateMutability":"view"},{"type":"function","name":"initialize","inputs":[{"name":"_geneAuction","type":"address","internalType":"address"},{"name":"_aminalProposals","type":"address","internalType":"address"},{"name":"_Genes","type":"address","internalType":"address"}],"outputs":[],"stateMutability":"nonpayable"},{"type":"function","name":"isAminal","inputs":[{"name":"","type":"address","internalType":"address"}],"outputs":[{"name":"","type":"bool","internalType":"bool"}],"stateMutability":"view"},{"type":"function","name":"loveVRGDA","inputs":[],"outputs":[{"name":"","type":"address","internalType":"contract AminalVRGDA"}],"stateMutability":"view"},{"type":"function","name":"owner","inputs":[],"outputs":[{"name":"","type":"address","internalType":"address"}],"stateMutability":"view"},{"type":"function","name":"proposals","inputs":[],"outputs":[{"name":"","type":"address","internalType":"contract AminalProposals"}],"stateMutability":"view"},{"type":"function","name":"renounceOwnership","inputs":[],"outputs":[],"stateMutability":"nonpayable"},{"type":"function","name":"setup","inputs":[],"outputs":[],"stateMutability":"nonpayable"},{"type":"function","name":"spawnAminal","inputs":[{"name":"momAddress","type":"address","internalType":"address"},{"name":"dadAddress","type":"address","internalType":"address"},{"name":"winningGeneIds","type":"uint256[8]","internalType":"uint256[8]"}],"outputs":[{"name":"","type":"address","internalType":"address"}],"stateMutability":"nonpayable"},{"type":"function","name":"spawnInitialAminals","inputs":[{"name":"_visuals","type":"tuple[]","internalType":"struct IAminalStructs.Visuals[]","components":[{"name":"backId","type":"uint256","internalType":"uint256"},{"name":"armId","type":"uint256","internalType":"uint256"},{"name":"tailId","type":"uint256","internalType":"uint256"},{"name":"earsId","type":"uint256","internalType":"uint256"},{"name":"bodyId","type":"uint256","internalType":"uint256"},{"name":"faceId","type":"uint256","internalType":"uint256"},{"name":"mouthId","type":"uint256","internalType":"uint256"},{"name":"miscId","type":"uint256","internalType":"uint256"}]}],"outputs":[],"stateMutability":"nonpayable"},{"type":"function","name":"totalAminals","inputs":[],"outputs":[{"name":"","type":"uint256","internalType":"uint256"}],"stateMutability":"view"},{"type":"function","name":"transferOwnership","inputs":[{"name":"newOwner","type":"address","internalType":"address"}],"outputs":[],"stateMutability":"nonpayable"},{"type":"event","name":"AminalSpawned","inputs":[{"name":"aminalAddress","type":"address","indexed":true,"internalType":"address"},{"name":"aminalIndex","type":"uint256","indexed":true,"internalType":"uint256"},{"name":"mom","type":"uint256","indexed":true,"internalType":"uint256"},{"name":"dad","type":"uint256","indexed":false,"internalType":"uint256"},{"name":"backId","type":"uint256","indexed":false,"internalType":"uint256"},{"name":"armId","type":"uint256","indexed":false,"internalType":"uint256"},{"name":"tailId","type":"uint256","indexed":false,"internalType":"uint256"},{"name":"earsId","type":"uint256","indexed":false,"internalType":"uint256"},{"name":"bodyId","type":"uint256","indexed":false,"internalType":"uint256"},{"name":"faceId","type":"uint256","indexed":false,"internalType":"uint256"},{"name":"mouthId","type":"uint256","indexed":false,"internalType":"uint256"},{"name":"miscId","type":"uint256","indexed":false,"internalType":"uint256"}],"anonymous":false},{"type":"event","name":"BreedAminal","inputs":[{"name":"aminalOne","type":"address","indexed":true,"internalType":"address"},{"name":"aminalTwo","type":"address","indexed":true,"internalType":"address"},{"name":"auctionId","type":"uint256","indexed":false,"internalType":"uint256"}],"anonymous":false},{"type":"event","name":"Initialized","inputs":[{"name":"version","type":"uint8","indexed":false,"internalType":"uint8"}],"anonymous":false},{"type":"event","name":"OwnershipTransferred","inputs":[{"name":"previousOwner","type":"address","indexed":true,"internalType":"address"},{"name":"newOwner","type":"address","indexed":true,"internalType":"address"}],"anonymous":false}],"bytecode":{"object":"0x60808060405234610028576100133361002c565b61001c3361002c565b615ac4908161008a8239f35b5f80fd5b5f805462010000600160b01b03198116601084811b62010000600160b01b03169190911783556001600160a01b039384169391901c16907f8be0079c531659141344cd1fd0a4f28419497f9722a3daafe3b4186f6b6457e09080a356fe608080604052600436101562000013575f80fd5b5f3560e01c908162a413721462000ed857508063313c97211462000d5d5780635419fa401462000d2757806355ef20e61462000cfd5780635b63648b1462000cbc5780635f16ec521462000c92578063715018a61462000c325780637828a4581462000bfe5780637b5cbc8d14620008855780638b9595ff146200085b5780638d549a2514620005105780638da5cb5b14620004e35780639351f7b414620004c457806395504402146200049a578063ba0bba4014620003d1578063c0c53b8b1462000251578063ce17823914620001d75763f2fde38b14620000f4575f80fd5b34620001d3576020366003190112620001d3576200011162000efc565b6200011b62000f75565b6001600160a01b038181169182156200017f575f805462010000600160b01b03198116601093841b62010000600160b01b031617825590911c91909116907f8be0079c531659141344cd1fd0a4f28419497f9722a3daafe3b4186f6b6457e09080a3005b60405162461bcd60e51b815260206004820152602660248201527f4f776e61626c653a206e6577206f776e657220697320746865207a65726f206160448201526564647265737360d01b6064820152608490fd5b5f80fd5b34620001d3576020366003190112620001d35760043560015481101562000216575f526004602052602060018060a01b0360405f205416604051908152f35b60405162461bcd60e51b8152602060048201526013602482015272496e646578206f7574206f6620626f756e647360681b6044820152606490fd5b34620001d3576060366003190112620001d3576200026e62000efc565b6200027862000f13565b6001600160a01b03604435818116939290849003620001d3575f549360ff8560081c161594858096620003c3575b8015620003aa575b156200034e5760ff1981166001175f55856200033c575b50620002d062000f75565b826bffffffffffffffffffffffff60a01b9416846002541617600255836006541617600655169060055416176005556200030657005b61ff00195f54165f557f7f26b83ff96e1f2b6a682f133852f6798a09c465da95921460cefb3847402498602060405160018152a1005b61ffff1916610101175f5585620002c5565b60405162461bcd60e51b815260206004820152602e60248201527f496e697469616c697a61626c653a20636f6e747261637420697320616c72656160448201526d191e481a5b9a5d1a585b1a5e995960921b6064820152608490fd5b50303b158015620002ae5750600160ff821614620002ae565b50600160ff821610620002a6565b34620001d3575f366003190112620001d357620003ed62000f75565b604051610f5e8082019082821067ffffffffffffffff8311176200048657608091839162004b118339670de0b6b3a7640000815267016345785d8a0000602082015268056bc75e2d6310000060408201526801158e460913d0000060608201520301905ff080156200047b57600780546001600160a01b0319166001600160a01b0392909216919091179055005b6040513d5f823e3d90fd5b634e487b7160e01b5f52604160045260245ffd5b34620001d3575f366003190112620001d3576002546040516001600160a01b039091168152602090f35b34620001d3575f366003190112620001d3576020600154604051908152f35b34620001d3575f366003190112620001d3575f5460405160109190911c6001600160a01b03168152602090f35b34620001d3576020366003190112620001d35760043567ffffffffffffffff8111620001d35736602382011215620001d35767ffffffffffffffff816004013511620001d357366024826004013560081b83010111620001d3576200057462000f75565b60025460ff8160a01c16620008165760ff60a01b1916600160a01b176002555f5b81600401358110620005a357005b620005b78183600401356024850162000fdf565b35906020620005cf8285600401356024870162000fdf565b0135916040620005e88386600401356024880162000fdf565b0135926060620006018487600401356024890162000fdf565b01359160806200061a85886004013560248a0162000fdf565b01359460a06200063386896004013560248b0162000fdf565b01359260c06200064c878a6004013560248c0162000fdf565b01359360e062000665888b6004013560248d0162000fdf565b0135604051620006758162001004565b8581528360208201528460408201528760608201528960808201528260a08201528660c08201528160e082015260015460018060a01b036007541690604051928361341d81011067ffffffffffffffff61341d860111176200048657620006ff9061341d620016f486393061341d86019081525f6020820181905260408201526060019062000f2a565b61016061341d8401015261018061341d830101526101a08161341d81010301905ff09586156200047b576001600160a01b0387165f818152600360209081526040808320805460ff1916600190811790915580548452600490925290912080546001600160a01b031916909217909155546200077b9062000fd0565b9283600155835f198101116200080257620007fc9a5f997fd279e76d1945c3c45bbef7a1437671c036bd01d72d3bffa29d9270cdaeef74db97610120976040519a8d8c5260208c015260408b015260608a0152608089015260a088015260c087015260e08601526101008501528519019360018060a01b031692a462000fd0565b62000595565b634e487b7160e01b5f52601160045260245ffd5b60405162461bcd60e51b815260206004820152601f60248201527f496e697469616c20416d696e616c7320616c726561647920737061776e6564006044820152606490fd5b34620001d3575f366003190112620001d3576007546040516001600160a01b039091168152602090f35b34620001d357610140366003190112620001d357620008a362000efc565b620008ad62000f13565b903661014411620001d3576002546001600160a01b0316330362000bad57604051620008d98162001004565b60443581526064356020820152608435604082015260a435606082015260c435608082015260e43560a08201526101043560c08201526101243560e082015260015460018060a01b036007541690604051928361341d81011067ffffffffffffffff61341d8601111762000486576200097f9061341d620016f486393061341d86019081526001600160a01b038781166020830152881660408201526060019062000f2a565b61016061341d8401015261018061341d830101526101a08161341d81010301905ff09081156200047b576001600160a01b0382165f818152600360209081526040808320805460ff1916600190811790915580548452600490925290912080546001600160a01b03191690921790915554620009fb9062000fd0565b9081600155815f1981011162000802576001600160a01b03811662000b3a57505f905b6001600160a01b03841662000ac457602093505f905b604080519283526044358684015260643590830152608435606083015260a435608083015260c43560a083015260e43560c08301526101043560e0830152610124356101008301525f1901906001600160a01b038416907fd279e76d1945c3c45bbef7a1437671c036bd01d72d3bffa29d9270cdaeef74db9061012090a46040516001600160a01b039091168152f35b60405163385cc2d960e21b815293602090859060049082906001600160a01b03165afa80156200047b575f9062000b01575b602094509062000a34565b506020843d60201162000b31575b8162000b1e6020938362001022565b81010312620001d3576020935162000af6565b3d915062000b0f565b60405163385cc2d960e21b815290602090829060049082906001600160a01b03165afa9081156200047b575f9162000b75575b509062000a1e565b90506020813d60201162000ba4575b8162000b936020938362001022565b81010312620001d357518462000b6d565b3d915062000b84565b60405162461bcd60e51b815260206004820152602360248201527f4f6e6c792061756374696f6e20636f6e74726163742063616e2063616c6c207460448201526268697360e81b6064820152608490fd5b34620001d3576020366003190112620001d3576004355f526004602052602060018060a01b0360405f205416604051908152f35b34620001d3575f366003190112620001d35762000c4e62000f75565b5f805462010000600160b01b03198116825560101c6001600160a01b03167f8be0079c531659141344cd1fd0a4f28419497f9722a3daafe3b4186f6b6457e08280a3005b34620001d3575f366003190112620001d3576006546040516001600160a01b039091168152602090f35b34620001d3576020366003190112620001d3576001600160a01b0362000ce162000efc565b165f526003602052602060ff60405f2054166040519015158152f35b34620001d3575f366003190112620001d3576005546040516001600160a01b039091168152602090f35b6040366003190112620001d357602062000d5562000d4462000efc565b62000d4e62000f13565b906200105f565b604051908152f35b34620001d357602080600319360112620001d35762000d7b62000efc565b5f60e060405162000d8c8162001004565b82815282858201528260408201528260608201528260808201528260a08201528260c0820152015260018060a01b0316805f526003825260ff60405f2054161562000e9a576040519182916306ffad0b60e31b83528260046101009586935afa9182156200047b575f9262000e0f575b505062000e0d604051809262000f2a565bf35b9091508281813d831162000e92575b62000e2a818362001022565b81010312620001d35760e0906040519262000e458462001004565b81518452808201519084015260408101516040840152606081015160608401526080810151608084015260a081015160a084015260c081015160c0840152015160e0820152828062000dfc565b503d62000e1e565b60405162461bcd60e51b8152600481018390526016602482015275139bdd08185b88105b5a5b985b0818dbdb9d1c9858dd60521b6044820152606490fd5b34620001d3575f366003190112620001d35760209060ff60025460a01c1615158152f35b600435906001600160a01b0382168203620001d357565b602435906001600160a01b0382168203620001d357565b60e08091805184526020810151602085015260408101516040850152606081015160608501526080810151608085015260a081015160a085015260c081015160c08501520151910152565b5f5460101c6001600160a01b0316330362000f8c57565b606460405162461bcd60e51b815260206004820152602060248201527f4f776e61626c653a2063616c6c6572206973206e6f7420746865206f776e65726044820152fd5b5f198114620008025760010190565b919081101562000ff05760081b0190565b634e487b7160e01b5f52603260045260245ffd5b610100810190811067ffffffffffffffff8211176200048657604052565b90601f8019910116810190811067ffffffffffffffff8211176200048657604052565b90816020910312620001d357518015158103620001d35790565b66038d7ea4c680003410620016bb575f9160018060a01b03809216908184526020906003825260409060ff828720541680620016a8575b156200166457841693815190634562bd6f60e01b908183526004903382850152602493868186818b5afa801562001349578a906200162c575b600a915010620015f857845162516d9b60e51b8082528382018a905290878187818c5afa908115620012c5578b91620015d6575b50806200158b575b15620014505750845163c02e705760e01b80825290878185818c5afa8015620012c5578b906200141c575b600a915010159081620013be575b501562001388578451928084523383850152868486818b5afa93841562001349578a9462001353575b5085519081523383820152868186818c5afa90811562001349578a9162001316575b5083018093116200130457600254169084519163385cc2d960e21b93848452878484818c5afa938415620012c5578b94620012cf575b508651948552878584818d5afa948515620012c557918b9189959493839762001286575b5060649495968951988997889663cda4beef60e01b885287015285015260448401525af19586156200127b579562001236575b50905f8051602062005a6f8339815191529151858152a390565b918091955082813d831162001273575b62001252818362001022565b81010312620001d3579051935f8051602062005a6f8339815191526200121c565b503d62001246565b8251903d90823e3d90fd5b9250939490955081813d8311620012bd575b620012a4818362001022565b81010312620001d35751938793928b91906064620011e9565b503d62001298565b87513d8d823e3d90fd5b9093508781813d8311620012fc575b620012ea818362001022565b81010312620001d35751925f620011c5565b503d620012de565b634e487b7160e01b8952601182528389fd5b90508681813d831162001341575b62001330818362001022565b81010312620001d357515f6200118f565b503d62001324565b86513d8c823e3d90fd5b9093508681813d831162001380575b6200136e818362001022565b81010312620001d35751925f6200116d565b503d62001362565b845162461bcd60e51b8152808301879052601181860152704e6f7420656e6f75676820656e6572677960781b6044820152606490fd5b90508551908152868184818c5afa801562001349578a90620013e8575b600a915010155f62001144565b508681813d831162001414575b62001401818362001022565b81010312620001d357600a9051620013db565b503d620013f5565b508781813d831162001448575b62001435818362001022565b81010312620001d357600a905162001136565b503d62001429565b91939250508351908152868382015284818381895afa9081156200151557889162001557575b506200152357843b156200151f57825163538ce28f60e01b8152338382015281810187905260016044820152918783606481838a5af180156200151557620014d5575b505050905f8051602062005a6f8339815191529151858152a390565b67ffffffffffffffff8398949811620015045750508552935f8051602062005a6f8339815191525f80620014b9565b634e487b7160e01b84526041905282fd5b84513d8a823e3d90fd5b8680fd5b60649360119293519362461bcd60e51b855284015282015270416c726561647920627265656461626c6560781b6044820152fd5b6200157c9150853d871162001583575b62001573818362001022565b81019062001045565b5f62001476565b503d62001567565b5085518181528884820152878187818d5afa908115620012c5578b91620015b4575b506200110b565b620015cf9150883d8a11620015835762001573818362001022565b5f620015ad565b620015f19150883d8a11620015835762001573818362001022565b5f62001103565b845162461bcd60e51b8152808301879052600f818601526e4e6f7420656e6f756768206c6f766560881b6044820152606490fd5b508681813d83116200165c575b62001645818362001022565b810103126200165857600a9051620010cf565b8980fd5b503d62001639565b815162461bcd60e51b815260048101849052601860248201527f496e76616c696420416d696e616c2061646472657373657300000000000000006044820152606490fd5b50848116865260ff828720541662001096565b60405162461bcd60e51b815260206004820152601060248201526f2737ba1032b737bab3b41032ba3432b960811b6044820152606490fdfe6101208060405234620006ac57806200341d8038038091620000228285620006cc565b83398101036101a08112620006ac576200003c82620006f0565b6200004a60208401620006f0565b926200005960408201620006f0565b906101008094605f190112620006ac576040518481016001600160401b038111828210176200054d57604052606082015181526080820151602082015260a0820151604082015260c0820151606082015260e082015160808201528482015160a082015261012082015160c082015261014082015160e0820152620000e86101806101608401519301620006f0565b604051632f8b762960e11b8152969093906020886004816001600160a01b038a165afa978815620006a1575f986200064d575b50604051976200012b89620006b0565b6006895265105b5a5b985b60d21b60208a0152604051986200014d8a620006b0565b60068a526510535253905360d21b60208b01528051906001600160401b0382116200054d575f5490600182811c9216801562000642575b60208310146200052e5781601f849311620005e5575b50602090601f83116001146200056d575f9262000561575b50508160011b915f199060031b1c1916175f555b88516001600160401b0381116200054d57600154600181811c9116801562000542575b60208210146200052e57601f8111620004ca575b506020601f82116001146200045857819060e09798999a9b5f926200044c575b50508160011b915f199060031b1c1916176001555b6001600655600780546001600160a01b03199081166001600160a01b0393841617909155600880549091169055878116608081815260a093845260c094855285516009556020860151600a556040860151600b556060860151600c55850151600d5591840151600e5591830151600f55929091015160105560e09290925291168352603260125515620004085760015f5260026020525f80516020620033fd83398151915254620002f0906001600160a01b031615155b1562000705565b60015f5260026020525f80516020620033fd833981519152546200031f906001600160a01b03161515620002e9565b6001600160a01b03165f8181526003602090815260408083208054600190810190915580845260029092525f80516020620033fd83398151915280546001600160a01b03191685179055519290917fddf252ad1be2c89b69c2b068fc378daa952ba7f163c4a11628f55a4df523b3ef8180a4612c8a9182620007538339608051828181610aeb01528181610c6c01528181610e1c015281816115440152611764015260a05182818161099f0152611658015260c05182818161160b015261167d015260e051828181611596015281816116bb0152611e21015251818181610dc301526119060152f35b606460405162461bcd60e51b815260206004820152602060248201527f4552433732313a206d696e7420746f20746865207a65726f20616464726573736044820152fd5b015190505f806200021d565b60015f5260205f209a5f5b601f1984168110620004b157509a829160e098999a9b9c600194601f1981161062000498575b505050811b0160015562000232565b01515f1960f88460031b161c191690555f808062000489565b828201518d556001909c019b6020928301920162000463565b60015f527fb10e2d527612073b26eecdfd717e6a320cf44b4afac2b0732d9fcbe2b7fa0cf6601f830160051c81016020841062000526575b601f830160051c820181106200051a575050620001fd565b5f815560010162000502565b508062000502565b634e487b7160e01b5f52602260045260245ffd5b90607f1690620001e9565b634e487b7160e01b5f52604160045260245ffd5b015190505f80620001b2565b5f80805293505f80516020620033dd83398151915291905b601f1984168510620005c9576001945083601f19811610620005b0575b505050811b015f55620001c6565b01515f1960f88460031b161c191690555f8080620005a2565b8181015183556020948501946001909301929091019062000585565b5f80529091505f80516020620033dd833981519152601f840160051c8101602085106200063a575b90849392915b601f830160051c820181106200062b5750506200019a565b5f815585945060010162000613565b50806200060d565b91607f169162000184565b6020989198813d60201162000698575b816200066c60209383620006cc565b81010312620006945751906001600160a01b0382168203620006915750965f6200011b565b80fd5b5080fd5b3d91506200065d565b6040513d5f823e3d90fd5b5f80fd5b604081019081106001600160401b038211176200054d57604052565b601f909101601f19168101906001600160401b038211908210176200054d57604052565b51906001600160a01b0382168203620006ac57565b156200070d57565b60405162461bcd60e51b815260206004820152601c60248201527f4552433732313a20746f6b656e20616c7265616479206d696e746564000000006044820152606490fdfe60806040526004361015610022575b3615610018575f80fd5b610020611e86565b005b5f3560e01c806301ffc9a7146102e257806306fdde03146102dd57806307c3c948146102d8578063081812fc146102d3578063095ea7b3146102ce5780630a2db360146102a6578063208f45e6146102c957806323b872dd146102ab57806328556bbb146102c457806328f14b44146102bf57806337a7b7d8146102ba57806337fd6858146102b55780633bc848bc146102b057806342842e0e146102ab578063442701ce146102a65780634562bd6f14610292578063465f2cdf146102a15780635083886b1461029c578063538ce28f1461029757806356946e5f146102925780635ac1e3bb1461028d5780635d405330146102885780635e9de302146102835780635f16ec521461027e5780636352211e1461027957806370a08231146102745780638b9595ff1461026f5780638e66b6791461026a57806392b4c81b14610265578063938a34581461026057806395d89b411461025b578063a22cb46514610256578063b0f4843f14610251578063b1b894f21461024c578063b473522c14610247578063b88d4fde14610242578063c02e70571461023d578063c160508f14610238578063c45a015514610233578063c87b56dd1461022e578063ce41250014610229578063dd6133b514610224578063e1730b641461021f578063e985e9c51461021a5763ebaf6fec0361000e57611738565b6116de565b6116a4565b61163a565b6115f6565b611573565b61152f565b61120e565b6111f1565b611194565b61116c565b61114f565b61110f565b6110ac565b610fed565b610fce565b610f0b565b610df2565b610dae565b610d0b565b610cd6565b610cae565b610c49565b610bf0565b610bd1565b61094f565b610aa5565b6109ce565b61098a565b610599565b610611565b6108d3565b610705565b6106e6565b61068c565b61063d565b6105d9565b610523565b6104c8565b6104a9565b6103a1565b346103505760203660031901126103505760043563ffffffff60e01b8116809103610350576020906380ac58cd60e01b811490811561033f575b811561032e575b506040519015158152f35b6301ffc9a760e01b1490505f610323565b635b5e139f60e01b8114915061031c565b5f80fd5b5f5b8381106103655750505f910152565b8181015183820152602001610356565b604091602082526103958151809281602086015260208686019101610354565b601f01601f1916010190565b34610350575f806003193601126104a657604051908080549060019180831c9280821692831561049c575b60209283861085146104885785885260208801949081156104675750600114610410575b61040c87610400818903826107ed565b60405191829182610375565b0390f35b5f805294509192917f290decd9548b62a8d60345a988386fc84ba6bc95484008f6362f93160ef3e5635b83861061045657505050910190506104008261040c5f806103f0565b80548587015294820194810161043a565b60ff191685525050505090151560051b0190506104008261040c5f806103f0565b634e487b7160e01b82526022600452602482fd5b93607f16936103cc565b80fd5b346103505760203660031901126103505761040c6104006004356124bb565b34610350576020366003190112610350576020600435805f526002825260018060a01b03906104fe8260405f20541615156117a3565b5f526004825260405f205416604051908152f35b6001600160a01b0381160361035057565b346103505760403660031901126103505761053f600435610512565b60405162461bcd60e51b815260206004820152602c60248201527f416d696e616c732061726520736f756c626f756e6420616e642063616e6e6f7460448201526b08189948185c1c1c9bdd995960a21b6064820152608490fd5b34610350576020366003190112610350576004356105b681610512565b60018060a01b03165f526014602052602060ff60405f2054166040519015158152f35b346103505760203660031901126103505760206106006004356105fb81610512565b611c56565b6001600160801b0360405191168152f35b346103505760603660031901126103505761062d600435610512565b610638602435610512565b611b6c565b34610350575f36600319011261035057602060ff601354166040519015158152f35b9181601f84011215610350578235916001600160401b038311610350576020838186019501011161035057565b34610350576040366003190112610350576004356001600160401b038111610350576106bc90369060040161065f565b90335f52601660205260405f20918060405192833781019182526020816024359303019020555f80f35b5f3660031901126103505760206106fd34336118c7565b604051908152f35b34610350575f3660031901126103505761071d611cf0565b5061040c610729611d3e565b6040519182918291909160e080610100830194805184526020810151602085015260408101516040850152606081015160608501526080810151608085015260a081015160a085015260c081015160c08501520151910152565b634e487b7160e01b5f52604160045260245ffd5b602081019081106001600160401b038211176107b257604052565b610783565b604081019081106001600160401b038211176107b257604052565b606081019081106001600160401b038211176107b257604052565b90601f801991011681019081106001600160401b038211176107b257604052565b60405190608082018281106001600160401b038211176107b257604052565b6040519061010082018281106001600160401b038211176107b257604052565b6001600160401b0381116107b257601f01601f191660200190565b9291926108748261084d565b9161088260405193846107ed565b829481845281830111610350578281602093845f960137010152565b9080601f83011215610350578160206108b993359101610868565b90565b906108cf60209282815194859201610354565b0190565b34610350576040366003190112610350576004356108f081610512565b602435906001600160401b03821161035057602061093d916109178294369060040161089e565b9060018060a01b03165f526016825260405f208260405194838680955193849201610354565b82019081520301902054604051908152f35b346103505760203660031901126103505760043561096c81610512565b60018060a01b03165f526015602052602060405f2054604051908152f35b34610350575f366003190112610350576040517f00000000000000000000000000000000000000000000000000000000000000006001600160a01b03168152602090f35b602036600319011261035057600435335f5260156020528060405f205410610a895760125490808210610a7757610a2e610a29827f1193f7f56bf6fc76e52b7edc5f2e6df4fd725f858cb71c88f75180a456b62619946118ba565b601255565b610a388133611bff565b335f90815260156020526040902054601154601254604080513381526020810195909552840192909252606083015260808201528060a081015b0390a1005b604051637962b8d160e11b8152600490fd5b604051631d67da9d60e21b8152600490fd5b8015150361035057565b3461035057606036600319011261035057600435610ac281610512565b60243590610acf82610512565b60443590610adc82610a9b565b6001600160a01b0390610b12337f0000000000000000000000000000000000000000000000000000000000000000841614611b20565b165f526015602052600a60405f205410610b9a5781610b7782610b667fff1ce36355064a2eac76e57c8220d5bac2c7bb2a6622c6158d32e681eedd0c1c9560018060a01b03165f52601460205260405f2090565b9060ff801983541691151516179055565b604080516001600160a01b03909216825291151560208201529081908101610a72565b60405162461bcd60e51b815260206004820152600f60248201526e4e6f7420656e6f756768206c6f766560881b6044820152606490fd5b346103505760203660031901126103505761040c610400600435611fce565b34610350575f36600319011261035057610100600954600a54600b54600c54600d54600e5491600f549360105495604051978852602088015260408701526060860152608085015260a084015260c083015260e0820152f35b3461035057602036600319011261035057600435610c6681610a9b565b610c9a337f00000000000000000000000000000000000000000000000000000000000000006001600160a01b031614611b20565b60ff80196013541691151516176013555f80f35b34610350575f366003190112610350576007546040516001600160a01b039091168152602090f35b34610350576020366003190112610350576004355f526002602052602060018060a01b0360405f2054166106fd8115156117a3565b3461035057602036600319011261035057600435610d2881610512565b6001600160a01b03168015610d57575f52600360205261040c60405f2054604051918291829190602083019252565b60405162461bcd60e51b815260206004820152602960248201527f4552433732313a2061646472657373207a65726f206973206e6f7420612076616044820152683634b21037bbb732b960b91b6064820152608490fd5b34610350575f366003190112610350576040517f00000000000000000000000000000000000000000000000000000000000000006001600160a01b03168152602090f35b3461035057604036600319011261035057600435602435610e1281610512565b6001600160a01b037f000000000000000000000000000000000000000000000000000000000000000081163381148015610ea2575b610e519150611db1565b60125491838310610a7757610e8a610a29857f704ef265c2f2ab6759468a12c34cb227d7b6431813a9e4921887b9e59d2a766d956118ba565b601254604080519586526020860191909152911692a2005b50602060049160405192838092634aa8220160e11b82525afa908115610f0657610e519183915f91610ed8575b50163314610e47565b610ef9915060203d8111610eff575b610ef181836107ed565b810190611d9c565b5f610ecf565b503d610ee7565b6117fe565b34610350576003196020368201126103505760048035916001600160401b039081841161035057608090843603011261035057610f4661080e565b908383013581811161035057610f619084369187010161089e565b8252602484013581811161035057610f7e9084369187010161089e565b6020830152604484013581811161035057610f9e9084369187010161089e565b604083015260648401359081116103505761040c9361040093610fc4923692010161089e565b6060820152611e9a565b346103505760203660031901126103505761040c610729600435611e16565b34610350575f806003193601126104a6576040519080600190815480831c928082169283156110a2575b6020928386108514610488578588526020880194908115610467575060011461104a5761040c87610400818903826107ed565b60015f5294509192917fb10e2d527612073b26eecdfd717e6a320cf44b4afac2b0732d9fcbe2b7fa0cf65b83861061109157505050910190506104008261040c5f806103f0565b805485870152948201948101611075565b93607f1693611017565b34610350576040366003190112610350576110c8600435610512565b61053f602435610a9b565b906040600319830112610350576004356110ec81610512565b91602435906001600160401b0382116103505761110b9160040161065f565b9091565b3461035057602080611120366110d3565b929160018060a01b03165f526016825260405f2083604051948593843782019081520301902054604051908152f35b34610350575f366003190112610350576020601154604051908152f35b34610350575f366003190112610350576008546040516001600160a01b039091168152602090f35b34610350576080366003190112610350576111b0600435610512565b6111bb602435610512565b6064356001600160401b0381116103505736602382011215610350576111eb903690602481600401359101610868565b50611b6c565b34610350575f366003190112610350576020601254604051908152f35b346103505761121c366110d3565b6002600654146114ea576002600655604080516301ffc9a760e01b8152632c64914760e01b6004808301919091529491936020936001600160a01b0384169391928581602481885afa5f91816114bb575b506112825786516341cec8ef60e11b81528890fd5b9187918793156114ab576112968186611a7f565b965f8551632c64914760e01b81528281806112b4878c8b8401611aab565b03818c5afa91928261147c575b505061147657506001945b612710808711611457575b50851561144e575b856012541061143e57335f9081526015602052604090208690541061142e57915f9291838093611313885180948193611ad2565b03925af161131f611af1565b501561142057507fa174d4b28588a1e67c4664065f10501b48a40ce0832b2808b7d8d8447824806f90611357610a29846012546118ba565b335f9081526015602052604090206113708482546118ba565b9055611386611381846011546118ba565b601155565b6012548151848152602081019190915233907ff0d7e17541a9f839498eae295103512e772b0b21b1ae353931cf36abca493c1490604090a2335f81815260156020908152604091829020548451878152918201527fd0060d8d42a8a2998a85ddbbcb0953bd40478b38a8382c9ebac4e9f38e3072779190a2519182526001600160e01b031993909316923391602090a46100206001600655565b9051631d88ab7b60e01b8152fd5b84516379e050d760e01b81528490fd5b84516340bdb3cd60e11b81528490fd5b600195506112df565b9095506012548181115f1461146f57505b94886112d7565b9050611468565b946112cc565b61149c929350803d106114a4575b61149481836107ed565b8101906117ef565b9089806112c1565b503d61148a565b83516341cec8ef60e11b81528390fd5b6114dc919250873d89116114e3575b6114d481836107ed565b810190611a6a565b905f61126d565b503d6114ca565b60405162461bcd60e51b815260206004820152601f60248201527f5265656e7472616e637947756172643a207265656e7472616e742063616c6c006044820152606490fd5b34610350575f366003190112610350576040517f00000000000000000000000000000000000000000000000000000000000000006001600160a01b03168152602090f35b34610350576020366003190112610350576001600435036115ba5761040c6104007f0000000000000000000000000000000000000000000000000000000000000000611fce565b60405162461bcd60e51b8152602060048201526014602482015273151bdad95b88191bd95cc81b9bdd08195e1a5cdd60621b6044820152606490fd5b34610350575f366003190112610350576040517f00000000000000000000000000000000000000000000000000000000000000006001600160a01b03168152602090f35b34610350575f36600319011261035057604080516001600160a01b037f0000000000000000000000000000000000000000000000000000000000000000811682527f0000000000000000000000000000000000000000000000000000000000000000166020820152f35b34610350575f3660031901126103505760206040517f00000000000000000000000000000000000000000000000000000000000000008152f35b34610350576040366003190112610350576004356116fb81610512565b6024359061170882610512565b60018060a01b038091165f52600560205260405f2091165f52602052602060ff60405f2054166040519015158152f35b346103505760203660031901126103505760043561175581610512565b6001600160a01b039061178b337f0000000000000000000000000000000000000000000000000000000000000000841614611b20565b165f908152601460205260409020805460ff19169055005b156117aa57565b60405162461bcd60e51b815260206004820152601860248201527f4552433732313a20696e76616c696420746f6b656e20494400000000000000006044820152606490fd5b90816020910312610350575190565b6040513d5f823e3d90fd5b634e487b7160e01b5f52601160045260245ffd5b906127109182810292818404149015171561183457565b611809565b600281901b91906001600160fe1b0381160361183457565b634e487b7160e01b5f52601260045260245ffd5b80156118715760640490565b611851565b8115611871570490565b906002820180921161183457565b906020820180921161183457565b9190820180921161183457565b90620f424091820391821161183457565b9190820391821161183457565b9066038d7ea4c680008110611a5857601254604051637726dafd60e01b8152600481019190915260248101829052906020826044816001600160a01b037f0000000000000000000000000000000000000000000000000000000000000000165afa918215610f06575f92611a30575b5061194d61195b916119488486611bc9565b61181d565b670de0b6b3a7640000900490565b9060125492620f424061196e848661189c565b116119f5575b6119a3610a29847f9f2ce79c730fb41c50ab613beac2defac62e7da781a1adae46368324b0c13480959661189c565b6001600160a01b03165f81815260156020908152604091829020546011546012548451958652928501959095529183019190915260608201929092526080810184905260a081019190915260c090a190565b7f9f2ce79c730fb41c50ab613beac2defac62e7da781a1adae46368324b0c1348092506119a3610a29611a27866118a9565b94505050611974565b61195b919250611a5061194d9160203d81116114a45761149481836107ed565b929150611936565b604051638a0d377960e01b8152600490fd5b9081602091031261035057516108b981610a9b565b6001600160e01b03199035818116939260048110611a9c57505050565b60040360031b82901b16169150565b90918060409360208452816020850152848401375f828201840152601f01601f1916010190565b908092918237015f815290565b60405190611aec82610797565b5f8252565b3d15611b1b573d90611b028261084d565b91611b1060405193846107ed565b82523d5f602084013e565b606090565b15611b2757565b60405162461bcd60e51b815260206004820152601a60248201527f4f6e6c7920666163746f72792063616e2063616c6c20746869730000000000006044820152606490fd5b60405162461bcd60e51b815260206004820152602f60248201527f416d696e616c732061726520736f756c626f756e6420616e642063616e6e6f7460448201526e081899481d1c985b9cd9995c9c9959608a1b6064820152608490fd5b6001600160a01b03165f908152601560205260409020805482810191908210611834575560115490810180911161183457601155565b6001600160a01b03165f908152601560205260409020805482810391908211611834575560115490810390811161183457601155565b9066038d7ea4c680006001600160801b038093160291821691820361183457565b6001600160a01b03165f908152601560205260409020546011548015611ce25760648202918083046064149015171561183457611c9291611876565b80611cc5575060645b6001600a6001600160801b038093160491821610611cbd575b6108b990611c35565b506001611cb4565b611cd1611cdd91611865565b6001600160801b031690565b611c9b565b505067016345785d8a000090565b6040519061010082018281106001600160401b038211176107b2576040528160e05f918281528260208201528260408201528260608201528260808201528260a08201528260c08201520152565b6040519061010082018281106001600160401b038211176107b257604052816009548152600a546020820152600b546040820152600c546060820152600d546080820152600e5460a0820152600f5460c082015260e0601054910152565b9081602091031261035057516108b981610512565b15611db857565b60405162461bcd60e51b815260206004820152603060248201527f4f6e6c7920666163746f7279206f722067656e652061756374696f6e2063616e60448201526f207472616e7366657220656e6572677960801b6064820152608490fd5b611e1e611cf0565b507f000000000000000000000000000000000000000000000000000000000000000003611e4d576108b9611d3e565b60405162461bcd60e51b8152602060048201526011602482015270125b9d985b1a5908185b5a5b985b081251607a1b6044820152606490fd5b34611e8d57565b611e9734336118c7565b50565b6108b9611ef6611f8d611fc293611f74611f66825192611f42611f48602083015192611f42603b606060408401519301519560296040519c8d809c683d913730b6b2911d1160b91b602083015260208151948593019101610354565b8a0171111610113232b9b1b934b83a34b7b7111d1160711b6029820152611f268251809360208685019101610354565b0101600d906c1116101134b6b0b3b2911d101160991b81520190565b906108bc565b71222c202261747472696275746573223a205b60701b815260120190565b615d7d60f01b815260020190565b0391611f88601f19938481018352826107ed565b612b62565b6040517f646174613a6170706c69636174696f6e2f6a736f6e3b6261736536342c0000006020820152938491603d8301611f42565b039081018352826107ed565b6108b990611fdb81612963565b9061201a6028604051809467416d696e616c202360c01b602083015261200a8151809260208686019101610354565b81010360088101855201836107ed565b6120616120ef61202c611f88846121b2565b6040517f646174613a696d6167652f7376672b786d6c3b6261736536342c0000000000006020820152928391603a8301611f42565b0392612075601f19948581018552846107ed565b6120ea60405194856120de602082016041907f54686973204e465420726570726573656e74732061206469676974616c20706581527f742e2054686973204e46542063616e6e6f74206265207472616e7366657265646020820152601760f91b60408201520190565b039081018652856107ed565b6124bb565b916120f861080e565b938452602084015260408301526060820152611e9a565b6040519060a082018281106001600160401b038211176107b2576040908152606483527f3c73766720786d6c6e733d22687474703a2f2f7777772e77332e6f72672f323060208401527f30302f73766722207072657365727665417370656374526174696f3d22784d69908301527f6e594d696e206d656574222076696577426f783d2230203020313030302031306060830152631818111f60e11b6080830152565b6108b96121c1611f4292611e16565b6121c961210f565b611fc261235d6121d9845161236f565b6123516121fe61234561233760e06040958651948591611f4260209c8d8501906108bc565b0399612212601f199b8c81018752866107ed565b6122aa8a61229e6122298a519889938401906108bc565b7f3c672069643d22736861646f77223e3c656c6c697073652066696c6c3d22233381527f633364353522206f7061636974793d22302e3522202063783d2235303522206360208201527f793d22393731222072783d22313633222072793d223132222f3e3c2f673e00006040820152605e0190565b038c81018752866107ed565b6122cd8a61229e6122bd8a85015161236f565b611f428b51998a948501906108bc565b6122e08a61229e6122bd8285015161236f565b6122f48a61229e6122bd606085015161236f565b6123088a61229e6122bd608085015161236f565b61231c8a61229e6122bd60a085015161236f565b6123308a61229e6122bd60c085015161236f565b015161236f565b84519a8b93898501906108bc565b038681018952886107ed565b519586938401906108bc565b651e17b9bb339f60d11b815260060190565b8015612452576007546040516379b68ad360e01b815260048101929092525f908190839060249082906001600160a01b03165afa909182826123bb575b50506108b957506108b9611adf565b909192503d8082843e6123ce81846107ed565b82019160408184031261244e5780516001600160401b03811161244a57810183601f8201121561244a578051906124048261084d565b9461241260405196876107ed565b828652602083830101116124465791612435602092600894848089019101610354565b015110156104a65750905f806123ac565b8380fd5b8280fd5b5080fd5b5060405161245f81610797565b5f815290565b5f1981146118345760010190565b634e487b7160e01b5f52603260045260245ffd5b9060088110156124985760051b0190565b612473565b600811156124a757565b634e487b7160e01b5f52602160045260245ffd5b6124c490611e16565b6124cc611adf565b9060016124d761082d565b9180518352602091828201518385015260e06040928381015184870152606081015160608701526080810151608087015260a081015160a087015260c081015160c0870152015160e08501525f5b6008811061253557505050505090565b61253f8186612487565b5180612555575b5061255090612465565b612525565b90956125608761249d565b6125698761282e565b90836126f2576125a26125879161259487519384928a8401906108bc565b600b60fa1b815260010190565b03601f1981018352826107ed565b905b60075485516331a9108f60e11b8152600481018590525f94918890829060249082906001600160a01b03165afa8591816126d3575b506126c9575b506125e990612963565b926125fc906001600160a01b0316612a57565b90855193849388850161260e916108bc565b6e3d913a3930b4ba2fba3cb832911d1160891b8152600f0161263090836108bc565b70222c2276616c7565223a2247656e65202360781b8152601101612653916108bc565b61227d60f01b81526002016f163d913a3930b4ba2fba3cb832911d1160811b8152601001612680916108bc565b721021b932b0ba37b91116113b30b63ab2911d1160691b81526013016126a5916108bc565b61227d60f01b815260020103601f19810182526126c290826107ed565b945f612546565b93506125e96125df565b6126eb919250893d8b11610eff57610ef181836107ed565b905f6125d9565b5f9350906125a4565b60405190612708826107b7565b600a825269109858dad9dc9bdd5b9960b21b6020830152565b6040519061272e826107b7565b600482526341726d7360e01b6020830152565b6040519061274e826107b7565b600482526315185a5b60e21b6020830152565b6040519061276e826107b7565b60048252634561727360e01b6020830152565b6040519061278e826107b7565b6004825263426f647960e01b6020830152565b604051906127ae826107b7565b60048252634661636560e01b6020830152565b604051906127ce826107b7565b600582526409adeeae8d60db1b6020830152565b604051906127ef826107b7565b600d82526c4d697363656c6c616e656f757360981b6020830152565b60405190612818826107b7565b60078252662ab735b737bbb760c91b6020830152565b6128378161249d565b80156128fa576128468161249d565b600181146128f1576128578161249d565b600281146128e8576128688161249d565b600381146128df576128798161249d565b600481146128d65761288a8161249d565b600581146128cd5761289b8161249d565b600681146128c457806128af60079261249d565b146128bc576108b961280b565b6108b96127e2565b506108b96127c1565b506108b96127a1565b506108b9612781565b506108b9612761565b506108b9612741565b506108b9612721565b506108b96126fb565b9061290d8261084d565b61291a60405191826107ed565b828152809261292b601f199161084d565b0190602036910137565b8051156124985760200190565b8051600110156124985760210190565b908151811015612498570160200190565b80156129e257805f8082805b6129ca575061297d81612903565b935b6129895750505090565b5f198101908111611834578092600a91603083830681018091116118345760f81b6001600160f81b031916841a906129c19087612952565b5304918261297f565b92506129d7600a91612465565b92048084939161296f565b506040516129ef816107b7565b60018152600360fc1b602082015290565b8015611834575f190190565b15612a1357565b606460405162461bcd60e51b815260206004820152602060248201527f537472696e67733a20686578206c656e67746820696e73756666696369656e746044820152fd5b60405190612a64826107d2565b602a825260403660208401376030612a7b83612935565b536078612a8783612942565b536029905b60018211612aa8576108b991506001600160a01b031615612a0c565b600f811690601082101561249857612aed916f181899199a1a9b1b9c1cb0b131b232b360811b901a612ada8486612952565b5360041c60016001609c1b031691612a00565b90612a8c565b60405190606082018281106001600160401b038211176107b257604052604082527f6768696a6b6c6d6e6f707172737475767778797a303132333435363738392b2f6040837f4142434445464748494a4b4c4d4e4f505152535455565758595a61626364656660208201520152565b805115612c4b57612b71612af3565b612b8d612b88612b818451611880565b6003900490565b611839565b91612b9f612b9a8461188e565b612903565b92835280815182019060208501935b828210612bef57505050600390510680600114612bde57600214612bd0575090565b603d60f81b5f199091015290565b50613d3d60f01b6001199091015290565b90919360049060038094019384516001603f81818460121c16880101519260f893841b8652828282600c1c1689010151841b8387015282828260061c1689010151841b60028701521686010151901b9082015201939190612bae565b506108b9611adf56fea2646970667358221220a685e045e0648211da63e461e3153ac9ef55c54b159143f1ba278b386b7020aa64736f6c63430008140033290decd9548b62a8d60345a988386fc84ba6bc95484008f6362f93160ef3e563e90b7bceb6e7df5418fb78d8ee546e97c83a08bbccc01a0644d599ccd2a7c2e06101203461038e576001600160401b0390601f610f5e38819003918201601f1916830191848311848410176103925780849260809460405283398101031261038e5780519160208201519060408301519060608094015194608052670de0b6b3a764000093838503905f8095128683128116908784139015161761037a578482131561034957711340daa0d5f769dba1915cef59f0815a55068286947d57115e47018c7177eebf7cd370a3356a1b7863008a5ae8028c72b88642849460018060801b031060071b9082821c1160061b1781811c63ffffffff1060051b1781811c61ffff1060041b1781811c60ff1060031b1781811c600f1060021b1781811c60031060011b1781811c60011017908382609f03011b609f1c90605f19017d0267a36c0c95b3975ab3ee5b203a7614a3f75373f047d803ae7b6687f2b302926c0b7a86d7375468fac667a0a527826d01920d8043ca89b5239253284e42816d0a0f742023def783a307a986912e816d13cdffb29d51d99322bdff5f2211816d0df99ac502031bf953eff472fdcc816d0388eaa27412d5aca026815d636e816c465772b2bbbb5f824b15207a308101028c1d01028a1d0102881d0102861d0102841d0102821d019160016c0504a838426634cdd8738f543560611b0319916cb9a025d814b29c212b8b1a07cd1990826d02384773bdf1ac5676facced609019816c8c3f38e95a6b1ff2ab1c3b343619816d02247f7a7b6594320649aa03aba1816d0139601a2efabe717e604cbb4894816c29508e458543d8aa4df2abee78810102891d0102871d0102851d0102831d0102901d0102010502010160ae1d8060a0521215610304578183820193841291129080158216911516176102f0578160c052671bc16d674ec80000918281029281840514901517156102f0575060e052610100908152604051610bb791826103a7833960805182818160e40152818161029a015281816106b201526109d5015260a051826106ed015260c05182610406015260e051826104280152518161050a0152f35b634e487b7160e01b81526011600452602490fd5b60405162461bcd60e51b815260206004820152601b60248201527f4e4f4e5f4e454741544956455f44454341595f434f4e5354414e5400000000006044820152606490fd5b60405162461bcd60e51b815260206004820152600960248201526815539111519253915160ba1b6044820152606490fd5b634e487b7160e01b85526011600452602485fd5b5f80fd5b634e487b7160e01b5f52604160045260245ffdfe60406080815260049081361015610014575f80fd5b5f803560e01c80633eac92aa146101ad5780634dfdd8c81461018a5780636d9d33b71461016b5780637726dafd146101495780637f80adc9146101265780639f18d33b14610107578063dc38679c146100cc578063f1491251146100ab5763f466d4ab14610080575f80fd5b346100a857816003193601126100a857506100a160209260243590356106aa565b9051908152f35b80fd5b5090346100c857816003193601126100c857602090516127108152f35b5080fd5b5090346100c857816003193601126100c857602090517f00000000000000000000000000000000000000000000000000000000000000008152f35b50346100a85760203660031901126100a857506100a160209235610b5f565b5090346100c857816003193601126100c8576020905167016345785d8a00008152f35b50346100a857816003193601126100a857506100a160209260243590356108ff565b50346100a85760203660031901126100a857506100a160209235610404565b5090346100c857816003193601126100c85760209051678ac7230489e800008152f35b508290346100a85760203660031901126100a8578135600a81101561020e5750678ac7230489e80000915b61271092808402938404036101fb57602083670de0b6b3a7640000865191048152f35b634e487b7160e01b825260119052602490fd5b620f4240811115610229575067016345785d8a0000916101d8565b603281101561032c57603290045b61024c670de0b6b3a7640000918281026106aa565b8061029857505067016345785d8a00005b678ac7230489e8000090818111156102765750916101d8565b92905067016345785d8a0000808410610290575b506101d8565b92508461028a565b7f0000000000000000000000000000000000000000000000000000000000000000908181106102d257505050678ac7230489e8000061025d565b8281029081048303610319576102f0916102eb916108b5565b6108d3565b0467016345785d8a00009081018091111561025d575b506011602492634e487b7160e01b835252fd5b634e487b7160e01b845260118552602484fd5b6103e88110156103575760311981019081116103065760c8900460010180600111610306575b610237565b6127108082101561038557506103e7198101908111610306576105dc90046006018060061161030657610237565b90620186a08110156103d15761270f1981019081116103be5704600c0180600c111561035257506011602492634e487b7160e01b835252fd5b634e487b7160e01b835260118452602483fd5b6201869f198101915081116103065761c3509004601501806015111561035257506011602492634e487b7160e01b835252fd5b7f0000000000000000000000000000000000000000000000000000000000000000017f000000000000000000000000000000000000000000000000000000000000000005670de0b6b3a763ffff19015f81131561067957670de0b6b3a76400007d57115e47018c7177eebf7cd370a3356a1b7863008a5ae8028c72b8864284826fffffffffffffffffffffffffffffffff1060071b83811c67ffffffffffffffff1060061b1783811c63ffffffff1060051b1783811c61ffff1060041b1783811c60ff1060031b1783811c600f1060021b1783811c60031060011b1783811c6001101792711340daa0d5f769dba1915cef59f0815a55066060918286609f03011b609f1c7f000000000000000000000000000000000000000000000000000000000000000095605f19017d0267a36c0c95b3975ab3ee5b203a7614a3f75373f047d803ae7b6687f2b302926c0b7a86d7375468fac667a0a527826d01920d8043ca89b5239253284e42816d0a0f742023def783a307a986912e816d13cdffb29d51d99322bdff5f2211816d0df99ac502031bf953eff472fdcc816d0388eaa27412d5aca026815d636e816c465772b2bbbb5f824b15207a308101028c1d01028a1d0102881d0102861d0102841d0102821d0191780a09507084cc699bb0e71ea869ffffffffffffffffffffffff19916cb9a025d814b29c212b8b1a07cd1990826d02384773bdf1ac5676facced609019816c8c3f38e95a6b1ff2ab1c3b343619816d02247f7a7b6594320649aa03aba1816d0139601a2efabe717e604cbb4894816c29508e458543d8aa4df2abee78810102891d0102871d0102851d0102831d0102901d0102010502010160ae1d02055f0390565b60405162461bcd60e51b815260206004820152600960248201526815539111519253915160ba1b6044820152606490fd5b6107136001927f0000000000000000000000000000000000000000000000000000000000000000926106e9670de0b6b3a7640000809681940102610404565b90037f0000000000000000000000000000000000000000000000000000000000000000020561072c565b90818102918183051490151715610728570590565b5f80fd5b680248ce36a70cb26b3e198113156108b057680755bf798b4a1bf1e581121561087c576503782dace9d990604e1b0574029d9dc38563c32e5c2f6dc192ee70ef65f9978af36bb17217f7d1cf79abc9e3b398916060906001605f1b8482841b0501821d9384029003806c10fe68e7fd37d0007b713f7650810102821d906e0587f503bb6ea29d25fcb7401964506e05180bb14799ab47a8a8cb2a527d57826e02c72388d9f74f51a9331fed693f1419816db1bbb201f443cf962f1a1d3db4a5816d1a521255e34f6a5061b25ef1c9c319816d0277594991cfc85f6e2461837cd9816c240c330e9fb2d9cbaf0fd5aafb198101028d1d01028b1d0102891d0102871d0102851d01936d360d7aeea093263ecc6e0ecb291760621b936d02d16720577bd19bf614176fe9ea810190846d01d3967ed30fc4f89c02bab570811991010102901d01020105029060c3031c90565b60405162461bcd60e51b815260206004820152600c60248201526b4558505f4f564552464c4f5760a01b6044820152606490fd5b505f90565b81156108bf570490565b634e487b7160e01b5f52601260045260245ffd5b90678963dd8c2c5e000091808302928304036108eb57565b634e487b7160e01b5f52601160045260245ffd5b8115610b59575f90600a81101561094a575050678ac7230489e800005b612710808302928304036108eb57670de0b6b3a76400008092048181029181830414901517156108eb570490565b620f424081111561096557505067016345785d8a000061091c565b6032811015610a6a57603290045b610988670de0b6b3a7640000918281026106aa565b806109d35750505067016345785d8a00005b678ac7230489e8000090818111156109b2575061091c565b905067016345785d8a00008082106109cb575b5061091c565b90505f6109c5565b7f000000000000000000000000000000000000000000000000000000000000000090818110610a0e5750505050678ac7230489e8000061099a565b8281029081048303610a5657610a27916102eb916108b5565b049067016345785d8a0000918201809211610a42575061099a565b634e487b7160e01b81526011600452602490fd5b634e487b7160e01b84526011600452602484fd5b6103e8811015610aa9576031198101908111610a955760c8900460010180600111610a95575b610973565b634e487b7160e01b82526011600452602482fd5b61271080821015610ad757506103e7198101908111610a95576105dc900460060180600611610a9557610973565b90620186a0811015610b255761270f198101908111610b115704600c0180600c1115610a9057634e487b7160e01b82526011600452602482fd5b634e487b7160e01b83526011600452602483fd5b6201869f19810191508111610a955761c35090046015018060151115610a9057634e487b7160e01b82526011600452602482fd5b50505f90565b80156108b057612710808202918204036108eb57670de0b6b3a764000090049056fea264697066735822122031758f8119bd253159186f369ad8227b0b842297d9fed852e3acdac4c5ae4fff64736f6c634300081400334ff133ee8b33a0ce106c0a56a47d6c3f1ef6caee013f948b449a25096a4010a0a26469706673582212205a6a1910eb1574a1dd207810948612bf43f7fd997abbb7dd3d449406b41223e564736f6c63430008140033","linkReferences":{}},"methodIdentifiers":{"aminalsByIndex(uint256)":"7828a458","breedAminals(address,address)":"5419fa40","geneAuction()":"95504402","genes()":"5f16ec52","getAminalByIndex(uint256)":"ce178239","getAminalVisualsByAddress(address)":"313c9721","initialAminalSpawned()":"00a41372","initialize(address,address,address)":"c0c53b8b","isAminal(address)":"5b63648b","loveVRGDA()":"8b9595ff","owner()":"8da5cb5b","proposals()":"55ef20e6","renounceOwnership()":"715018a6","setup()":"ba0bba40","spawnAminal(address,address,uint256[8])":"7b5cbc8d","spawnInitialAminals((uint256,uint256,uint256,uint256,uint256,uint256,uint256,uint256)[])":"8d549a25","totalAminals()":"9351f7b4","transferOwnership(address)":"f2fde38b"},"id":47}