{"abi":[{"type":"constructor","inputs":[],"stateMutability":"nonpayable"},{"type":"function","name":"aminalsByIndex","inputs":[{"name":"","type":"uint256","internalType":"uint256"}],"outputs":[{"name":"","type":"address","internalType":"address"}],"stateMutability":"view"},{"type":"function","name":"breedAminals","inputs":[{"name":"aminalOne","type":"address","internalType":"address"},{"name":"aminalTwo","type":"address","internalType":"address"}],"outputs":[{"name":"auctionId","type":"uint256","internalType":"uint256"}],"stateMutability":"payable"},{"type":"function","name":"geneAuction","inputs":[],"outputs":[{"name":"","type":"address","internalType":"contract GeneAuction"}],"stateMutability":"view"},{"type":"function","name":"genesNFT","inputs":[],"outputs":[{"name":"","type":"address","internalType":"contract GenesNFT"}],"stateMutability":"view"},{"type":"function","name":"getAminalByIndex","inputs":[{"name":"index","type":"uint256","internalType":"uint256"}],"outputs":[{"name":"","type":"address","internalType":"address"}],"stateMutability":"view"},{"type":"function","name":"getAminalVisualsByAddress","inputs":[{"name":"aminalAddress","type":"address","internalType":"address"}],"outputs":[{"name":"","type":"tuple","internalType":"struct IAminalStructs.Visuals","components":[{"name":"backId","type":"uint256","internalType":"uint256"},{"name":"armId","type":"uint256","internalType":"uint256"},{"name":"tailId","type":"uint256","internalType":"uint256"},{"name":"earsId","type":"uint256","internalType":"uint256"},{"name":"bodyId","type":"uint256","internalType":"uint256"},{"name":"faceId","type":"uint256","internalType":"uint256"},{"name":"mouthId","type":"uint256","internalType":"uint256"},{"name":"miscId","type":"uint256","internalType":"uint256"}]}],"stateMutability":"view"},{"type":"function","name":"initialAminalSpawned","inputs":[],"outputs":[{"name":"","type":"bool","internalType":"bool"}],"stateMutability":"view"},{"type":"function","name":"initialize","inputs":[{"name":"_geneAuction","type":"address","internalType":"address"},{"name":"_aminalProposals","type":"address","internalType":"address"},{"name":"_genesNFT","type":"address","internalType":"address"}],"outputs":[],"stateMutability":"nonpayable"},{"type":"function","name":"isAminal","inputs":[{"name":"","type":"address","internalType":"address"}],"outputs":[{"name":"","type":"bool","internalType":"bool"}],"stateMutability":"view"},{"type":"function","name":"loveVRGDA","inputs":[],"outputs":[{"name":"","type":"address","internalType":"contract AminalVRGDA"}],"stateMutability":"view"},{"type":"function","name":"owner","inputs":[],"outputs":[{"name":"","type":"address","internalType":"address"}],"stateMutability":"view"},{"type":"function","name":"proposals","inputs":[],"outputs":[{"name":"","type":"address","internalType":"contract AminalProposals"}],"stateMutability":"view"},{"type":"function","name":"renounceOwnership","inputs":[],"outputs":[],"stateMutability":"nonpayable"},{"type":"function","name":"setup","inputs":[],"outputs":[],"stateMutability":"nonpayable"},{"type":"function","name":"spawnAminal","inputs":[{"name":"momAddress","type":"address","internalType":"address"},{"name":"dadAddress","type":"address","internalType":"address"},{"name":"winningGeneIds","type":"uint256[8]","internalType":"uint256[8]"}],"outputs":[{"name":"","type":"address","internalType":"address"}],"stateMutability":"nonpayable"},{"type":"function","name":"spawnInitialAminals","inputs":[{"name":"_visuals","type":"tuple[]","internalType":"struct IAminalStructs.Visuals[]","components":[{"name":"backId","type":"uint256","internalType":"uint256"},{"name":"armId","type":"uint256","internalType":"uint256"},{"name":"tailId","type":"uint256","internalType":"uint256"},{"name":"earsId","type":"uint256","internalType":"uint256"},{"name":"bodyId","type":"uint256","internalType":"uint256"},{"name":"faceId","type":"uint256","internalType":"uint256"},{"name":"mouthId","type":"uint256","internalType":"uint256"},{"name":"miscId","type":"uint256","internalType":"uint256"}]}],"outputs":[],"stateMutability":"nonpayable"},{"type":"function","name":"totalAminals","inputs":[],"outputs":[{"name":"","type":"uint256","internalType":"uint256"}],"stateMutability":"view"},{"type":"function","name":"transferOwnership","inputs":[{"name":"newOwner","type":"address","internalType":"address"}],"outputs":[],"stateMutability":"nonpayable"},{"type":"event","name":"AminalSpawned","inputs":[{"name":"aminalAddress","type":"address","indexed":true,"internalType":"address"},{"name":"aminalIndex","type":"uint256","indexed":true,"internalType":"uint256"},{"name":"mom","type":"uint256","indexed":true,"internalType":"uint256"},{"name":"dad","type":"uint256","indexed":false,"internalType":"uint256"},{"name":"backId","type":"uint256","indexed":false,"internalType":"uint256"},{"name":"armId","type":"uint256","indexed":false,"internalType":"uint256"},{"name":"tailId","type":"uint256","indexed":false,"internalType":"uint256"},{"name":"earsId","type":"uint256","indexed":false,"internalType":"uint256"},{"name":"bodyId","type":"uint256","indexed":false,"internalType":"uint256"},{"name":"faceId","type":"uint256","indexed":false,"internalType":"uint256"},{"name":"mouthId","type":"uint256","indexed":false,"internalType":"uint256"},{"name":"miscId","type":"uint256","indexed":false,"internalType":"uint256"}],"anonymous":false},{"type":"event","name":"BreedAminal","inputs":[{"name":"aminalOne","type":"address","indexed":true,"internalType":"address"},{"name":"aminalTwo","type":"address","indexed":true,"internalType":"address"},{"name":"auctionId","type":"uint256","indexed":false,"internalType":"uint256"}],"anonymous":false},{"type":"event","name":"Initialized","inputs":[{"name":"version","type":"uint8","indexed":false,"internalType":"uint8"}],"anonymous":false},{"type":"event","name":"OwnershipTransferred","inputs":[{"name":"previousOwner","type":"address","indexed":true,"internalType":"address"},{"name":"newOwner","type":"address","indexed":true,"internalType":"address"}],"anonymous":false}],"bytecode":{"object":"0x60808060405234610028576100133361002c565b61001c3361002c565b615e27908161008a8239f35b5f80fd5b5f805462010000600160b01b03198116601084811b62010000600160b01b03169190911783556001600160a01b039384169391901c16907f8be0079c531659141344cd1fd0a4f28419497f9722a3daafe3b4186f6b6457e09080a356fe608080604052600436101562000013575f80fd5b5f3560e01c908162a413721462000ed8575080630847335c1462000eae578063313c97211462000d335780635419fa401462000cfd57806355ef20e61462000cd35780635b63648b1462000c92578063715018a61462000c325780637828a4581462000bfe5780637b5cbc8d14620008855780638b9595ff146200085b5780638d549a2514620005105780638da5cb5b14620004e35780639351f7b414620004c457806395504402146200049a578063ba0bba4014620003d1578063c0c53b8b1462000251578063ce17823914620001d75763f2fde38b14620000f4575f80fd5b34620001d3576020366003190112620001d3576200011162000efc565b6200011b62000f75565b6001600160a01b038181169182156200017f575f805462010000600160b01b03198116601093841b62010000600160b01b031617825590911c91909116907f8be0079c531659141344cd1fd0a4f28419497f9722a3daafe3b4186f6b6457e09080a3005b60405162461bcd60e51b815260206004820152602660248201527f4f776e61626c653a206e6577206f776e657220697320746865207a65726f206160448201526564647265737360d01b6064820152608490fd5b5f80fd5b34620001d3576020366003190112620001d35760043560015481101562000216575f526004602052602060018060a01b0360405f205416604051908152f35b60405162461bcd60e51b8152602060048201526013602482015272496e646578206f7574206f6620626f756e647360681b6044820152606490fd5b34620001d3576060366003190112620001d3576200026e62000efc565b6200027862000f13565b6001600160a01b03604435818116939290849003620001d3575f549360ff8560081c161594858096620003c3575b8015620003aa575b156200034e5760ff1981166001175f55856200033c575b50620002d062000f75565b826bffffffffffffffffffffffff60a01b9416846002541617600255836006541617600655169060055416176005556200030657005b61ff00195f54165f557f7f26b83ff96e1f2b6a682f133852f6798a09c465da95921460cefb3847402498602060405160018152a1005b61ffff1916610101175f5585620002c5565b60405162461bcd60e51b815260206004820152602e60248201527f496e697469616c697a61626c653a20636f6e747261637420697320616c72656160448201526d191e481a5b9a5d1a585b1a5e995960921b6064820152608490fd5b50303b158015620002ae5750600160ff821614620002ae565b50600160ff821610620002a6565b34620001d3575f366003190112620001d357620003ed62000f75565b604051610f128082019082821067ffffffffffffffff8311176200048657608091839162004ec08339670de0b6b3a7640000815267016345785d8a0000602082015268056bc75e2d6310000060408201526801158e460913d0000060608201520301905ff080156200047b57600780546001600160a01b0319166001600160a01b0392909216919091179055005b6040513d5f823e3d90fd5b634e487b7160e01b5f52604160045260245ffd5b34620001d3575f366003190112620001d3576002546040516001600160a01b039091168152602090f35b34620001d3575f366003190112620001d3576020600154604051908152f35b34620001d3575f366003190112620001d3575f5460405160109190911c6001600160a01b03168152602090f35b34620001d3576020366003190112620001d35760043567ffffffffffffffff8111620001d35736602382011215620001d35767ffffffffffffffff816004013511620001d357366024826004013560081b83010111620001d3576200057462000f75565b60025460ff8160a01c16620008165760ff60a01b1916600160a01b176002555f5b81600401358110620005a357005b620005b78183600401356024850162000fdf565b35906020620005cf8285600401356024870162000fdf565b0135916040620005e88386600401356024880162000fdf565b0135926060620006018487600401356024890162000fdf565b01359160806200061a85886004013560248a0162000fdf565b01359460a06200063386896004013560248b0162000fdf565b01359260c06200064c878a6004013560248c0162000fdf565b01359360e062000665888b6004013560248d0162000fdf565b0135604051620006758162001004565b8581528360208201528460408201528760608201528960808201528260a08201528660c08201528160e082015260015460018060a01b036007541690604051928361382481011067ffffffffffffffff613824860111176200048657620006ff906138246200169c86393061382486019081525f6020820181905260408201526060019062000f2a565b61016061382484010152610180613824830101526101a08161382481010301905ff09586156200047b576001600160a01b0387165f818152600360209081526040808320805460ff1916600190811790915580548452600490925290912080546001600160a01b031916909217909155546200077b9062000fd0565b9283600155835f198101116200080257620007fc9a5f997fd279e76d1945c3c45bbef7a1437671c036bd01d72d3bffa29d9270cdaeef74db97610120976040519a8d8c5260208c015260408b015260608a0152608089015260a088015260c087015260e08601526101008501528519019360018060a01b031692a462000fd0565b62000595565b634e487b7160e01b5f52601160045260245ffd5b60405162461bcd60e51b815260206004820152601f60248201527f496e697469616c20416d696e616c7320616c726561647920737061776e6564006044820152606490fd5b34620001d3575f366003190112620001d3576007546040516001600160a01b039091168152602090f35b34620001d357610140366003190112620001d357620008a362000efc565b620008ad62000f13565b903661014411620001d3576002546001600160a01b0316330362000bad57604051620008d98162001004565b60443581526064356020820152608435604082015260a435606082015260c435608082015260e43560a08201526101043560c08201526101243560e082015260015460018060a01b036007541690604051928361382481011067ffffffffffffffff6138248601111762000486576200097f906138246200169c86393061382486019081526001600160a01b038781166020830152881660408201526060019062000f2a565b61016061382484010152610180613824830101526101a08161382481010301905ff09081156200047b576001600160a01b0382165f818152600360209081526040808320805460ff1916600190811790915580548452600490925290912080546001600160a01b03191690921790915554620009fb9062000fd0565b9081600155815f1981011162000802576001600160a01b03811662000b3a57505f905b6001600160a01b03841662000ac457602093505f905b604080519283526044358684015260643590830152608435606083015260a435608083015260c43560a083015260e43560c08301526101043560e0830152610124356101008301525f1901906001600160a01b038416907fd279e76d1945c3c45bbef7a1437671c036bd01d72d3bffa29d9270cdaeef74db9061012090a46040516001600160a01b039091168152f35b60405163385cc2d960e21b815293602090859060049082906001600160a01b03165afa80156200047b575f9062000b01575b602094509062000a34565b506020843d60201162000b31575b8162000b1e6020938362001022565b81010312620001d3576020935162000af6565b3d915062000b0f565b60405163385cc2d960e21b815290602090829060049082906001600160a01b03165afa9081156200047b575f9162000b75575b509062000a1e565b90506020813d60201162000ba4575b8162000b936020938362001022565b81010312620001d357518462000b6d565b3d915062000b84565b60405162461bcd60e51b815260206004820152602360248201527f4f6e6c792061756374696f6e20636f6e74726163742063616e2063616c6c207460448201526268697360e81b6064820152608490fd5b34620001d3576020366003190112620001d3576004355f526004602052602060018060a01b0360405f205416604051908152f35b34620001d3575f366003190112620001d35762000c4e62000f75565b5f805462010000600160b01b03198116825560101c6001600160a01b03167f8be0079c531659141344cd1fd0a4f28419497f9722a3daafe3b4186f6b6457e08280a3005b34620001d3576020366003190112620001d3576001600160a01b0362000cb762000efc565b165f526003602052602060ff60405f2054166040519015158152f35b34620001d3575f366003190112620001d3576005546040516001600160a01b039091168152602090f35b6040366003190112620001d357602062000d2b62000d1a62000efc565b62000d2462000f13565b906200105f565b604051908152f35b34620001d357602080600319360112620001d35762000d5162000efc565b5f60e060405162000d628162001004565b82815282858201528260408201528260608201528260808201528260a08201528260c0820152015260018060a01b0316805f526003825260ff60405f2054161562000e70576040519182916306ffad0b60e31b83528260046101009586935afa9182156200047b575f9262000de5575b505062000de3604051809262000f2a565bf35b9091508281813d831162000e68575b62000e00818362001022565b81010312620001d35760e0906040519262000e1b8462001004565b81518452808201519084015260408101516040840152606081015160608401526080810151608084015260a081015160a084015260c081015160c0840152015160e0820152828062000dd2565b503d62000df4565b60405162461bcd60e51b8152600481018390526016602482015275139bdd08185b88105b5a5b985b0818dbdb9d1c9858dd60521b6044820152606490fd5b34620001d3575f366003190112620001d3576006546040516001600160a01b039091168152602090f35b34620001d3575f366003190112620001d35760209060ff60025460a01c1615158152f35b600435906001600160a01b0382168203620001d357565b602435906001600160a01b0382168203620001d357565b60e08091805184526020810151602085015260408101516040850152606081015160608501526080810151608085015260a081015160a085015260c081015160c08501520151910152565b5f5460101c6001600160a01b0316330362000f8c57565b606460405162461bcd60e51b815260206004820152602060248201527f4f776e61626c653a2063616c6c6572206973206e6f7420746865206f776e65726044820152fd5b5f198114620008025760010190565b919081101562000ff05760081b0190565b634e487b7160e01b5f52603260045260245ffd5b610100810190811067ffffffffffffffff8211176200048657604052565b90601f8019910116810190811067ffffffffffffffff8211176200048657604052565b90816020910312620001d357518015158103620001d35790565b66038d7ea4c68000341062001663575f9160018060a01b03809216908184526020906003825260409060ff82872054168062001650575b156200160c57841693815190634562bd6f60e01b908183526004903382850152602493868186818b5afa801562001368578a90620015d4575b600a915010620015a057845162516d9b60e51b8082528382018a905290878187818c5afa908115620012e4578b916200157e575b50620015485785519081528783820152868186818c5afa90811562001368578a9162001514575b50156200146f57845163c02e705760e01b80825290878185818c5afa8015620012e4578b906200143b575b600a915010159081620013dd575b5015620013a7578451928084523383850152868486818b5afa93841562001368578a9462001372575b5085519081523383820152868186818c5afa90811562001368578a9162001335575b5083018093116200132357600254169084519163385cc2d960e21b93848452878484818c5afa938415620012e4578b94620012ee575b508651948552878584818d5afa948515620012e457918b91899594938397620012a5575b5060649495968951988997889663cda4beef60e01b885287015285015260448401525af19586156200129a579562001255575b50905f8051602062005dd28339815191529151858152a390565b918091955082813d831162001292575b62001271818362001022565b81010312620001d3579051935f8051602062005dd28339815191526200123b565b503d62001265565b8251903d90823e3d90fd5b9250939490955081813d8311620012dc575b620012c3818362001022565b81010312620001d35751938793928b9190606462001208565b503d620012b7565b87513d8d823e3d90fd5b9093508781813d83116200131b575b62001309818362001022565b81010312620001d35751925f620011e4565b503d620012fd565b634e487b7160e01b8952601182528389fd5b90508681813d831162001360575b6200134f818362001022565b81010312620001d357515f620011ae565b503d62001343565b86513d8c823e3d90fd5b9093508681813d83116200139f575b6200138d818362001022565b81010312620001d35751925f6200118c565b503d62001381565b845162461bcd60e51b8152808301879052601181860152704e6f7420656e6f75676820656e6572677960781b6044820152606490fd5b90508551908152868184818c5afa801562001368578a9062001407575b600a915010155f62001163565b508681813d831162001433575b62001420818362001022565b81010312620001d357600a9051620013fa565b503d62001414565b508781813d831162001467575b62001454818362001022565b81010312620001d357600a905162001155565b503d62001448565b50919050843b156200151057825163058daa5760e21b8152828101879052600182820152918783604481838a5af180156200150657620014c6575b505050905f8051602062005dd28339815191529151858152a390565b67ffffffffffffffff8398949811620014f55750508552935f8051602062005dd28339815191525f80620014aa565b634e487b7160e01b84526041905282fd5b84513d8a823e3d90fd5b8680fd5b620015399150873d891162001540575b62001530818362001022565b81019062001045565b5f6200112a565b503d62001524565b855162461bcd60e51b815280840188905260118187015270416c726561647920627265656461626c6560781b6044820152606490fd5b620015999150883d8a11620015405762001530818362001022565b5f62001103565b845162461bcd60e51b8152808301879052600f818601526e4e6f7420656e6f756768206c6f766560881b6044820152606490fd5b508681813d831162001604575b620015ed818362001022565b810103126200160057600a9051620010cf565b8980fd5b503d620015e1565b815162461bcd60e51b815260048101849052601860248201527f496e76616c696420416d696e616c2061646472657373657300000000000000006044820152606490fd5b50848116865260ff828720541662001096565b60405162461bcd60e51b815260206004820152601060248201526f2737ba1032b737bab3b41032ba3432b960811b6044820152606490fdfe6101208060405234620006ae5780620038248038038091620000228285620006ce565b83398101036101a08112620006ae576200003c82620006f2565b6200004a60208401620006f2565b926200005960408201620006f2565b906101008094605f190112620006ae576040518481016001600160401b038111828210176200054f57604052606082015181526080820151602082015260a0820151604082015260c0820151606082015260e082015160808201528482015160a082015261012082015160c082015261014082015160e0820152620000e86101806101608401519301620006f2565b604051630211ccd760e21b8152969093906020886004816001600160a01b038a165afa978815620006a3575f986200064f575b50604051976200012b89620006b2565b6006895265105b5a5b985b60d21b60208a0152604051986200014d8a620006b2565b60068a526510535253905360d21b60208b01528051906001600160401b0382116200054f575f5490600182811c9216801562000644575b6020831014620005305781601f849311620005e7575b50602090601f83116001146200056f575f9262000563575b50508160011b915f199060031b1c1916175f555b88516001600160401b0381116200054f57600154600181811c9116801562000544575b60208210146200053057601f8111620004cc575b506020601f82116001146200045a57819060e09798999a9b5f926200044e575b50508160011b915f199060031b1c1916176001555b600680546001600160a01b03199081166001600160a01b0393841617909155600780549091169055878116608081815260a093845260c09485528551600a556020860151600b556040860151600c556060860151600d55850151600e5591840151600f5591830151601055929091015160115560e092909252911683526032601355156200040a5760015f5260026020525f805160206200380483398151915254620002eb906001600160a01b031615155b1562000707565b60015f5260026020525f8051602062003804833981519152546200031a906001600160a01b03161515620002e4565b6001600160a01b03165f8181526003602090815260408083208054600190810190915580845260029092525f805160206200380483398151915280546001600160a01b03191685179055519290917fddf252ad1be2c89b69c2b068fc378daa952ba7f163c4a11628f55a4df523b3ef8180a461308f9182620007558339608051828181610d8201528181611067015281816114f70152818161161201528181611934015261199a015260a051828181610ba40152611828015260c0518281816115be015261184d015260e05182818161124201528181611549015261188b01525181818161100e0152611c3d0152f35b606460405162461bcd60e51b815260206004820152602060248201527f4552433732313a206d696e7420746f20746865207a65726f20616464726573736044820152fd5b015190505f806200021d565b60015f5260205f209a5f5b601f1984168110620004b357509a829160e098999a9b9c600194601f198116106200049a575b505050811b0160015562000232565b01515f1960f88460031b161c191690555f80806200048b565b828201518d556001909c019b6020928301920162000465565b60015f527fb10e2d527612073b26eecdfd717e6a320cf44b4afac2b0732d9fcbe2b7fa0cf6601f830160051c81016020841062000528575b601f830160051c820181106200051c575050620001fd565b5f815560010162000504565b508062000504565b634e487b7160e01b5f52602260045260245ffd5b90607f1690620001e9565b634e487b7160e01b5f52604160045260245ffd5b015190505f80620001b2565b5f80805293505f80516020620037e483398151915291905b601f1984168510620005cb576001945083601f19811610620005b2575b505050811b015f55620001c6565b01515f1960f88460031b161c191690555f8080620005a4565b8181015183556020948501946001909301929091019062000587565b5f80529091505f80516020620037e4833981519152601f840160051c8101602085106200063c575b90849392915b601f830160051c820181106200062d5750506200019a565b5f815585945060010162000615565b50806200060f565b91607f169162000184565b6020989198813d6020116200069a575b816200066e60209383620006ce565b81010312620006965751906001600160a01b0382168203620006935750965f6200011b565b80fd5b5080fd5b3d91506200065f565b6040513d5f823e3d90fd5b5f80fd5b604081019081106001600160401b038211176200054f57604052565b601f909101601f19168101906001600160401b038211908210176200054f57604052565b51906001600160a01b0382168203620006ae57565b156200070f57565b60405162461bcd60e51b815260206004820152601c60248201527f4552433732313a20746f6b656e20616c7265616479206d696e746564000000006044820152606490fdfe60806040526004361015610022575b3615610018575f80fd5b6100206120e7565b005b5f3560e01c806301ffc9a71461035857806306fdde031461035357806307c3c9481461034e578063081812fc146103495780630847335c14610344578063095ea7b31461033f5780630a2db3601461030d5780630b348a431461033a5780631636a95c14610335578063208f45e61461033057806323b872dd1461031257806328556bbb1461032b57806328f14b441461032657806337a7b7d81461032157806337fd68581461031c5780633bc848bc1461031757806342842e0e14610312578063442701ce1461030d5780634562bd6f146102fe578063465f2cdf146103085780635083886b1461030357806356946e5f146102fe5780635ac1e3bb146102f95780635b35f2dc146102f45780635d405330146102ef5780635e9de302146102ea5780636352211e146102e557806364f508d6146102e057806369e658fc146102a957806370a08231146102db5780637ad72c9a146102d65780638b9595ff146102d15780638e66b679146102cc57806392b4c81b146102c7578063938a3458146102c257806395d89b41146102bd578063a15e64c1146102b8578063a22cb465146102b3578063aa8492441461029a578063b0f4843f146102ae578063b1b894f2146102a9578063b473522c146102a4578063b88d4fde1461029f578063c02e70571461029a578063c45a015514610295578063c87b56dd14610290578063ce4125001461028b578063d1df77d214610286578063dd6133b514610281578063e1730b641461027c578063e985e9c514610277578063ebaf6fec146102725763fc581ef70361000e57611973565b611908565b6118ae565b611874565b61180a565b6115ed565b6115a9565b611526565b6114e2565b611400565b611485565b61145d565b610e20565b61141d565b611396565b61136c565b6112ad565b611226565b611163565b61103d565b610ff9565b610f1c565b610e3d565b610df9565b610dc4565b610d5f565b610d06565b610cdb565b610cbc565b610b54565b610bd3565b610b8f565b610637565b610839565b610ad8565b61092d565b61090e565b6108b4565b610865565b610801565b61073b565b6106cc565b6105c1565b610588565b61053e565b61051f565b610417565b346103c65760203660031901126103c65760043563ffffffff60e01b81168091036103c6576020906380ac58cd60e01b81149081156103b5575b81156103a4575b506040519015158152f35b6301ffc9a760e01b1490505f610399565b635b5e139f60e01b81149150610392565b5f80fd5b5f5b8381106103db5750505f910152565b81810151838201526020016103cc565b6040916020825261040b81518092816020860152602086860191016103ca565b601f01601f1916010190565b346103c6575f8060031936011261051c57604051908080549060019180831c92808216928315610512575b60209283861085146104fe5785885260208801949081156104dd5750600114610486575b6104828761047681890382610a15565b604051918291826103eb565b0390f35b5f805294509192917f290decd9548b62a8d60345a988386fc84ba6bc95484008f6362f93160ef3e5635b8386106104cc5750505091019050610476826104825f80610466565b8054858701529482019481016104b0565b60ff191685525050505090151560051b019050610476826104825f80610466565b634e487b7160e01b82526022600452602482fd5b93607f1693610442565b80fd5b346103c65760203660031901126103c6576104826104766004356128fb565b346103c65760203660031901126103c6576020600435805f526002825260018060a01b03906105748260405f2054161515611adb565b5f526004825260405f205416604051908152f35b346103c6575f3660031901126103c6576006546040516001600160a01b039091168152602090f35b6001600160a01b038116036103c657565b346103c65760403660031901126103c6576105dd6004356105b0565b60405162461bcd60e51b815260206004820152602c60248201527f416d696e616c732061726520736f756c626f756e6420616e642063616e6e6f7460448201526b08189948185c1c1c9bdd995960a21b6064820152608490fd5b346103c65760203660031901126103c657600435610654816105b0565b60018060a01b03165f526015602052602060ff60405f2054166040519015158152f35b600811156103c657565b6008111561068b57565b634e487b7160e01b5f52602160045260245ffd5b600881101561068b575f52600960205260405f2090565b90600881101561068b575f5260205260405f2090565b346103c65760403660031901126103c65760206107006024356106ee81610677565b6004355f526008835260405f206106b6565b54604051908152f35b801515036103c657565b60409060031901126103c65760043561072b816105b0565b9060243561073881610709565b90565b346103c65761074936610713565b905f913383526016602052600a6040842054106107ca576001600160a01b0382168352601560205260408320805460ff191660ff831515161790557fff1ce36355064a2eac76e57c8220d5bac2c7bb2a6622c6158d32e681eedd0c1c91604080516001600160a01b039092168252911515602082015290819081010390a180f35b60405162461bcd60e51b815260206004820152600f60248201526e4e6f7420656e6f756768206c6f766560881b6044820152606490fd5b346103c65760203660031901126103c6576020610828600435610823816105b0565b611f27565b6001600160801b0360405191168152f35b346103c65760603660031901126103c6576108556004356105b0565b6108606024356105b0565b611e3d565b346103c6575f3660031901126103c657602060ff601454166040519015158152f35b9181601f840112156103c6578235916001600160401b0383116103c657602083818601950101116103c657565b346103c65760403660031901126103c6576004356001600160401b0381116103c6576108e4903690600401610887565b90335f52601760205260405f20918060405192833781019182526020816024359303019020555f80f35b5f3660031901126103c65760206109253433611bff565b604051908152f35b346103c6575f3660031901126103c657610945611fc1565b5061048261095161200f565b6040519182918291909160e080610100830194805184526020810151602085015260408101516040850152606081015160608501526080810151608085015260a081015160a085015260c081015160c08501520151910152565b634e487b7160e01b5f52604160045260245ffd5b602081019081106001600160401b038211176109da57604052565b6109ab565b604081019081106001600160401b038211176109da57604052565b606081019081106001600160401b038211176109da57604052565b90601f801991011681019081106001600160401b038211176109da57604052565b60405190608082018281106001600160401b038211176109da57604052565b6001600160401b0381116109da57601f01601f191660200190565b929192610a7c82610a55565b91610a8a6040519384610a15565b8294818452818301116103c6578281602093845f960137010152565b9080601f830112156103c65781602061073893359101610a70565b90610ad4602092828151948592016103ca565b0190565b346103c65760403660031901126103c657600435610af5816105b0565b602435906001600160401b0382116103c6576020610b4291610b1c82943690600401610aa6565b9060018060a01b03165f526017825260405f2082604051948386809551938492016103ca565b82019081520301902054604051908152f35b346103c65760203660031901126103c657600435610b71816105b0565b60018060a01b03165f526016602052602060405f2054604051908152f35b346103c6575f3660031901126103c6576040517f00000000000000000000000000000000000000000000000000000000000000006001600160a01b03168152602090f35b60203660031901126103c65760043566038d7ea4c680003410610caa57335f90815260166020526040902081905410610c9857807f1193f7f56bf6fc76e52b7edc5f2e6df4fd725f858cb71c88f75180a456b626199160135481811015610c7f575b50610c409033611ed0565b335f90815260166020526040902054601254601354604080513381526020810195909552840192909252606083015260808201528060a081015b0390a1005b610c9191610c8c91611bf2565b601355565b805f610c35565b604051631d67da9d60e21b8152600490fd5b604051638a0d377960e01b8152600490fd5b346103c65760203660031901126103c65761048261047660043561255e565b346103c65760403660031901126103c657610482610476602435610cfe81610677565b600435612554565b346103c6575f3660031901126103c657610100600a54600b54600c54600d54600e54600f54916010549360115495604051978852602088015260408701526060860152608085015260a084015260c083015260e0820152f35b346103c65760203660031901126103c657600435610d7c81610709565b610db0337f00000000000000000000000000000000000000000000000000000000000000006001600160a01b031614611df1565b60ff80196014541691151516176014555f80f35b346103c65760203660031901126103c6576004355f526002602052602060018060a01b0360405f205416610925811515611adb565b346103c65760203660031901126103c6576020610700600435610e1b81610677565b61069f565b346103c6575f3660031901126103c6576020601254604051908152f35b346103c65760203660031901126103c657600435610e5a816105b0565b6001600160a01b03168015610e89575f52600360205261048260405f2054604051918291829190602083019252565b60405162461bcd60e51b815260206004820152602960248201527f4552433732313a2061646472657373207a65726f206973206e6f7420612076616044820152683634b21037bbb732b960b91b6064820152608490fd5b9060406003198301126103c657600435610ef9816105b0565b91602435906001600160401b0382116103c657610f1891600401610887565b9091565b610f2536610ee0565b9160405163b13506a360e01b815260208180610f478787303360048601611d9d565b0381346001600160a01b0387165af18015610ff4577fc7e603cfb39436822f6ccab2341db7be1d46168d194365562b4b5985cf9c7e4494610c7a925f92610fc4575b5081610f9c575b60405194859485611dc6565b8160135481811015610fb0575b5050610f90565b610fbd91610c8c91611bf2565b815f610fa9565b610fe691925060203d8111610fed575b610fde8183610a15565b810190611b27565b905f610f89565b503d610fd4565b611b36565b346103c6575f3660031901126103c6576040517f00000000000000000000000000000000000000000000000000000000000000006001600160a01b03168152602090f35b346103c65760403660031901126103c65760043560243561105d816105b0565b6001600160a01b037f0000000000000000000000000000000000000000000000000000000000000000811633811480156110ff575b61109c9150612082565b601354918383106110ed576110d5610c8c857f704ef265c2f2ab6759468a12c34cb227d7b6431813a9e4921887b9e59d2a766d95611bf2565b601354604080519586526020860191909152911692a2005b604051637962b8d160e11b8152600490fd5b50602060049160405192838092634aa8220160e11b82525afa908115610ff45761109c9183915f91611135575b50163314611092565b611156915060203d811161115c575b61114e8183610a15565b81019061206d565b5f61112c565b503d611144565b346103c6576003196020368201126103c65760048035916001600160401b03908184116103c65760809084360301126103c65761119e610a36565b90838301358181116103c6576111b990843691870101610aa6565b825260248401358181116103c6576111d690843691870101610aa6565b602083015260448401358181116103c6576111f690843691870101610aa6565b604083015260648401359081116103c657610482936104769361121c9236920101610aa6565b60608201526120fb565b346103c65760203660031901126103c65761123f611fc1565b507f0000000000000000000000000000000000000000000000000000000000000000600435036112745761048261095161200f565b60405162461bcd60e51b8152602060048201526011602482015270125b9d985b1a5908185b5a5b985b081251607a1b6044820152606490fd5b346103c6575f8060031936011261051c576040519080600190815480831c92808216928315611362575b60209283861085146104fe5785885260208801949081156104dd575060011461130a576104828761047681890382610a15565b60015f5294509192917fb10e2d527612073b26eecdfd717e6a320cf44b4afac2b0732d9fcbe2b7fa0cf65b8386106113515750505091019050610476826104825f80610466565b805485870152948201948101611335565b93607f16936112d7565b346103c65760403660031901126103c657602061092560243561138e81610677565b600435612421565b346103c6576113a436610713565b505060405162461bcd60e51b815260206004820152602c60248201527f416d696e616c732061726520736f756c626f756e6420616e642063616e6e6f7460448201526b08189948185c1c1c9bdd995960a21b6064820152608490fd5b346103c6575f3660031901126103c6576020601354604051908152f35b346103c65760208061142e36610ee0565b929160018060a01b03165f526017825260405f2083604051948593843782019081520301902054604051908152f35b346103c6575f3660031901126103c6576007546040516001600160a01b039091168152602090f35b346103c65760803660031901126103c6576114a16004356105b0565b6114ac6024356105b0565b6064356001600160401b0381116103c657366023820112156103c6576114dc903690602481600401359101610a70565b50611e3d565b346103c6575f3660031901126103c6576040517f00000000000000000000000000000000000000000000000000000000000000006001600160a01b03168152602090f35b346103c65760203660031901126103c65760016004350361156d576104826104767f000000000000000000000000000000000000000000000000000000000000000061255e565b60405162461bcd60e51b8152602060048201526014602482015273151bdad95b88191bd95cc81b9bdd08195e1a5cdd60621b6044820152606490fd5b346103c6575f3660031901126103c6576040517f00000000000000000000000000000000000000000000000000000000000000006001600160a01b03168152602090f35b346103c6576101203660031901126103c6576004803536610124116103c657611640337f00000000000000000000000000000000000000000000000000000000000000006001600160a01b031614611df1565b5f5b6008811061164c57005b61165581610681565b61165e81612251565b35611672575b61166d9061222f565b611642565b60075461168f906001600160a01b03165b6001600160a01b031690565b61169882612251565b60408051631280509760e31b8152913586830190815290929160209182908290819083010381865afa918215610ff4575f926117dd575b5050156117cd575f611704916116e485612251565b3590845180809581946379b68ad360e01b83528b83019190602083019252565b03915afa8015610ff45783915f916117a9575b5061172182610681565b61172a81610681565b0361179a57508061173d61166d92612251565b3561175982611754865f52600860205260405f2090565b6106b6565b5561176381612251565b3561176d82610681565b81847f743915b475b22ca00aa554c29ce00e9db3cc0f71ade483b0f8bd76fc45bb3e9a5f80a49050611664565b516361075f6560e01b81528390fd5b6117c4913d8091833e6117bc8183610a15565b8101906122bf565b5090505f611717565b81516361075f6560e01b81528590fd5b6117fc9250803d10611803575b6117f48183610a15565b810190612268565b5f806116cf565b503d6117ea565b346103c6575f3660031901126103c657604080516001600160a01b037f0000000000000000000000000000000000000000000000000000000000000000811682527f0000000000000000000000000000000000000000000000000000000000000000166020820152f35b346103c6575f3660031901126103c65760206040517f00000000000000000000000000000000000000000000000000000000000000008152f35b346103c65760403660031901126103c6576004356118cb816105b0565b602435906118d8826105b0565b60018060a01b038091165f52600560205260405f2091165f52602052602060ff60405f2054166040519015158152f35b346103c65760203660031901126103c657600435611925816105b0565b6001600160a01b039061195b337f0000000000000000000000000000000000000000000000000000000000000000841614611df1565b165f908152601560205260409020805460ff19169055005b346103c65760403660031901126103c65760043561199081610677565b602435906119c8337f00000000000000000000000000000000000000000000000000000000000000006001600160a01b031614611df1565b6007546119dd906001600160a01b0316611683565b604051631280509760e31b815260048101849052602081602481855afa908115610ff4575f91611abd575b5015611a8f576040516379b68ad360e01b815260048101849052905f90829060249082905afa8015610ff45782915f91611aa1575b50611a4782610681565b611a5081610681565b03611a8f5781611a5f8261069f565b55611a6981610681565b7f0dbf53d4430a95d04d937e99c21904547d4e641431e23c6d91c17afa933096845f80a3005b6040516361075f6560e01b8152600490fd5b611ab4913d8091833e6117bc8183610a15565b5090505f611a3d565b611ad5915060203d8111611803576117f48183610a15565b5f611a08565b15611ae257565b60405162461bcd60e51b815260206004820152601860248201527f4552433732313a20696e76616c696420746f6b656e20494400000000000000006044820152606490fd5b908160209103126103c6575190565b6040513d5f823e3d90fd5b634e487b7160e01b5f52601160045260245ffd5b9061271091828102928184041490151715611b6c57565b611b41565b600281901b91906001600160fe1b03811603611b6c57565b634e487b7160e01b5f52601260045260245ffd5b8015611ba95760640490565b611b89565b8115611ba9570490565b9060028201809211611b6c57565b9060208201809211611b6c57565b91908201809211611b6c57565b90620f4240918203918211611b6c57565b91908203918211611b6c57565b9066038d7ea4c680003410610caa57601354604051637726dafd60e01b81526004810191909152602481018290526020816044816001600160a01b037f0000000000000000000000000000000000000000000000000000000000000000165afa8015610ff457611c77915f91611d5f575b5083611e9a565b611c91611c8382611b55565b670de0b6b3a7640000900490565b9060135492620f4240611ca48486611bd4565b11611d24575b611cd9610c8c847fc6f7c174edbf811379339d42d7025cd8bfb103e0a8aba7c1b092f64fcfb1d7b59596611bd4565b6001600160a01b03165f8181526016602090815260409182902054601254601354845195865292850195909552918301919091526060820192909252608081019190915260a090a190565b7fc6f7c174edbf811379339d42d7025cd8bfb103e0a8aba7c1b092f64fcfb1d7b59250611cd9610c8c611d5686611be1565b94505050611caa565b611d77915060203d8111610fed57610fde8183610a15565b5f611c70565b908060209392818452848401375f828201840152601f01601f1916010190565b6001600160a01b0391821681529116602082015260606040820181905261073893910191611d7d565b94939291604092611dec9260018060a01b03168752606060208801526060870191611d7d565b930152565b15611df857565b60405162461bcd60e51b815260206004820152601a60248201527f4f6e6c7920666163746f72792063616e2063616c6c20746869730000000000006044820152606490fd5b60405162461bcd60e51b815260206004820152602f60248201527f416d696e616c732061726520736f756c626f756e6420616e642063616e6e6f7460448201526e081899481d1c985b9cd9995c9c9959608a1b6064820152608490fd5b6001600160a01b03165f908152601660205260409020805482810191908210611b6c5755601254908101809111611b6c57601255565b6001600160a01b03165f908152601660205260409020805482810391908211611b6c5755601254908103908111611b6c57601255565b9066038d7ea4c680006001600160801b0380931602918216918203611b6c57565b6001600160a01b03165f908152601660205260409020546012548015611fb357606482029180830460641490151715611b6c57611f6391611bae565b80611f96575060645b6001600a6001600160801b038093160491821610611f8e575b61073890611f06565b506001611f85565b611fa2611fae91611b9d565b6001600160801b031690565b611f6c565b505067016345785d8a000090565b6040519061010082018281106001600160401b038211176109da576040528160e05f918281528260208201528260408201528260608201528260808201528260a08201528260c08201520152565b6040519061010082018281106001600160401b038211176109da5760405281600a548152600b546020820152600c546040820152600d546060820152600e546080820152600f5460a082015260105460c082015260e0601154910152565b908160209103126103c65751610738816105b0565b1561208957565b60405162461bcd60e51b815260206004820152603060248201527f4f6e6c7920666163746f7279206f722067656e652061756374696f6e2063616e60448201526f207472616e7366657220656e6572677960801b6064820152608490fd5b346120ee57565b6120f83433611bff565b50565b6107386121576121ee612223936121d56121c78251926121a36121a96020830151926121a3603b606060408401519301519560296040519c8d809c683d913730b6b2911d1160b91b6020830152602081519485930191016103ca565b8a0171111610113232b9b1b934b83a34b7b7111d1160711b602982015261218782518093602086850191016103ca565b0101600d906c1116101134b6b0b3b2911d101160991b81520190565b90610ac1565b71222c202261747472696275746573223a205b60701b815260120190565b615d7d60f01b815260020190565b03916121e9601f1993848101835282610a15565b612f67565b6040517f646174613a6170706c69636174696f6e2f6a736f6e3b6261736536342c0000006020820152938491603d83016121a3565b03908101835282610a15565b5f198114611b6c5760010190565b634e487b7160e01b5f52603260045260245ffd5b60088110156122635760051b60240190565b61223d565b908160209103126103c6575161073881610709565b81601f820112156103c657805161229381610a55565b926122a16040519485610a15565b818452602082840101116103c65761073891602080850191016103ca565b916060838303126103c65782516122d5816105b0565b9260208101516122e481610677565b9260408201516001600160401b0381116103c657610738920161227d565b5f9081526008602052604081208180526020526040812054908115612325575090565b604091506009602052205490565b5f52600860205260405f2060025f5260205260405f205480156123535790565b50600960205260405f205490565b5f52600860205260405f2060015f5260205260405f205480156123535790565b5f52600860205260405f2060035f5260205260405f205480156123535790565b5f52600860205260405f2060045f5260205260405f205480156123535790565b5f52600860205260405f2060055f5260205260405f205480156123535790565b5f52600860205260405f2060065f5260205260405f205480156123535790565b5f52600860205260405f2060075f5260205260405f205480156123535790565b5f5260086020526124358160405f206106b6565b54908115612441575090565b61244b915061069f565b5490565b6040519061245c826109bf565b5f8252565b91906040838203126103c65782516001600160401b0381116103c65760209161248b91850161227d565b92015161073881610677565b6124a090612302565b8015612502576006546040516379b68ad360e01b815260048101929092525f90829060249082906001600160a01b03165afa908115610ff4575f916124e3575090565b6124fe913d8091833e6124f68183610a15565b810190612461565b5090565b5060405161250f816109bf565b5f815290565b6124a090612333565b6124a090612361565b6124a090612381565b6124a0906123a1565b6124a0906123c1565b6124a0906123e1565b6124a090612401565b906124a091612421565b6107389061256b81612d68565b906125aa6028604051809467416d696e616c202360c01b602083015261259a81518092602086860191016103ca565b8101036008810185520183610a15565b6125f161267f6125bc6121e984612742565b6040517f646174613a696d6167652f7376672b786d6c3b6261736536342c0000000000006020820152928391603a83016121a3565b0392612605601f1994858101855284610a15565b61267a604051948561266e602082016041907f54686973204e465420726570726573656e74732061206469676974616c20706581527f742e2054686973204e46542063616e6e6f74206265207472616e7366657265646020820152601760f91b60408201520190565b03908101865285610a15565b6128fb565b91612688610a36565b9384526020840152604083015260608201526120fb565b6040519060a082018281106001600160401b038211176109da576040908152606483527f3c73766720786d6c6e733d22687474703a2f2f7777772e77332e6f72672f323060208401527f30302f73766722207072657365727665417370656374526174696f3d22784d69908301527f6e594d696e206d656574222076696577426f783d2230203020313030302031306060830152631818111f60e11b6080830152565b61073861278b6121a3926122236128cc61275a61269f565b926128c06127b06128b46128a661277085612497565b9461283160409687519b8c916121a360209d8e850190610ac1565b039a61279f601f199c8d8101835282610a15565b61282588519687928d840190610ac1565b7f3c672069643d22736861646f77223e3c656c6c697073652066696c6c3d22233381527f633364353522206f7061636974793d22302e3522202063783d2235303522206360208201527f793d22393731222072783d22313633222072793d223132222f3e3c2f673e00006040820152605e0190565b038b8101865285610a15565b6128518961282561284184612515565b6121a38a51988994850190610ac1565b612861896128256128418461251e565b6128718961282561284184612527565b6128818961282561284184612530565b6128918961282561284184612539565b6128a18961282561284184612542565b61254b565b84519a8b9389850190610ac1565b03868101895288610a15565b51958693840190610ac1565b651e17b9bb339f60d11b815260060190565b604051906128eb826109df565b60018252605b60f81b6020830152565b6129036128de565b905f805b600881106129475750505061073861292c916129396040519384926020840190610ac1565b605d60f81b815260010190565b03601f198101835282610a15565b61295081610681565b61295a8184612421565b8061296f575b5061296a9061222f565b612907565b600654919491612987906001600160a01b0316611683565b604080516331a9108f60e11b81526004810184905260209391928490829060249082905afa908115610ff4578691612ae3575b506129c488612c33565b9188612ab2575b6129d490612d68565b906129e7906001600160a01b0316612e5c565b925194859485016129f791610ac1565b6e3d913a3930b4ba2fba3cb832911d1160891b8152600f01612a199083610ac1565b70222c2276616c7565223a2247656e65202360781b8152601101612a3c91610ac1565b61227d60f01b81526002016f163d913a3930b4ba2fba3cb832911d1160811b8152601001612a6991610ac1565b721021b932b0ba37b91116113b30b63ab2911d1160691b8152601301612a8e91610ac1565b61227d60f01b815260020103601f1981018252612aab9082610a15565b925f612960565b94612ace612adb6129d49261293987519384928a840190610ac1565b600b60fa1b815260010190565b9590506129cb565b612afa9150843d861161115c5761114e8183610a15565b5f6129ba565b60405190612b0d826109df565b600a825269109858dad9dc9bdd5b9960b21b6020830152565b60405190612b33826109df565b600482526341726d7360e01b6020830152565b60405190612b53826109df565b600482526315185a5b60e21b6020830152565b60405190612b73826109df565b60048252634561727360e01b6020830152565b60405190612b93826109df565b6004825263426f647960e01b6020830152565b60405190612bb3826109df565b60048252634661636560e01b6020830152565b60405190612bd3826109df565b600582526409adeeae8d60db1b6020830152565b60405190612bf4826109df565b600d82526c4d697363656c6c616e656f757360981b6020830152565b60405190612c1d826109df565b60078252662ab735b737bbb760c91b6020830152565b612c3c81610681565b8015612cff57612c4b81610681565b60018114612cf657612c5c81610681565b60028114612ced57612c6d81610681565b60038114612ce457612c7e81610681565b60048114612cdb57612c8f81610681565b60058114612cd257612ca081610681565b60068114612cc95780612cb4600792610681565b14612cc157610738612c10565b610738612be7565b50610738612bc6565b50610738612ba6565b50610738612b86565b50610738612b66565b50610738612b46565b50610738612b26565b50610738612b00565b90612d1282610a55565b612d1f6040519182610a15565b8281528092612d30601f1991610a55565b0190602036910137565b8051156122635760200190565b8051600110156122635760210190565b908151811015612263570160200190565b8015612de757805f8082805b612dcf5750612d8281612d08565b935b612d8e5750505090565b5f198101908111611b6c578092600a9160308383068101809111611b6c5760f81b6001600160f81b031916841a90612dc69087612d57565b53049182612d84565b9250612ddc600a9161222f565b920480849391612d74565b50604051612df4816109df565b60018152600360fc1b602082015290565b8015611b6c575f190190565b15612e1857565b606460405162461bcd60e51b815260206004820152602060248201527f537472696e67733a20686578206c656e67746820696e73756666696369656e746044820152fd5b60405190612e69826109fa565b602a825260403660208401376030612e8083612d3a565b536078612e8c83612d47565b536029905b60018211612ead5761073891506001600160a01b031615612e11565b600f811690601082101561226357612ef2916f181899199a1a9b1b9c1cb0b131b232b360811b901a612edf8486612d57565b5360041c60016001609c1b031691612e05565b90612e91565b60405190606082018281106001600160401b038211176109da57604052604082527f6768696a6b6c6d6e6f707172737475767778797a303132333435363738392b2f6040837f4142434445464748494a4b4c4d4e4f505152535455565758595a61626364656660208201520152565b80511561305057612f76612ef8565b612f92612f8d612f868451611bb8565b6003900490565b611b71565b91612fa4612f9f84611bc6565b612d08565b92835280815182019060208501935b828210612ff457505050600390510680600114612fe357600214612fd5575090565b603d60f81b5f199091015290565b50613d3d60f01b6001199091015290565b90919360049060038094019384516001603f81818460121c16880101519260f893841b8652828282600c1c1689010151841b8387015282828260061c1689010151841b60028701521686010151901b9082015201939190612fb3565b5061073861244f56fea264697066735822122072c7e7ffc84a215d73413559959851182c33ff1c97dea0ff6d109af06284598264736f6c63430008140033290decd9548b62a8d60345a988386fc84ba6bc95484008f6362f93160ef3e563e90b7bceb6e7df5418fb78d8ee546e97c83a08bbccc01a0644d599ccd2a7c2e06101203461038e576001600160401b0390601f610f1238819003918201601f1916830191848311848410176103925780849260809460405283398101031261038e5780519160208201519060408301519060608094015194608052670de0b6b3a764000093838503905f8095128683128116908784139015161761037a578482131561034957711340daa0d5f769dba1915cef59f0815a55068286947d57115e47018c7177eebf7cd370a3356a1b7863008a5ae8028c72b88642849460018060801b031060071b9082821c1160061b1781811c63ffffffff1060051b1781811c61ffff1060041b1781811c60ff1060031b1781811c600f1060021b1781811c60031060011b1781811c60011017908382609f03011b609f1c90605f19017d0267a36c0c95b3975ab3ee5b203a7614a3f75373f047d803ae7b6687f2b302926c0b7a86d7375468fac667a0a527826d01920d8043ca89b5239253284e42816d0a0f742023def783a307a986912e816d13cdffb29d51d99322bdff5f2211816d0df99ac502031bf953eff472fdcc816d0388eaa27412d5aca026815d636e816c465772b2bbbb5f824b15207a308101028c1d01028a1d0102881d0102861d0102841d0102821d019160016c0504a838426634cdd8738f543560611b0319916cb9a025d814b29c212b8b1a07cd1990826d02384773bdf1ac5676facced609019816c8c3f38e95a6b1ff2ab1c3b343619816d02247f7a7b6594320649aa03aba1816d0139601a2efabe717e604cbb4894816c29508e458543d8aa4df2abee78810102891d0102871d0102851d0102831d0102901d0102010502010160ae1d8060a0521215610304578183820193841291129080158216911516176102f0578160c052671bc16d674ec80000918281029281840514901517156102f0575060e052610100908152604051610b6b91826103a7833960805182818160d9015281816102700152818161068801526109ab015260a051826106c3015260c051826103dc015260e051826103fe015251816104e00152f35b634e487b7160e01b81526011600452602490fd5b60405162461bcd60e51b815260206004820152601b60248201527f4e4f4e5f4e454741544956455f44454341595f434f4e5354414e5400000000006044820152606490fd5b60405162461bcd60e51b815260206004820152600960248201526815539111519253915160ba1b6044820152606490fd5b634e487b7160e01b85526011600452602485fd5b5f80fd5b634e487b7160e01b5f52604160045260245ffdfe60406080815260049081361015610014575f80fd5b5f803560e01c80633eac92aa146101835780634dfdd8c8146101605780636d9d33b7146101415780637726dafd1461011f5780637f80adc9146100fc578063dc38679c146100c1578063f1491251146100a05763f466d4ab14610075575f80fd5b3461009d578160031936011261009d57506100966020926024359035610680565b9051908152f35b80fd5b5090346100bd57816003193601126100bd57602090516127108152f35b5080fd5b5090346100bd57816003193601126100bd57602090517f00000000000000000000000000000000000000000000000000000000000000008152f35b5090346100bd57816003193601126100bd576020905167016345785d8a00008152f35b503461009d578160031936011261009d575061009660209260243590356108d5565b503461009d57602036600319011261009d5750610096602092356103da565b5090346100bd57816003193601126100bd5760209051678ac7230489e800008152f35b5082903461009d57602036600319011261009d578135600a8110156101e45750678ac7230489e80000915b61271092808402938404036101d157602083670de0b6b3a7640000865191048152f35b634e487b7160e01b825260119052602490fd5b620f42408111156101ff575067016345785d8a0000916101ae565b603281101561030257603290045b610222670de0b6b3a764000091828102610680565b8061026e57505067016345785d8a00005b678ac7230489e80000908181111561024c5750916101ae565b92905067016345785d8a0000808410610266575b506101ae565b925084610260565b7f0000000000000000000000000000000000000000000000000000000000000000908181106102a857505050678ac7230489e80000610233565b82810290810483036102ef576102c6916102c19161088b565b6108a9565b0467016345785d8a000090810180911115610233575b506011602492634e487b7160e01b835252fd5b634e487b7160e01b845260118552602484fd5b6103e881101561032d5760311981019081116102dc5760c89004600101806001116102dc575b61020d565b6127108082101561035b57506103e71981019081116102dc576105dc9004600601806006116102dc5761020d565b90620186a08110156103a75761270f1981019081116103945704600c0180600c111561032857506011602492634e487b7160e01b835252fd5b634e487b7160e01b835260118452602483fd5b6201869f198101915081116102dc5761c3509004601501806015111561032857506011602492634e487b7160e01b835252fd5b7f0000000000000000000000000000000000000000000000000000000000000000017f000000000000000000000000000000000000000000000000000000000000000005670de0b6b3a763ffff19015f81131561064f57670de0b6b3a76400007d57115e47018c7177eebf7cd370a3356a1b7863008a5ae8028c72b8864284826fffffffffffffffffffffffffffffffff1060071b83811c67ffffffffffffffff1060061b1783811c63ffffffff1060051b1783811c61ffff1060041b1783811c60ff1060031b1783811c600f1060021b1783811c60031060011b1783811c6001101792711340daa0d5f769dba1915cef59f0815a55066060918286609f03011b609f1c7f000000000000000000000000000000000000000000000000000000000000000095605f19017d0267a36c0c95b3975ab3ee5b203a7614a3f75373f047d803ae7b6687f2b302926c0b7a86d7375468fac667a0a527826d01920d8043ca89b5239253284e42816d0a0f742023def783a307a986912e816d13cdffb29d51d99322bdff5f2211816d0df99ac502031bf953eff472fdcc816d0388eaa27412d5aca026815d636e816c465772b2bbbb5f824b15207a308101028c1d01028a1d0102881d0102861d0102841d0102821d0191780a09507084cc699bb0e71ea869ffffffffffffffffffffffff19916cb9a025d814b29c212b8b1a07cd1990826d02384773bdf1ac5676facced609019816c8c3f38e95a6b1ff2ab1c3b343619816d02247f7a7b6594320649aa03aba1816d0139601a2efabe717e604cbb4894816c29508e458543d8aa4df2abee78810102891d0102871d0102851d0102831d0102901d0102010502010160ae1d02055f0390565b60405162461bcd60e51b815260206004820152600960248201526815539111519253915160ba1b6044820152606490fd5b6106e96001927f0000000000000000000000000000000000000000000000000000000000000000926106bf670de0b6b3a76400008096819401026103da565b90037f00000000000000000000000000000000000000000000000000000000000000000205610702565b908181029181830514901517156106fe570590565b5f80fd5b680248ce36a70cb26b3e1981131561088657680755bf798b4a1bf1e5811215610852576503782dace9d990604e1b0574029d9dc38563c32e5c2f6dc192ee70ef65f9978af36bb17217f7d1cf79abc9e3b398916060906001605f1b8482841b0501821d9384029003806c10fe68e7fd37d0007b713f7650810102821d906e0587f503bb6ea29d25fcb7401964506e05180bb14799ab47a8a8cb2a527d57826e02c72388d9f74f51a9331fed693f1419816db1bbb201f443cf962f1a1d3db4a5816d1a521255e34f6a5061b25ef1c9c319816d0277594991cfc85f6e2461837cd9816c240c330e9fb2d9cbaf0fd5aafb198101028d1d01028b1d0102891d0102871d0102851d01936d360d7aeea093263ecc6e0ecb291760621b936d02d16720577bd19bf614176fe9ea810190846d01d3967ed30fc4f89c02bab570811991010102901d01020105029060c3031c90565b60405162461bcd60e51b815260206004820152600c60248201526b4558505f4f564552464c4f5760a01b6044820152606490fd5b505f90565b8115610895570490565b634e487b7160e01b5f52601260045260245ffd5b90678963dd8c2c5e000091808302928304036108c157565b634e487b7160e01b5f52601160045260245ffd5b8115610b2f575f90600a811015610920575050678ac7230489e800005b612710808302928304036108c157670de0b6b3a76400008092048181029181830414901517156108c1570490565b620f424081111561093b57505067016345785d8a00006108f2565b6032811015610a4057603290045b61095e670de0b6b3a764000091828102610680565b806109a95750505067016345785d8a00005b678ac7230489e80000908181111561098857506108f2565b905067016345785d8a00008082106109a1575b506108f2565b90505f61099b565b7f0000000000000000000000000000000000000000000000000000000000000000908181106109e45750505050678ac7230489e80000610970565b8281029081048303610a2c576109fd916102c19161088b565b049067016345785d8a0000918201809211610a185750610970565b634e487b7160e01b81526011600452602490fd5b634e487b7160e01b84526011600452602484fd5b6103e8811015610a7f576031198101908111610a6b5760c8900460010180600111610a6b575b610949565b634e487b7160e01b82526011600452602482fd5b61271080821015610aad57506103e7198101908111610a6b576105dc900460060180600611610a6b57610949565b90620186a0811015610afb5761270f198101908111610ae75704600c0180600c1115610a6657634e487b7160e01b82526011600452602482fd5b634e487b7160e01b83526011600452602483fd5b6201869f19810191508111610a6b5761c35090046015018060151115610a6657634e487b7160e01b82526011600452602482fd5b50505f9056fea2646970667358221220452c9a4dcbbaaa05e86628b344880711e1bbb58408d9aafd3a597f7c6b9db78664736f6c634300081400334ff133ee8b33a0ce106c0a56a47d6c3f1ef6caee013f948b449a25096a4010a0a26469706673582212209502d7dae53b0bd29f695a89771ddca6b97fe6f575ef435d8f1ff50412fccbed64736f6c63430008140033","linkReferences":{}},"methodIdentifiers":{"aminalsByIndex(uint256)":"7828a458","breedAminals(address,address)":"5419fa40","geneAuction()":"95504402","genesNFT()":"0847335c","getAminalByIndex(uint256)":"ce178239","getAminalVisualsByAddress(address)":"313c9721","initialAminalSpawned()":"00a41372","initialize(address,address,address)":"c0c53b8b","isAminal(address)":"5b63648b","loveVRGDA()":"8b9595ff","owner()":"8da5cb5b","proposals()":"55ef20e6","renounceOwnership()":"715018a6","setup()":"ba0bba40","spawnAminal(address,address,uint256[8])":"7b5cbc8d","spawnInitialAminals((uint256,uint256,uint256,uint256,uint256,uint256,uint256,uint256)[])":"8d549a25","totalAminals()":"9351f7b4","transferOwnership(address)":"f2fde38b"},"id":47}