{"abi":[{"type":"constructor","inputs":[],"stateMutability":"nonpayable"},{"type":"function","name":"aminalsNFT","inputs":[],"outputs":[{"name":"","type":"address","internalType":"address"}],"stateMutability":"view"},{"type":"function","name":"approve","inputs":[{"name":"to","type":"address","internalType":"address"},{"name":"tokenId","type":"uint256","internalType":"uint256"}],"outputs":[],"stateMutability":"nonpayable"},{"type":"function","name":"balanceOf","inputs":[{"name":"owner","type":"address","internalType":"address"}],"outputs":[{"name":"","type":"uint256","internalType":"uint256"}],"stateMutability":"view"},{"type":"function","name":"burn","inputs":[{"name":"id","type":"uint256","internalType":"uint256"}],"outputs":[],"stateMutability":"nonpayable"},{"type":"function","name":"currentId","inputs":[],"outputs":[{"name":"","type":"uint256","internalType":"uint256"}],"stateMutability":"view"},{"type":"function","name":"geneFactory","inputs":[],"outputs":[{"name":"","type":"address","internalType":"address"}],"stateMutability":"view"},{"type":"function","name":"geneSVGs","inputs":[{"name":"id","type":"uint256","internalType":"uint256"}],"outputs":[{"name":"","type":"string","internalType":"string"}],"stateMutability":"view"},{"type":"function","name":"geneVisualsCat","inputs":[{"name":"id","type":"uint256","internalType":"uint256"}],"outputs":[{"name":"","type":"uint8","internalType":"enum IAminalStructs.VisualsCat"}],"stateMutability":"view"},{"type":"function","name":"getApproved","inputs":[{"name":"tokenId","type":"uint256","internalType":"uint256"}],"outputs":[{"name":"","type":"address","internalType":"address"}],"stateMutability":"view"},{"type":"function","name":"getGeneInfo","inputs":[{"name":"id","type":"uint256","internalType":"uint256"}],"outputs":[{"name":"svg","type":"string","internalType":"string"},{"name":"category","type":"uint8","internalType":"enum IAminalStructs.VisualsCat"}],"stateMutability":"view"},{"type":"function","name":"isApprovedForAll","inputs":[{"name":"owner","type":"address","internalType":"address"},{"name":"operator","type":"address","internalType":"address"}],"outputs":[{"name":"","type":"bool","internalType":"bool"}],"stateMutability":"view"},{"type":"function","name":"mint","inputs":[{"name":"to","type":"address","internalType":"address"},{"name":"geneSVG","type":"string","internalType":"string"},{"name":"visualsCategory","type":"uint8","internalType":"enum IAminalStructs.VisualsCat"}],"outputs":[],"stateMutability":"nonpayable"},{"type":"function","name":"name","inputs":[],"outputs":[{"name":"","type":"string","internalType":"string"}],"stateMutability":"view"},{"type":"function","name":"owner","inputs":[],"outputs":[{"name":"","type":"address","internalType":"address"}],"stateMutability":"view"},{"type":"function","name":"ownerOf","inputs":[{"name":"tokenId","type":"uint256","internalType":"uint256"}],"outputs":[{"name":"","type":"address","internalType":"address"}],"stateMutability":"view"},{"type":"function","name":"renounceOwnership","inputs":[],"outputs":[],"stateMutability":"nonpayable"},{"type":"function","name":"safeTransferFrom","inputs":[{"name":"from","type":"address","internalType":"address"},{"name":"to","type":"address","internalType":"address"},{"name":"tokenId","type":"uint256","internalType":"uint256"}],"outputs":[],"stateMutability":"nonpayable"},{"type":"function","name":"safeTransferFrom","inputs":[{"name":"from","type":"address","internalType":"address"},{"name":"to","type":"address","internalType":"address"},{"name":"tokenId","type":"uint256","internalType":"uint256"},{"name":"data","type":"bytes","internalType":"bytes"}],"outputs":[],"stateMutability":"nonpayable"},{"type":"function","name":"setApprovalForAll","inputs":[{"name":"operator","type":"address","internalType":"address"},{"name":"approved","type":"bool","internalType":"bool"}],"outputs":[],"stateMutability":"nonpayable"},{"type":"function","name":"setFactory","inputs":[{"name":"geneFactory_","type":"address","internalType":"address"}],"outputs":[],"stateMutability":"nonpayable"},{"type":"function","name":"setup","inputs":[{"name":"aminalsNFT_","type":"address","internalType":"address"}],"outputs":[],"stateMutability":"nonpayable"},{"type":"function","name":"supportsInterface","inputs":[{"name":"interfaceId","type":"bytes4","internalType":"bytes4"}],"outputs":[{"name":"","type":"bool","internalType":"bool"}],"stateMutability":"view"},{"type":"function","name":"symbol","inputs":[],"outputs":[{"name":"","type":"string","internalType":"string"}],"stateMutability":"view"},{"type":"function","name":"tokenURI","inputs":[{"name":"tokenId","type":"uint256","internalType":"uint256"}],"outputs":[{"name":"","type":"string","internalType":"string"}],"stateMutability":"view"},{"type":"function","name":"transferFrom","inputs":[{"name":"from","type":"address","internalType":"address"},{"name":"to","type":"address","internalType":"address"},{"name":"tokenId","type":"uint256","internalType":"uint256"}],"outputs":[],"stateMutability":"nonpayable"},{"type":"function","name":"transferOwnership","inputs":[{"name":"newOwner","type":"address","internalType":"address"}],"outputs":[],"stateMutability":"nonpayable"},{"type":"event","name":"Approval","inputs":[{"name":"owner","type":"address","indexed":true,"internalType":"address"},{"name":"approved","type":"address","indexed":true,"internalType":"address"},{"name":"tokenId","type":"uint256","indexed":true,"internalType":"uint256"}],"anonymous":false},{"type":"event","name":"ApprovalForAll","inputs":[{"name":"owner","type":"address","indexed":true,"internalType":"address"},{"name":"operator","type":"address","indexed":true,"internalType":"address"},{"name":"approved","type":"bool","indexed":false,"internalType":"bool"}],"anonymous":false},{"type":"event","name":"FactorySet","inputs":[{"name":"geneFactory","type":"address","indexed":false,"internalType":"address"}],"anonymous":false},{"type":"event","name":"Initialized","inputs":[{"name":"version","type":"uint8","indexed":false,"internalType":"uint8"}],"anonymous":false},{"type":"event","name":"OwnershipTransferred","inputs":[{"name":"previousOwner","type":"address","indexed":true,"internalType":"address"},{"name":"newOwner","type":"address","indexed":true,"internalType":"address"}],"anonymous":false},{"type":"event","name":"Setup","inputs":[{"name":"aminalsNFT","type":"address","indexed":false,"internalType":"address"}],"anonymous":false},{"type":"event","name":"Transfer","inputs":[{"name":"from","type":"address","indexed":true,"internalType":"address"},{"name":"to","type":"address","indexed":true,"internalType":"address"},{"name":"tokenId","type":"uint256","indexed":true,"internalType":"uint256"}],"anonymous":false},{"type":"error","name":"OnlyFactory","inputs":[]},{"type":"error","name":"OnlyNFTOwner","inputs":[]}],"bytecode":{"object":"0x60803462000369576001600160401b039060408181018381118382101762000355578152600c82526020916b416d696e616c2047656e657360a01b838201528151938285018581108282111762000355578352600585526447454e455360d81b84860152815181811162000355575f948554916001948584811c941680156200034a575b8385101462000336578190601f94858111620002e3575b5083908583116001146200028057899262000274575b50505f19600383901b1c191690851b1786555b8651928311620002605783548481811c9116801562000255575b828210146200024157828111620001f9575b50809183116001146200019357508495829394959262000187575b50505f19600383901b1c191690821b1790555b6006805462010000600160b01b0319811633601081811b62010000600160b01b03169290921790935592519391921c6001600160a01b0316907f8be0079c531659141344cd1fd0a4f28419497f9722a3daafe3b4186f6b6457e09080a361205f90816200036e8239f35b015190505f806200010a565b90601f198316968487528287209287905b898210620001e1575050838596979810620001c8575b505050811b0190556200011d565b01515f1960f88460031b161c191690555f8080620001ba565b808785968294968601518155019501930190620001a4565b8487528187208380860160051c82019284871062000237575b0160051c019085905b8281106200022b575050620000ef565b8881550185906200021b565b9250819262000212565b634e487b7160e01b87526022600452602487fd5b90607f1690620000dd565b634e487b7160e01b86526041600452602486fd5b015190505f80620000b0565b898052848a208894509190601f1984168b5b87828210620002cc5750508411620002b3575b505050811b018655620000c3565b01515f1960f88460031b161c191690555f8080620002a5565b8385015186558b9790950194938401930162000292565b9091508880528389208580850160051c8201928686106200032c575b918991869594930160051c01915b8281106200031d5750506200009a565b8b81558594508991016200030d565b92508192620002ff565b634e487b7160e01b88526022600452602488fd5b93607f169362000083565b634e487b7160e01b5f52604160045260245ffd5b5f80fdfe60806040526004361015610011575f80fd5b5f3560e01c806301ffc9a7146101b457806306fdde03146101af578063081812fc146101aa578063095ea7b3146101a557806323b872dd146101a05780632b4205f21461019b57806342842e0e1461019657806342966c68146101915780635bb478081461018c5780636352211e1461018757806366d38203146101825780636a4b88831461017d57806370a0823114610178578063715018a61461017357806379b68ad31461016e5780638da5cb5b1461016957806395d89b4114610164578063a22cb4651461015f578063a913614e1461015a578063b473522c14610155578063b88d4fde14610150578063c87b56dd1461014b578063cc66ddc814610146578063e00dd16114610141578063e985e9c51461013c5763f2fde38b14610137575f80fd5b61103d565b610fe1565b610fc4565b610f86565b610cc4565b610c3c565b610b85565b610b5d565b610a75565b6109d1565b6109a5565b61094a565b6108e8565b610849565b6107df565b6106f6565b6106d8565b61066c565b610595565b61056e565b61053a565b6104e6565b6103d5565b610379565b610297565b6101cf565b6001600160e01b03198116036101cb57565b5f80fd5b346101cb5760203660031901126101cb5760206004356101ee816101b9565b63ffffffff60e01b166380ac58cd60e01b811490811561022c575b811561021b575b506040519015158152f35b6301ffc9a760e01b1490505f610210565b635b5e139f60e01b81149150610209565b5f5b83811061024e5750505f910152565b818101518382015260200161023f565b906020916102778151809281855285808601910161023d565b601f01601f1916010190565b90602061029492818152019061025e565b90565b346101cb575f8060031936011261037657604051908080546102b881610ead565b8085529160019180831690811561034c57506001146102f2575b6102ee856102e281870382610bfe565b60405191829182610283565b0390f35b80809450527f290decd9548b62a8d60345a988386fc84ba6bc95484008f6362f93160ef3e5635b8284106103345750505081016020016102e2826102ee6102d2565b80546020858701810191909152909301928101610319565b8695506102ee969350602092506102e294915060ff191682840152151560051b82010192936102d2565b80fd5b346101cb5760203660031901126101cb57602061039760043561124d565b6040516001600160a01b039091168152f35b600435906001600160a01b03821682036101cb57565b602435906001600160a01b03821682036101cb57565b346101cb5760403660031901126101cb576103ee6103a9565b6024356103fa816111b9565b916001600160a01b0380841690821681146104625761042c9361042791331490811561042e575b506111db565b6115bb565b005b6001600160a01b03165f908152600560209081526040808320338452909152902061045c91505b5460ff1690565b5f610421565b60405162461bcd60e51b815260206004820152602160248201527f4552433732313a20617070726f76616c20746f2063757272656e74206f776e656044820152603960f91b6064820152608490fd5b60609060031901126101cb576001600160a01b039060043582811681036101cb579160243590811681036101cb579060443590565b346101cb5761042c6104f7366104b1565b9161050a6105058433611398565b611289565b61146a565b6008111561051957565b634e487b7160e01b5f52602160045260245ffd5b9060088210156105195752565b346101cb5760203660031901126101cb576004355f52600b602052602060ff60405f20541661056c604051809261052d565bf35b346101cb5761042c61057f366104b1565b906040519261058d84610bc1565b5f84526112fd565b346101cb5760203660031901126101cb576001600160a01b03600435816105bb826111b9565b16330361065a576105cb816111b9565b506105d5816111b9565b5f9283918383526004602052604083206bffffffffffffffffffffffff60a01b8154169055168082526003602052604082205f198154019055610633610623845f52600260205260405f2090565b80546001600160a01b0319169055565b7fddf252ad1be2c89b69c2b068fc378daa952ba7f163c4a11628f55a4df523b3ef8280a480f35b604051636a45792360e11b8152600490fd5b346101cb5760203660031901126101cb577f1edf3afd4ac789736e00d216cd88be164ddcef26a6eedcc30cdb0cb62f3741b160206106a86103a9565b6106b0611112565b600880546001600160a01b0319166001600160a01b03929092169182179055604051908152a1005b346101cb5760203660031901126101cb5760206103976004356111b9565b346101cb5760203660031901126101cb5761070f6103a9565b6107536006549161073760ff8460081c1615809481956107d1575b81156107b1575b50611753565b8261074a600160ff196006541617600655565b610798576117b6565b61075957005b61076961ff001960065416600655565b604051600181527f7f26b83ff96e1f2b6a682f133852f6798a09c465da95921460cefb384740249890602090a1005b6107ac61010061ff00196006541617600655565b6117b6565b303b159150816107c3575b505f610731565b6001915060ff16145f6107bc565b600160ff821610915061072a565b346101cb5760603660031901126101cb576107f86103a9565b6024359067ffffffffffffffff8083116101cb57366023840112156101cb5782600401359081116101cb5736602482850101116101cb576044359160088310156101cb57602461042c94019061180a565b346101cb5760203660031901126101cb576001600160a01b0361086a6103a9565b168015610891575f5260036020526102ee60405f2054604051918291829190602083019252565b60405162461bcd60e51b815260206004820152602960248201527f4552433732313a2061646472657373207a65726f206973206e6f7420612076616044820152683634b21037bbb732b960b91b6064820152608490fd5b346101cb575f8060031936011261037657610901611112565b6006805462010000600160b01b03198116909155819060101c6001600160a01b03167f8be0079c531659141344cd1fd0a4f28419497f9722a3daafe3b4186f6b6457e08280a380f35b346101cb5760203660031901126101cb576004355f52600a60205261099a60405f20600b60205261098260ff60405f20541691610ee5565b906102ee60405193849360408552604085019061025e565b91602084019061052d565b346101cb575f3660031901126101cb5760065460405160109190911c6001600160a01b03168152602090f35b346101cb575f8060031936011261037657604051908060018054916109f583610ead565b8086529282811690811561034c5750600114610a1b576102ee856102e281870382610bfe565b92508083527fb10e2d527612073b26eecdfd717e6a320cf44b4afac2b0732d9fcbe2b7fa0cf65b828410610a5d5750505081016020016102e2826102ee6102d2565b80546020858701810191909152909301928101610a42565b346101cb5760403660031901126101cb57610a8e6103a9565b60243580151581036101cb576001600160a01b03821691338314610b185781610ad5610ae692335f52600560205260405f209060018060a01b03165f5260205260405f2090565b9060ff801983541691151516179055565b604051901515815233907f17307eab39ab6107e8899845ad3d59bd9653f200f220920489ca2b5937696c3190602090a3005b60405162461bcd60e51b815260206004820152601960248201527f4552433732313a20617070726f766520746f2063616c6c6572000000000000006044820152606490fd5b346101cb575f3660031901126101cb576007546040516001600160a01b039091168152602090f35b346101cb575f3660031901126101cb576008546040516001600160a01b039091168152602090f35b634e487b7160e01b5f52604160045260245ffd5b6020810190811067ffffffffffffffff821117610bdd57604052565b610bad565b6040810190811067ffffffffffffffff821117610bdd57604052565b90601f8019910116810190811067ffffffffffffffff821117610bdd57604052565b67ffffffffffffffff8111610bdd57601f01601f191660200190565b346101cb5760803660031901126101cb57610c556103a9565b610c5d6103bf565b6064359167ffffffffffffffff83116101cb57366023840112156101cb57826004013591610c8a83610c20565b92610c986040519485610bfe565b80845236602482870101116101cb576020815f92602461042c98018388013785010152604435916112fd565b346101cb5760203660031901126101cb576004355f818152600260205260409020546102ee91610ea1916102e291610da691610e6c9190610d0f906001600160a01b03161515611b3d565b610e53610e45610d2f610d2a845f52600a60205260405f2090565b610ee5565b610da0610e0c610d65610d5f610d59610d536104558a5f52600b60205260405f2090565b98611c0a565b97611dda565b93611f37565b92610da0604051998a98610da060208b016017907f7b226e616d65223a2022416d696e616c2047656e65202300000000000000000081520190565b90611b80565b7f222c20226465736372697074696f6e223a2022412067656e65204e465420726581527f70726573656e74696e67206120747261697420666f7220416d696e616c73222c60208201526d101131b0ba32b3b7b93c911d101160911b6040820152604e0190565b7f222c2022696d616765223a2022646174613a696d6167652f7376672b786d6c3b81526618985cd94d8d0b60ca1b602082015260270190565b61227d60f01b815260020190565b0391610e67601f1993848101835282610bfe565b611f37565b6040517f646174613a6170706c69636174696f6e2f6a736f6e3b6261736536342c0000006020820152938491603d8301610da0565b03908101835282610bfe565b90600182811c92168015610edb575b6020831014610ec757565b634e487b7160e01b5f52602260045260245ffd5b91607f1691610ebc565b9060405191825f825492610ef884610ead565b9081845260019485811690815f14610f635750600114610f23575b5050610f2192500383610bfe565b565b909391505f52602090815f20935f915b818310610f4b575050610f2193508201015f80610f13565b85548884018501529485019487945091830191610f33565b915050610f2194506020925060ff191682840152151560051b8201015f80610f13565b346101cb5760203660031901126101cb576004355f52600a6020526102ee610fb060405f20610ee5565b60405191829160208352602083019061025e565b346101cb575f3660031901126101cb576020600954604051908152f35b346101cb5760403660031901126101cb57602060ff6110316110016103a9565b6110096103bf565b6001600160a01b039182165f9081526005865260408082209290931681526020919091522090565b54166040519015158152f35b346101cb5760203660031901126101cb576110566103a9565b61105e611112565b6001600160a01b038181169182156110be576006805462010000600160b01b03198116601093841b62010000600160b01b031617909155901c167f8be0079c531659141344cd1fd0a4f28419497f9722a3daafe3b4186f6b6457e05f80a3005b60405162461bcd60e51b815260206004820152602660248201527f4f776e61626c653a206e6577206f776e657220697320746865207a65726f206160448201526564647265737360d01b6064820152608490fd5b60065460101c6001600160a01b0316330361112957565b606460405162461bcd60e51b815260206004820152602060248201527f4f776e61626c653a2063616c6c6572206973206e6f7420746865206f776e65726044820152fd5b1561117457565b60405162461bcd60e51b815260206004820152601860248201527f4552433732313a20696e76616c696420746f6b656e20494400000000000000006044820152606490fd5b5f908152600260205260409020546001600160a01b031661029481151561116d565b156111e257565b60405162461bcd60e51b815260206004820152603d60248201527f4552433732313a20617070726f76652063616c6c6572206973206e6f7420746f60448201527f6b656e206f776e6572206f7220617070726f76656420666f7220616c6c0000006064820152608490fd5b5f8181526002602052604090205461126f906001600160a01b0316151561116d565b5f908152600460205260409020546001600160a01b031690565b1561129057565b60405162461bcd60e51b815260206004820152602d60248201527f4552433732313a2063616c6c6572206973206e6f7420746f6b656e206f776e6560448201526c1c881bdc88185c1c1c9bdd9959609a1b6064820152608490fd5b604051906112f882610bc1565b5f8252565b906113219392916113116105058433611398565b61131c83838361146a565b611692565b1561132857565b60405162461bcd60e51b81528061134160048201611345565b0390fd5b60809060208152603260208201527f4552433732313a207472616e7366657220746f206e6f6e20455243373231526560408201527131b2b4bb32b91034b6b83632b6b2b73a32b960711b60608201520190565b6001600160a01b03806113aa846111b9565b1692818316928484149485156113e0575b505083156113ca575b50505090565b6113d69192935061124d565b16145f80806113c4565b5f9081526005602090815260408083206001600160a01b039490941683529290529081205460ff169450806113bb565b1561141757565b60405162461bcd60e51b815260206004820152602560248201527f4552433732313a207472616e736665722066726f6d20696e636f72726563742060448201526437bbb732b960d91b6064820152608490fd5b61148e90611477846111b9565b6001600160a01b0382811693909182168414611410565b831692831561156a576114ee611544926114c0856114ba6114ae8a6111b9565b6001600160a01b031690565b14611410565b6114d5610623885f52600460205260405f2090565b6001600160a01b03165f90815260036020526040902090565b80545f190190556001600160a01b0381165f90815260036020526040902060018154019055611525855f52600260205260405f2090565b80546001600160a01b0319166001600160a01b03909216919091179055565b7fddf252ad1be2c89b69c2b068fc378daa952ba7f163c4a11628f55a4df523b3ef5f80a4565b60405162461bcd60e51b8152602060048201526024808201527f4552433732313a207472616e7366657220746f20746865207a65726f206164646044820152637265737360e01b6064820152608490fd5b5f82815260046020526040902080546001600160a01b0319166001600160a01b0383161790556001600160a01b03806115f3846111b9565b169116907f8c5be1e5ebec7d5bd14f71427d1e84f3dd0314c0f7b2291e5b200ac8c7c3b9255f80a4565b908160209103126101cb5751610294816101b9565b6001600160a01b0391821681529116602082015260408101919091526080606082018190526102949291019061025e565b3d1561168d573d9061167482610c20565b916116826040519384610bfe565b82523d5f602084013e565b606090565b92909190823b1561174a576116c4926020925f604051809681958294630a85bd0160e11b9a8b85523360048601611632565b03926001600160a01b03165af15f918161171a575b5061170c576116e6611663565b805190816117075760405162461bcd60e51b81528061134160048201611345565b602001fd5b6001600160e01b0319161490565b61173c91925060203d8111611743575b6117348183610bfe565b81019061161d565b905f6116d9565b503d61172a565b50505050600190565b1561175a57565b60405162461bcd60e51b815260206004820152602e60248201527f496e697469616c697a61626c653a20636f6e747261637420697320616c72656160448201526d191e481a5b9a5d1a585b1a5e995960921b6064820152608490fd5b60207f9cdacdb36d2520a1835afa895c5c909aebc712800a0ae00307913373436fae21916117e2611112565b600780546001600160a01b0319166001600160a01b03929092169182179055604051908152a1565b600754939493909190336001600160a01b0391821614159081611959575b506119475760095492835f526020600a815260405f209267ffffffffffffffff8311610bdd576118628361185c8654610ead565b86611968565b5f91601f84116001146118d2575091806118af9492610f219899945f926118c7575b50508160011b915f199060031b1c19161790555b6118aa845f52600b60205260405f2090565b6119bb565b6118c26118bd6009546119e7565b600955565b611a46565b013590505f80611884565b91601f1984166118e5865f5260205f2090565b9382905b82821061192f575050926001928592610f219a9b966118af989610611916575b505050811b019055611898565b01355f19600384901b60f8161c191690555f8080611909565b806001859782949688013581550196019301906118e9565b604051630636a15760e11b8152600490fd5b9050600854163314155f611828565b90601f811161197657505050565b5f91825260208220906020601f850160051c830194106119b1575b601f0160051c01915b8281106119a657505050565b81815560010161199a565b9092508290611991565b9060088110156105195760ff80198354169116179055565b634e487b7160e01b5f52601160045260245ffd5b5f1981146119f55760010190565b6119d3565b15611a0157565b60405162461bcd60e51b815260206004820152601c60248201527f4552433732313a20746f6b656e20616c7265616479206d696e746564000000006044820152606490fd5b6001600160a01b038116908115611af9575f83815260026020526040902054611ad29190611a80906001600160a01b031615155b156119fa565b5f84815260026020526040902054611aa2906001600160a01b03161515611a7a565b6001600160a01b0381165f90815260036020526040902060018154019055611525845f52600260205260405f2090565b5f7fddf252ad1be2c89b69c2b068fc378daa952ba7f163c4a11628f55a4df523b3ef8180a4565b606460405162461bcd60e51b815260206004820152602060248201527f4552433732313a206d696e7420746f20746865207a65726f20616464726573736044820152fd5b15611b4457565b60405162461bcd60e51b8152602060048201526014602482015273151bdad95b88191bd95cc81b9bdd08195e1a5cdd60621b6044820152606490fd5b90611b936020928281519485920161023d565b0190565b90611ba182610c20565b611bae6040519182610bfe565b8281528092611bbf601f1991610c20565b0190602036910137565b90600282018092116119f557565b90602082018092116119f557565b908151811015611bf6570160200190565b634e487b7160e01b5f52603260045260245ffd5b8015611c8957805f8082805b611c715750611c2481611b97565b935b611c305750505090565b5f1981019081116119f5578092600a91603083830681018091116119f55760f81b6001600160f81b031916841a90611c689087611be5565b53049182611c26565b9250611c7e600a916119e7565b920480849391611c16565b50604051611c9681610be2565b60018152600360fc1b602082015290565b60405190611cb482610be2565b600a825269109858dad9dc9bdd5b9960b21b6020830152565b60405190611cda82610be2565b600482526341726d7360e01b6020830152565b60405190611cfa82610be2565b600482526315185a5b60e21b6020830152565b60405190611d1a82610be2565b60048252634561727360e01b6020830152565b60405190611d3a82610be2565b6004825263426f647960e01b6020830152565b60405190611d5a82610be2565b60048252634661636560e01b6020830152565b60405190611d7a82610be2565b600582526409adeeae8d60db1b6020830152565b60405190611d9b82610be2565b600d82526c4d697363656c6c616e656f757360981b6020830152565b60405190611dc482610be2565b60078252662ab735b737bbb760c91b6020830152565b611de38161050f565b8015611ea657611df28161050f565b60018114611e9d57611e038161050f565b60028114611e9457611e148161050f565b60038114611e8b57611e258161050f565b60048114611e8257611e368161050f565b60058114611e7957611e478161050f565b60068114611e705780611e5b60079261050f565b14611e6857610294611db7565b610294611d8e565b50610294611d6d565b50610294611d4d565b50610294611d2d565b50610294611d0d565b50610294611ced565b50610294611ccd565b50610294611ca7565b604051906060820182811067ffffffffffffffff821117610bdd57604052604082527f6768696a6b6c6d6e6f707172737475767778797a303132333435363738392b2f6040837f4142434445464748494a4b4c4d4e4f505152535455565758595a61626364656660208201520152565b600281901b91906001600160fe1b038116036119f557565b80511561202057611f46611eaf565b611f62611f5d611f568451611bc9565b6003900490565b611f1f565b91611f74611f6f84611bd7565b611b97565b92835280815182019060208501935b828210611fc457505050600390510680600114611fb357600214611fa5575090565b603d60f81b5f199091015290565b50613d3d60f01b6001199091015290565b90919360049060038094019384516001603f81818460121c16880101519260f893841b8652828282600c1c1689010151841b8387015282828260061c1689010151841b60028701521686010151901b9082015201939190611f83565b506102946112eb56fea2646970667358221220765c8385046a287b7934db322848082ae4bc96bcc396d377f41f14f0a3961ebe64736f6c63430008140033","linkReferences":{}},"methodIdentifiers":{"aminalsNFT()":"a913614e","approve(address,uint256)":"095ea7b3","balanceOf(address)":"70a08231","burn(uint256)":"42966c68","currentId()":"e00dd161","geneFactory()":"b473522c","geneSVGs(uint256)":"cc66ddc8","geneVisualsCat(uint256)":"2b4205f2","getApproved(uint256)":"081812fc","getGeneInfo(uint256)":"79b68ad3","isApprovedForAll(address,address)":"e985e9c5","mint(address,string,uint8)":"6a4b8883","name()":"06fdde03","owner()":"8da5cb5b","ownerOf(uint256)":"6352211e","renounceOwnership()":"715018a6","safeTransferFrom(address,address,uint256)":"42842e0e","safeTransferFrom(address,address,uint256,bytes)":"b88d4fde","setApprovalForAll(address,bool)":"a22cb465","setFactory(address)":"5bb47808","setup(address)":"66d38203","supportsInterface(bytes4)":"01ffc9a7","symbol()":"95d89b41","tokenURI(uint256)":"c87b56dd","transferFrom(address,address,uint256)":"23b872dd","transferOwnership(address)":"f2fde38b"},"id":53}