{"abi":[{"type":"constructor","inputs":[{"name":"_Genes","type":"address","internalType":"address"},{"name":"_geneFactory","type":"address","internalType":"address"}],"stateMutability":"nonpayable"},{"type":"function","name":"ENERGY_TRANSFER_PERCENTAGE","inputs":[],"outputs":[{"name":"","type":"uint256","internalType":"uint256"}],"stateMutability":"view"},{"type":"function","name":"VOTING_DURATION","inputs":[],"outputs":[{"name":"","type":"uint256","internalType":"uint256"}],"stateMutability":"view"},{"type":"function","name":"aminalFactory","inputs":[],"outputs":[{"name":"","type":"address","internalType":"contract IAminalFactory"}],"stateMutability":"view"},{"type":"function","name":"aminalsContract","inputs":[],"outputs":[{"name":"","type":"address","internalType":"address"}],"stateMutability":"view"},{"type":"function","name":"auctionCounter","inputs":[],"outputs":[{"name":"","type":"uint256","internalType":"uint256"}],"stateMutability":"view"},{"type":"function","name":"auctions","inputs":[{"name":"","type":"uint256","internalType":"uint256"}],"outputs":[{"name":"aminalOne","type":"uint256","internalType":"uint256"},{"name":"aminalTwo","type":"uint256","internalType":"uint256"},{"name":"totalLove","type":"uint256","internalType":"uint256"},{"name":"startTime","type":"uint256","internalType":"uint256"},{"name":"endTime","type":"uint256","internalType":"uint256"},{"name":"settled","type":"bool","internalType":"bool"},{"name":"childAminalId","type":"uint256","internalType":"uint256"}],"stateMutability":"view"},{"type":"function","name":"bulkVoteOnGenes","inputs":[{"name":"auctionId","type":"uint256","internalType":"uint256"},{"name":"geneIds","type":"uint256[8]","internalType":"uint256[8]"}],"outputs":[],"stateMutability":"nonpayable"},{"type":"function","name":"createAuction","inputs":[{"name":"aminalOne","type":"uint256","internalType":"uint256"},{"name":"aminalTwo","type":"uint256","internalType":"uint256"},{"name":"totalLove","type":"uint256","internalType":"uint256"}],"outputs":[{"name":"auctionId","type":"uint256","internalType":"uint256"}],"stateMutability":"nonpayable"},{"type":"function","name":"emergencyStop","inputs":[],"outputs":[],"stateMutability":"nonpayable"},{"type":"function","name":"geneFactory","inputs":[],"outputs":[{"name":"","type":"address","internalType":"contract GeneRegistry"}],"stateMutability":"view"},{"type":"function","name":"genes","inputs":[],"outputs":[{"name":"","type":"address","internalType":"contract Genes"}],"stateMutability":"view"},{"type":"function","name":"getAuctionInfo","inputs":[{"name":"auctionId","type":"uint256","internalType":"uint256"}],"outputs":[{"name":"aminalOne","type":"uint256","internalType":"uint256"},{"name":"aminalTwo","type":"uint256","internalType":"uint256"},{"name":"totalLove","type":"uint256","internalType":"uint256"},{"name":"startTime","type":"uint256","internalType":"uint256"},{"name":"endTime","type":"uint256","internalType":"uint256"},{"name":"settled","type":"bool","internalType":"bool"},{"name":"childAminalId","type":"uint256","internalType":"uint256"}],"stateMutability":"view"},{"type":"function","name":"getCategoryVoting","inputs":[{"name":"auctionId","type":"uint256","internalType":"uint256"},{"name":"category","type":"uint8","internalType":"enum IAminalStructs.VisualsCat"}],"outputs":[{"name":"","type":"tuple","internalType":"struct GeneAuction.CategoryVoteInfo","components":[{"name":"highestVotes","type":"uint256","internalType":"uint256"},{"name":"winningGeneId","type":"uint256","internalType":"uint256"},{"name":"proposedGenes","type":"uint256[]","internalType":"uint256[]"},{"name":"tiedGenes","type":"uint256[]","internalType":"uint256[]"}]}],"stateMutability":"view"},{"type":"function","name":"getGeneRemovalVotes","inputs":[{"name":"auctionId","type":"uint256","internalType":"uint256"},{"name":"category","type":"uint8","internalType":"enum IAminalStructs.VisualsCat"},{"name":"geneId","type":"uint256","internalType":"uint256"}],"outputs":[{"name":"removalVotes","type":"uint256","internalType":"uint256"}],"stateMutability":"view"},{"type":"function","name":"getGeneVotes","inputs":[{"name":"auctionId","type":"uint256","internalType":"uint256"},{"name":"category","type":"uint8","internalType":"enum IAminalStructs.VisualsCat"},{"name":"geneId","type":"uint256","internalType":"uint256"}],"outputs":[{"name":"totalVotes","type":"uint256","internalType":"uint256"}],"stateMutability":"view"},{"type":"function","name":"getParentTraits","inputs":[{"name":"auctionId","type":"uint256","internalType":"uint256"}],"outputs":[{"name":"parentOneTraits","type":"uint256[8]","internalType":"uint256[8]"},{"name":"parentTwoTraits","type":"uint256[8]","internalType":"uint256[8]"}],"stateMutability":"view"},{"type":"function","name":"getUserVote","inputs":[{"name":"auctionId","type":"uint256","internalType":"uint256"},{"name":"category","type":"uint8","internalType":"enum IAminalStructs.VisualsCat"},{"name":"geneId","type":"uint256","internalType":"uint256"},{"name":"user","type":"address","internalType":"address"}],"outputs":[{"name":"voteWeight","type":"uint256","internalType":"uint256"}],"stateMutability":"view"},{"type":"function","name":"getUserVotedGene","inputs":[{"name":"auctionId","type":"uint256","internalType":"uint256"},{"name":"category","type":"uint8","internalType":"enum IAminalStructs.VisualsCat"},{"name":"user","type":"address","internalType":"address"}],"outputs":[{"name":"geneId","type":"uint256","internalType":"uint256"}],"stateMutability":"view"},{"type":"function","name":"getUserVotingPower","inputs":[{"name":"auctionId","type":"uint256","internalType":"uint256"},{"name":"user","type":"address","internalType":"address"}],"outputs":[{"name":"","type":"uint256","internalType":"uint256"}],"stateMutability":"view"},{"type":"function","name":"isVotingActive","inputs":[{"name":"auctionId","type":"uint256","internalType":"uint256"}],"outputs":[{"name":"","type":"bool","internalType":"bool"}],"stateMutability":"view"},{"type":"function","name":"owner","inputs":[],"outputs":[{"name":"","type":"address","internalType":"address"}],"stateMutability":"view"},{"type":"function","name":"proposeGene","inputs":[{"name":"auctionId","type":"uint256","internalType":"uint256"},{"name":"category","type":"uint8","internalType":"enum IAminalStructs.VisualsCat"},{"name":"geneId","type":"uint256","internalType":"uint256"}],"outputs":[],"stateMutability":"nonpayable"},{"type":"function","name":"renounceOwnership","inputs":[],"outputs":[],"stateMutability":"nonpayable"},{"type":"function","name":"settleAuction","inputs":[{"name":"auctionId","type":"uint256","internalType":"uint256"}],"outputs":[],"stateMutability":"nonpayable"},{"type":"function","name":"setup","inputs":[{"name":"_aminalsContract","type":"address","internalType":"address"},{"name":"_aminalFactory","type":"address","internalType":"address"}],"outputs":[],"stateMutability":"nonpayable"},{"type":"function","name":"transferOwnership","inputs":[{"name":"newOwner","type":"address","internalType":"address"}],"outputs":[],"stateMutability":"nonpayable"},{"type":"function","name":"voteOnGene","inputs":[{"name":"auctionId","type":"uint256","internalType":"uint256"},{"name":"category","type":"uint8","internalType":"enum IAminalStructs.VisualsCat"},{"name":"geneId","type":"uint256","internalType":"uint256"}],"outputs":[],"stateMutability":"nonpayable"},{"type":"function","name":"voteToRemoveGene","inputs":[{"name":"auctionId","type":"uint256","internalType":"uint256"},{"name":"category","type":"uint8","internalType":"enum IAminalStructs.VisualsCat"},{"name":"geneId","type":"uint256","internalType":"uint256"},{"name":"voteWeight","type":"uint256","internalType":"uint256"}],"outputs":[],"stateMutability":"nonpayable"},{"type":"event","name":"BulkVoteCast","inputs":[{"name":"auctionId","type":"uint256","indexed":true,"internalType":"uint256"},{"name":"voter","type":"address","indexed":true,"internalType":"address"},{"name":"geneIds","type":"uint256[8]","indexed":false,"internalType":"uint256[8]"}],"anonymous":false},{"type":"event","name":"GeneProposed","inputs":[{"name":"auctionId","type":"uint256","indexed":true,"internalType":"uint256"},{"name":"category","type":"uint8","indexed":true,"internalType":"enum IAminalStructs.VisualsCat"},{"name":"geneId","type":"uint256","indexed":true,"internalType":"uint256"},{"name":"proposer","type":"address","indexed":false,"internalType":"address"}],"anonymous":false},{"type":"event","name":"GeneRemovalVote","inputs":[{"name":"auctionId","type":"uint256","indexed":true,"internalType":"uint256"},{"name":"category","type":"uint8","indexed":true,"internalType":"enum IAminalStructs.VisualsCat"},{"name":"geneId","type":"uint256","indexed":true,"internalType":"uint256"},{"name":"voter","type":"address","indexed":false,"internalType":"address"},{"name":"voteWeight","type":"uint256","indexed":false,"internalType":"uint256"}],"anonymous":false},{"type":"event","name":"GeneRemoved","inputs":[{"name":"auctionId","type":"uint256","indexed":true,"internalType":"uint256"},{"name":"category","type":"uint8","indexed":true,"internalType":"enum IAminalStructs.VisualsCat"},{"name":"geneId","type":"uint256","indexed":true,"internalType":"uint256"}],"anonymous":false},{"type":"event","name":"GeneVoteCast","inputs":[{"name":"auctionId","type":"uint256","indexed":true,"internalType":"uint256"},{"name":"category","type":"uint8","indexed":true,"internalType":"enum IAminalStructs.VisualsCat"},{"name":"geneId","type":"uint256","indexed":true,"internalType":"uint256"},{"name":"voter","type":"address","indexed":false,"internalType":"address"}],"anonymous":false},{"type":"event","name":"Initialized","inputs":[{"name":"version","type":"uint8","indexed":false,"internalType":"uint8"}],"anonymous":false},{"type":"event","name":"OwnershipTransferred","inputs":[{"name":"previousOwner","type":"address","indexed":true,"internalType":"address"},{"name":"newOwner","type":"address","indexed":true,"internalType":"address"}],"anonymous":false},{"type":"event","name":"VotingCreated","inputs":[{"name":"auctionId","type":"uint256","indexed":true,"internalType":"uint256"},{"name":"aminalOne","type":"uint256","indexed":true,"internalType":"uint256"},{"name":"aminalTwo","type":"uint256","indexed":true,"internalType":"uint256"},{"name":"totalLove","type":"uint256","indexed":false,"internalType":"uint256"},{"name":"startTime","type":"uint256","indexed":false,"internalType":"uint256"},{"name":"endTime","type":"uint256","indexed":false,"internalType":"uint256"}],"anonymous":false},{"type":"event","name":"VotingSettled","inputs":[{"name":"auctionId","type":"uint256","indexed":true,"internalType":"uint256"},{"name":"childAminalId","type":"uint256","indexed":true,"internalType":"uint256"},{"name":"winningGeneIds","type":"uint256[8]","indexed":false,"internalType":"uint256[8]"},{"name":"totalEnergyTransferred","type":"uint256","indexed":false,"internalType":"uint256"}],"anonymous":false},{"type":"error","name":"EnergyTransferFailed","inputs":[]},{"type":"error","name":"GeneAlreadyRemoved","inputs":[]},{"type":"error","name":"InsufficientLove","inputs":[]},{"type":"error","name":"InvalidCategory","inputs":[]},{"type":"error","name":"InvalidGene","inputs":[]},{"type":"error","name":"NoVotingPower","inputs":[]},{"type":"error","name":"OnlyAminals","inputs":[]},{"type":"error","name":"VotingAlreadySettled","inputs":[]},{"type":"error","name":"VotingNotActive","inputs":[]},{"type":"error","name":"VotingNotEnded","inputs":[]}],"bytecode":{"object":"0x608034620000ed57601f6200263038819003918201601f19168301916001600160401b03831184841017620000f1578084926040948552833981010312620000ed576200005a6020620000528362000105565b920162000105565b5f805462010000600160b01b0319811633601081811b62010000600160b01b031692909217845560405195946001600160a01b0394909391929190911c8416907f8be0079c531659141344cd1fd0a4f28419497f9722a3daafe3b4186f6b6457e09080a3600180558160018060a01b031993168360025416176002551690600354161760035561251590816200011b8239f35b5f80fd5b634e487b7160e01b5f52604160045260245ffd5b51906001600160a01b0382168203620000ed5756fe60806040526004361015610011575f80fd5b5f3560e01c80632442769d14611ac35780632d34ba791461196d5780632e993611146110c55780635423c12a14610f02578063571a26a014610e825780635f16ec5214610e5a57806362d05bd914610e3757806363a599a414610e1d5780636c68134814610de8578063715018a614610d8c578063741a955f14610d64578063772744b514610d0c578063855db2b714610ce45780638da5cb5b14610cb95780639f85022514610be1578063a438d20814610bc4578063a736c73414610a44578063a7e7664414610a27578063a8d2c3e81461099e578063b473522c14610976578063b4b01e8a14610925578063bd9d71a61461067e578063c853dfe414610663578063cda4beef14610376578063d894a39a14610302578063dfe2125d146102bb578063f2fde38b146101e35763fc3fc4ed1461014d575f80fd5b346101df5760203660031901126101df5760043561016f600754821115611fe4565b5f52600660205260405f2080546101db6001830154926002810154906003810154600482015490600660ff600585015416930154936040519788978893909796959260c0959260e086019986526020860152604085015260608401526080830152151560a08201520152565b0390f35b5f80fd5b346101df5760203660031901126101df576101fc611dbc565b610204611e65565b6001600160a01b03818116918215610267575f805462010000600160b01b03198116601093841b62010000600160b01b031617825590911c91909116907f8be0079c531659141344cd1fd0a4f28419497f9722a3daafe3b4186f6b6457e09080a3005b60405162461bcd60e51b815260206004820152602660248201527f4f776e61626c653a206e6577206f776e657220697320746865207a65726f206160448201526564647265737360d01b6064820152608490fd5b346101df5760403660031901126101df5760206102fa6004356102dc611dd2565b906102eb600754821115611fe4565b5f526006835260405f206121b1565b604051908152f35b346101df5760603660031901126101df5760043560243560088110156101df576044356001600160a01b03811692908390036101df576003916103609161034d600754821115611fe4565b5f526006602052601760405f2001612040565b01905f52602052602060405f2054604051908152f35b346101df5760603660031901126101df5760048054604435916001600160a01b039160243591359083163303610651576103b1600754611ebf565b9283600755835f526020946006865260405f2083815584600182015581600282015542600382015562093a8042019182421161063d578260048301558660068301558360055416926040519263ce17823960e01b938481528760048201528a81602481895afa9485156105a0578b915f96610605575b5060246040518098819382528c60048301525afa80156105a05786955f916105cd575b50604051906306ffad0b60e31b95868352826004816101009a8b94165afa9586156105a05787925f976105ab575b50600490604051998a9384928352165afa9384156105a05760e08b6060966016938d9a7f04ce0bf6ac3393043358dbd9062069d086b7839f477bf8cc92a3fbb1cf9cee1c9a5f9361056f575b50508391928151600788015581015160088701556040810151600987015588810151600a8701556080810151600b87015560a0810151600c87015560c0810151600d8701550151600e8501558051600f8501558c8101516010850155604081015160118501558681015160128501556080810151601385015560a0810151601485015560c08101516015850155015191015560405191825242898301526040820152a4604051908152f35b859350908161059292903d10610599575b61058a8183611f27565b810190611f5d565b915f6104c4565b503d610580565b6040513d5f823e3d90fd5b60049197506105c690843d86116105995761058a8183611f27565b9690610478565b8096508b8092503d83116105fe575b6105e68183611f27565b810103126101df576105f88695611f49565b8b61044a565b503d6105dc565b8281939297503d8311610636575b61061d8183611f27565b810103126101df5761062f8b91611f49565b948c610427565b503d610613565b634e487b7160e01b5f52601160045260245ffd5b6040516386d1294360e01b8152600490fd5b346101df575f3660031901126101df576020604051600a8152f35b346101df5761068c36611de8565b9161069b600754821115611fe4565b805f5260206006815260405f209060048201544210156109135760ff6005830154166109015760088410156107e85760039160018060a01b03835416604051631280509760e31b81528760048201528381602481855afa9081156105a0575f916108d4575b50156108c2575f602491604051928380926379b68ad360e01b82528b60048301525afa9081156105a0575f916107fc575b5060088110156107e85785036107d65784601761074e9201612040565b5f908660075f9201948554925b8381106107a2575b505050501561076e57005b610799857fc69740c9b657b0f4df7c898e78dfcb72c993d5451aca46eaee685a868c3ded419361206b565b604051338152a4005b826107ad8289612056565b905490841b1c146107c6576107c190611ebf565b61075b565b5050505050600186868180610763565b604051636b3ac97b60e11b8152600490fd5b634e487b7160e01b5f52602160045260245ffd5b90503d805f833e61080d8183611f27565b8101906060818303126101df5761082381611f49565b50838101519160088310156101df57604082015167ffffffffffffffff928382116101df570181601f820112156101df5780519283116108ae5760405191610874601f8501601f1916880184611f27565b8383528684830101116101df579085915f5b84811061089a5750505f9201015287610731565b818101840151838201850152879301610886565b634e487b7160e01b5f52604160045260245ffd5b6040516361075f6560e01b8152600490fd5b6108f49150843d86116108fa575b6108ec8183611f27565b810190612028565b88610700565b503d6108e2565b6040516327829c6160e11b8152600490fd5b604051639b8cc47560e01b8152600490fd5b346101df5760803660031901126101df5760043560243560088110156101df576064356001600160a01b03811681036101df576020926102fa9261096d600754831115611fe4565b60443591612442565b346101df575f3660031901126101df576003546040516001600160a01b039091168152602090f35b346101df5760203660031901126101df57610200600435604051906109c282611f0a565b6101008092369037816040516109d781611f0a565b3690376109e8600754821115611fe4565b5f526006602052610a2560405f2091610a0f600f610a08600786016124ad565b94016124ad565b90610a1d6040518095611e3e565b830190611e3e565bf35b346101df575f3660031901126101df576020600754604051908152f35b346101df57610a5236611de8565b91610a61600754821115611fe4565b805f5260206006815260405f209060048201544210156109135760ff6005830154166109015760088410156107e857610a9a33836121b1565b918215610bb257846017610aae9201612040565b5f8087600784018054925b838110610b7d575b50505050156108c25785817f18b3d92eda77cce961dc7abde6f2d3057331290d51ba0a6e9258c2d4d70acc8d9460036107999401335f5280865260405f205480610b52575b50335f5285528260405f20556004820185528060405f205560058201855260405f20600160ff19825416179055825f52600282018552610b4b60405f20918254611ecd565b90556120b4565b60048401875260405f2054905f52600284018752610b7560405f20918254612095565b90558a610b06565b82610b888284612056565b90549060031b1c14610ba257610b9d90611ebf565b610ab9565b5050505050600187878180610ac1565b604051631f05dadd60e21b8152600490fd5b346101df575f3660031901126101df57602060405162093a808152f35b346101df5760403660031901126101df5760043560243560088110156101df57610c3391606080604051610c1481611eee565b5f81525f6020820152816040820152015261034d600754821115611fe4565b80546101db60018301549260405192610c4b84611eee565b835260208301938452610ca6610c766008610c68600785016123f6565b9360408701948552016123f6565b916060850192835260405195869560208752516020870152516040860152516080606086015260a0850190611e0b565b9051838203601f19016080850152611e0b565b346101df575f3660031901126101df575f5460405160109190911c6001600160a01b03168152602090f35b346101df575f3660031901126101df576005546040516001600160a01b039091168152602090f35b346101df5760203660031901126101df57600435610d2e600754821115611fe4565b5f526006602052602060405f20600481015442109081610d54575b506040519015158152f35b60ff915060050154161582610d49565b346101df575f3660031901126101df576004546040516001600160a01b039091168152602090f35b346101df575f3660031901126101df57610da4611e65565b5f805462010000600160b01b03198116825560101c6001600160a01b03167f8be0079c531659141344cd1fd0a4f28419497f9722a3daafe3b4186f6b6457e08280a3005b346101df576103606006610dfb36611de8565b9391610e0b600754821115611fe4565b5f5282602052601760405f2001612040565b346101df575f3660031901126101df57610e35611e65565b005b346101df576103606002610e4a36611de8565b939161034d600754821115611fe4565b346101df575f3660031901126101df576002546040516001600160a01b039091168152602090f35b346101df5760203660031901126101df576004355f52600660205260405f2080546101db6001830154926002810154906003810154600482015490600660ff600585015416930154936040519788978893909796959260c0959260e086019986526020860152604085015260608401526080830152151560a08201520152565b346101df576101203660031901126101df5760043536610124116101df576007610f2f8154831115611fe4565b815f5260206006815260405f209160048301544210156109135760ff9260059084828201541661090157610f6333826121b1565b938415610bb2575f5b60088110610fa657604051887f59665d454f1f7527bb04c7fcd123a8f4a6e88b98074ab5680dc9ca82178575b561010080602485373393a3005b610faf816120a2565b35610fc3575b610fbe90611ebf565b610f6c565b610fcc816120a2565b3590610fdb8160178601612040565b5f808883018054915b828110611092575b505050156108c257610fbe928160036110609301335f5280875260405f205490898301918289528d60405f205416611067575b50335f5287528260405f20556004820187528a60405f2055865260405f20600160ff19825416179055815f5260028101865260405f20610b4b8b8254611ecd565b9050610fb5565b60048401895260405f2054905f5260028401895261108a60405f20918254612095565b90558e61101f565b8661109d8284612056565b90549060031b1c146110b7576110b290611ebf565b610fe4565b5050505060018b8080610fec565b346101df5760203660031901126101df576110e66007546004351115611fe4565b6002600154146119285760026001556004355f52600660205260405f20600481015442106119165760058101805460ff81166109015760ff191660011790556040519061113282611f0a565b610100368337600554815460405163ce17823960e01b815260048101919091526001600160a01b03909116925f90602083602481885afa9283156105a0575f936118da575b506020600185015460246040518098819363ce17823960e01b835260048301525afa9485156105a0575f9561189e575b5060405163c02e705760e01b81526020816004816001600160a01b0388165afa9081156105a0575f9161186c575b5060405163c02e705760e01b81526020816004816001600160a01b038b165afa9081156105a0575f9161183a575b5081600a810204600a148215171561063d5780600a810204600a148115171561063d575f5b60088110156115ff5761123e8160178901612040565b5f81541515806115f2575b156114c15750600881015460018111156114995790600861126d61127493856123a0565b9101612056565b90549060031b1c5b808260051b86015280611299575b5061129490611ebf565b611228565b600354604051631280509760e31b81526004810183905290602090829060249082906001600160a01b03165afa9081156105a0575f9161147a575b501561128a576112f0606480600a86020490600a870204611ecd565b908160031c611300575b5061128a565b6002546040516331a9108f60e11b81526004810192909252602090829060249082906001600160a01b03165afa9081156105a0575f91611440575b506001600160a01b0388163b156101df57604051638e66b67960e01b8152600483811c908201526001600160a01b03821660248201525f8180604481010381836001600160a01b038e165af19081611431575b5061141c575b6001600160a01b038a163b156101df57604051638e66b67960e01b8152600483811c908201526001600160a01b0390911660248201525f818b8183816044810103926001600160a01b03165af1908161140d575b506113f4575b806112fa565b61129491956114069160041c90611ecd565b94906113ee565b61141690611eda565b8a6113e8565b9561142b908260041c90611ecd565b95611394565b61143a90611eda565b8b61138e565b90506020813d602011611472575b8161145b60209383611f27565b810103126101df5761146c90611f49565b8a61133b565b3d915061144e565b611493915060203d6020116108fa576108ec8183611f27565b8a6112d4565b156114ad576008015f5260205f205461127c565b634e487b7160e01b5f52603260045260245ffd5b905060405180606081011067ffffffffffffffff6060830111176108ae57606081016040526002815260403660208301375f906115018460078c01611fd5565b90549060031b1c6115c8575b83600f8b0161151c8282611fd5565b90549060031b1c15158061159a575b61156c575b50508161153f575b505061127c565b9091506103e88301831161063d5761155e611564926103e885016123a0565b9061238c565b518980611538565b61159292939161157b91611fd5565b90549060031b1c61158c828561238c565b52611ebf565b90838c611530565b508b6115ba8360076115ac8286611fd5565b90549060031b1c9301611fd5565b90549060031b1c141561152b565b90506115d78360078b01611fd5565b90549060031b1c8151156114ad57602082015260019061150d565b5060088201541515611249565b8385886006810191825490604051906116188287611e3e565b6101008201527f6e7952f5edb9a99a208e30b67db52814d4ddc53e2380994acf269700c0bb001b61012060043592a360018060a01b03600554168154916040519263ce17823960e01b84526004840152602083602481855afa9283156105a0575f936117fc575b5060010154906040519163ce17823960e01b83526004830152602082602481845afa9182156105a0575f926117b6575b50604051637b5cbc8d60e01b81526001600160a01b0393841660048201529190921660248201529260209184916101449183915f91906116f3906044850190611e3e565b5af180156105a05761177c575b6005546040516324d47ded60e21b81529250602090839060049082906001600160a01b03165afa9182156105a0575f92611748575b505f19820191821161063d575560018055005b9091506020813d602011611774575b8161176460209383611f27565b810103126101df57519082611735565b3d9150611757565b6020823d6020116117ae575b8161179560209383611f27565b810103126101df576117a8600492611f49565b50611700565b3d9150611788565b9091506020813d6020116117f4575b816117d260209383611f27565b810103126101df576020925f6117ea61014493611f49565b93925050926116af565b3d91506117c5565b9092506020813d602011611832575b8161181860209383611f27565b810103126101df5761182b600191611f49565b929061167f565b3d915061180b565b90506020813d602011611864575b8161185560209383611f27565b810103126101df575187611203565b3d9150611848565b90506020813d602011611896575b8161188760209383611f27565b810103126101df5751866111d5565b3d915061187a565b9094506020813d6020116118d2575b816118ba60209383611f27565b810103126101df576118cb90611f49565b93856111a7565b3d91506118ad565b9092506020813d60201161190e575b816118f660209383611f27565b810103126101df5761190790611f49565b9185611177565b3d91506118e9565b604051633fc30bd160e11b8152600490fd5b60405162461bcd60e51b815260206004820152601f60248201527f5265656e7472616e637947756172643a207265656e7472616e742063616c6c006044820152606490fd5b346101df5760403660031901126101df57611986611dbc565b61198e611dd2565b905f549160ff8360081c161592838094611ab6575b8015611a9f575b15611a435760ff1981166001175f5583611a32575b506119c8611e65565b60018060a01b0390816bffffffffffffffffffffffff60a01b9316836004541617600455169060055416176005556119fc57005b61ff00195f54165f557f7f26b83ff96e1f2b6a682f133852f6798a09c465da95921460cefb3847402498602060405160018152a1005b61ffff1916610101175f55836119bf565b60405162461bcd60e51b815260206004820152602e60248201527f496e697469616c697a61626c653a20636f6e747261637420697320616c72656160448201526d191e481a5b9a5d1a585b1a5e995960921b6064820152608490fd5b50303b1580156119aa5750600160ff8216146119aa565b50600160ff8216106119a3565b346101df5760803660031901126101df576004356024803560088110156101df576044359260643592611afa600754831115611fe4565b815f5260206006815260405f2060048101544210156109135760ff60058201541661090157611b2933826121b1565b8611611daa57611b3c8560178301612040565b955f808960078a018054925b838110611d75575b50505050156108c2578786867fadea539f40f4d017ffd7920182381589e08f982f1800ecc323cf73d7a055bfe16040600660029c0195855f52868952815f20611b9a828254611ecd565b905581519033825289820152a4875f52825260405f20549060039687910154041115611bc257005b825f9592955260068152611bdc84601760405f2001612040565b905f9260078301935b845480821015611d675789611bfa8388612056565b905490851b1c14611c145750611c0f90611ebf565b611be5565b91929394959697905f1992838101908111611d545790611c47611c3a611c5f938a612056565b905490871b1c9189612056565b90919082549060031b91821b915f19901b1916179055565b8554908115611d415750810190611c768287612056565b9091825491851b1b1916905584555b6002830192875f528383525f60408120556006810183525f60408120556001938482019289845414611cdf575b505050505050507fa94670bb0be097eab022386e89339871be18721ccda66e8756a394f7d489aa2a5f80a4005b5f808555808455865b611cf3575b50611cb2565b8754811015611d3c5780611d0a611d2b928a612056565b905490841b1c805f5284885260405f205486548111611d31575b5050611ebf565b86611ce8565b865586558c80611d24565b611ced565b634e487b7160e01b5f9081526031600452fd5b82634e487b7160e01b5f5260116004525ffd5b505090919293949550611c85565b82611d808284612056565b90549060031b1c14611d9a57611d9590611ebf565b611b48565b5050505050600189898180611b50565b6040516379e050d760e01b8152600490fd5b600435906001600160a01b03821682036101df57565b602435906001600160a01b03821682036101df57565b60609060031901126101df576004359060243560088110156101df579060443590565b9081518082526020808093019301915f5b828110611e2a575050505090565b835185529381019392810192600101611e1c565b5f915b60088310611e4e57505050565b600190825181526020809101920192019190611e41565b5f5460101c6001600160a01b03163303611e7b57565b606460405162461bcd60e51b815260206004820152602060248201527f4f776e61626c653a2063616c6c6572206973206e6f7420746865206f776e65726044820152fd5b5f19811461063d5760010190565b9190820180921161063d57565b67ffffffffffffffff81116108ae57604052565b6080810190811067ffffffffffffffff8211176108ae57604052565b610100810190811067ffffffffffffffff8211176108ae57604052565b90601f8019910116810190811067ffffffffffffffff8211176108ae57604052565b51906001600160a01b03821682036101df57565b809161010092839103126101df576040519182019082821067ffffffffffffffff8311176108ae5760e091604052805183526020810151602084015260408101516040840152606081015160608401526080810151608084015260a081015160a084015260c081015160c0840152015160e082015290565b60088210156114ad5701905f90565b15611feb57565b60405162461bcd60e51b8152602060048201526015602482015274159bdd1a5b99c8191bd95cc81b9bdd08195e1a5cdd605a1b6044820152606490fd5b908160209103126101df575180151581036101df5790565b9060088110156107e8575f5260205260405f2090565b80548210156114ad575f5260205f2001905f90565b90815491680100000000000000008310156108ae5782611c4791600161209395018155612056565b565b9190820391821161063d57565b60088110156114ad5760051b60240190565b91905f81815260028401602052604081205484548082115f1461211c57508455600860019483868201550190815490808355816120f9575b505061209392935061206b565b82815260208120918201915b82811061211257506120ec565b8181558601612105565b81959294951490816121a7575b5061213357505050565b6008810192835480155f14612155575050612151826001939461206b565b0155565b909150815b818110612176575b50501561216d575050565b6120939161206b565b836121818287612056565b90549060031b1c1461219b5761219690611ebf565b61215a565b50505060015f80612162565b905015155f612129565b60055481546040805163ce17823960e01b80825260048201939093529095946001600160a01b0394938516936020939092908482602481895afa9384156123825785925f95612342575b5060016024910154918a519788938492835260048301525afa938415612338575f94612301575b5086519483866024818480634562bd6f60e01b978884521697886004840152165afa9586156122f7575f966122c5575b508392916024918951968794859384526004840152165afa9485156122bc57505f94612289575b5050916122869192611ecd565b90565b81813d83116122b5575b61229d8183611f27565b810103126122b1575192506122865f612279565b8380fd5b503d612293565b513d5f823e3d90fd5b90958482813d83116122f0575b6122dc8183611f27565b810103126122ed5750519483612252565b80fd5b503d6122d2565b88513d5f823e3d90fd5b90938382813d8311612331575b6123188183611f27565b810103126122ed575061232a90611f49565b925f612222565b503d61230e565b87513d5f823e3d90fd5b919282819692963d831161237b575b61235b8183611f27565b810103126122ed575090602460016123738794611f49565b9591506121fb565b503d612351565b89513d5f823e3d90fd5b80518210156114ad5760209160051b010190565b81156123f05760405160208101914483524260408301524360608301523360601b608083015260948201526094815260c0810181811067ffffffffffffffff8211176108ae576040525190200690565b50505f90565b906040519182815491828252602092838301915f52835f20935f905b8282106124285750505061209392500383611f27565b855484526001958601958895509381019390910190612412565b92919061245e905f948552600660205260176040862001612040565b6001600160a01b03909216835260058201602052604083205460ff169081612498575b5061248a575090565b600401602052604090205490565b9050600382016020526040832054145f612481565b60405191905f835b600882106124c95750505061209382611f0a565b60016020819285548152019301910190916124b556fea2646970667358221220d6d2ad71ac6f818534e2db76de9b73959bf0fb65632ef9cd6963049b22dceb2264736f6c63430008140033","linkReferences":{}},"methodIdentifiers":{"ENERGY_TRANSFER_PERCENTAGE()":"c853dfe4","VOTING_DURATION()":"a438d208","aminalFactory()":"855db2b7","aminalsContract()":"741a955f","auctionCounter()":"a7e76644","auctions(uint256)":"571a26a0","bulkVoteOnGenes(uint256,uint256[8])":"5423c12a","createAuction(uint256,uint256,uint256)":"cda4beef","emergencyStop()":"63a599a4","geneFactory()":"b473522c","genes()":"5f16ec52","getAuctionInfo(uint256)":"fc3fc4ed","getCategoryVoting(uint256,uint8)":"9f850225","getGeneRemovalVotes(uint256,uint8,uint256)":"6c681348","getGeneVotes(uint256,uint8,uint256)":"62d05bd9","getParentTraits(uint256)":"a8d2c3e8","getUserVote(uint256,uint8,uint256,address)":"b4b01e8a","getUserVotedGene(uint256,uint8,address)":"d894a39a","getUserVotingPower(uint256,address)":"dfe2125d","isVotingActive(uint256)":"772744b5","owner()":"8da5cb5b","proposeGene(uint256,uint8,uint256)":"bd9d71a6","renounceOwnership()":"715018a6","settleAuction(uint256)":"2e993611","setup(address,address)":"2d34ba79","transferOwnership(address)":"f2fde38b","voteOnGene(uint256,uint8,uint256)":"a736c734","voteToRemoveGene(uint256,uint8,uint256,uint256)":"2442769d"},"id":48}